:100000001EC100004DC100004BC1000049C10000ED
:1000100047C1000045C1000043C1000041C10000CC
:100020003FC100003DC100003BC1000039C10000DC
:1000300037C1000035C1000033C1000031C10000EC
:100040002FC100002DC100002BC1000029C10000FC
:1000500027C1000025C1000023C100000C94CA1B69
:100060001FC100000C94A41F0C94DA1F19C10000DA
:1000700017C1000015C1000013C1000011C100002C
:100080000FC100000DC100000BC1000009C100003C
:100090000C9430200C94662003C100000C9477155A
:1000A000FFC00000FDC00000FBC00000F9C0000060
:1000B000F7C00000F5C00000F3C00000F1C0000070
:1000C000EFC00000EDC000000C94AC170C94BC20F5
:1000D0000C94F220E5C000000C9448210C947E2181
:1000E000DFC00000084AD73B3BCE016E84BCBFFD99
:1000F000C12F3D6C74319ABD56833DDA3D00C77FF8
:1001000011BED9E4BB4C3E916BAAAABE0000008090
:100110003F0000000A0B02090C0D0E080703040142
:1001200000000000000000000000000000000000CF
:10013000000000000000000000000000000012119C
:10014000100000000000000000000000000000009F
:10015000000000000000000001021020200808102C
:100160002040102040800201020108040201010227
:100170000408102040808040201008040201800400
:10018000020180402010080402010804020101025B
:10019000040810204080010204081020408005055A
:1001A0000505070508080808020202020A0A0808ED
:1001B000040404040101010101010101030303031B
:1001C00003030303040707070C0C0C0C0C0C0C0CAA
:1001D0000202020206060606060606060B0B0B0BBB
:1001E0000B0B0B0B000020002300260029002C0025
:1001F0002F00320000010000030106010901000088
:100200002200250028002B002E00310034000201BE
:100210000000050108010B01000021002400270057
:100220002A002D0030003300010100000401070105
:100230000A016C11721403208F201B21A7211124A5
:100240001FBECFEFD1E2DEBFCDBF00E00CBF13E099
:10025000A0E0B2E0EEE4F7E400E00BBF02C00790DC
:100260000D92AA3EB107D9F727E0AAEEB3E001C08C
:100270001D92A23EB207E1F711E0CFE1D1E000E02C
:1002800006C021970109802FFE010E943222C93148
:10029000D10780E00807A9F70E9413180C94A52342
:1002A000AFCE2F923F924F925F926F927F928F923A
:1002B0009F92AF92BF92CF92DF92EF92FF920F93F5
:1002C0001F93CF93DF9300D01F92CDB7DEB78B0182
:1002D0005C834B83FB01E150F04CEE0FFF1FEE0FF0
:1002E000FF1FE80FF91F408151816281738177FD03
:1002F00027C04C01B12CA12CC12CD12C7601A01609
:10030000B10664F5F40161917191819191914F0170
:100310000E94AB194B815C810E94301B9B01AC0198
:10032000C701B6010E944D186B017C012B813C81F5
:10033000205E3F4F3C832B833FEFA31AB30ADFCFEE
:100340009A838983312C212C81E090E0A0E0B0E0F9
:10035000C12CD12C760120163106CCF0C701B60194
:100360000F900F900F900F90DF91CF911F910F91F1
:10037000FF90EF90DF90CF90BF90AF909F908F90C5
:100380007F906F905F904F903F902F900895E981FC
:10039000FA814190519061907190FA83E983409481
:1003A00050946094709453014201880E991EAA1EC5
:1003B000BB1EC501B4010E94AB194B815C810E9438
:1003C000301B9B01AC01C701B6010E944C186B01A8
:1003D0007C0181E084149504A604B70408F080E051
:1003E00090E0B0E0A0E02B813C81205E3F4F3C8359
:1003F0002B833FEF231A330AAECF2F923F924F92B7
:100400005F926F927F928F929F92AF92BF92CF92A4
:10041000DF92EF92FF920F931F93CF93DF93CDB7AD
:10042000DEB7CB54D1090FB6F894DEBF0FBECDBFF7
:1004300026967FAF6EAF269728965FAF4EAF289770
:100440003E8B2D8B2C96FFAEEEAE2C97FB01E15030
:10045000F04CEE0FFF1FEE0FFF1FE80FF91F80801B
:100460009180A280B3808F8A988EA98EBA8EB501B2
:10047000A401442777FD43955527662777272996BA
:100480004FAF2997F901E150F04CEE0FFF1FEE0F2F
:10049000FF1F2896AEACBFAC2897EA0DFB1DC080AD
:1004A000D180E280F380CB8EDC8EED8EFE8EB701A4
:1004B000A601442777FD43955527662777272A9677
:1004C0004FAF2A97188B0F87F80130E020E02C9669
:1004D000EEACFFAC2C972E153F050CF43FC02296D6
:1004E0009FAF8EAF22971A8B098B312C212C812C38
:1004F000912C540183948D829E82AF82B886269679
:100500008EAC9FAC2697281439047CF129969FACB9
:1005100029972A96AFAC2A9730E020E041E050E0DE
:1005200060E070E09A10F5C1C55BDF4F0FB6F8943C
:10053000DEBF0FBECDBFDF91CF911F910F91FF9016
:10054000EF90DF90CF90BF90AF909F908F907F9073
:100550006F905F904F903F902F900895119211925D
:10056000119211922F5F3F4FB2CF2296EEADFFADA9
:10057000229781919191A191B1912296FFAFEEAF17
:1005800022978F88988CA98CBA8CB7FE23C04D8196
:100590005E816F81788541505109610971095A0165
:1005A0006B01A81AB90ACA0ADB0AD601C50121E003
:1005B000CD80DE80EF80F8848C159D05AE05BF05EB
:1005C00008F020E0822E912CB12CA12C8D829E82ED
:1005D000AF82B8865D01CC24DD24A8A2B9A2CAA24C
:1005E000DBA29C01AD01442755272CA33DA34EA3BC
:1005F0005FA32C96EEADFFAD2C97E219F3098D8821
:100600009E888E169F060CF4F4012896AEACBFAC03
:1006100028972496BFAEAEAE2497C988DA88DC8AC4
:10062000CB8A1E861D86812C912C54018394898649
:100630009A86AB86BC86812C912C5401CD84DE84B5
:10064000CE16DF0604F1F7FF02C0F0E0E0E0E20DB5
:10065000F31D2C96EEACFFAC2C97EE15FF0554F471
:10066000EE0FFF1FEE0FFF1FE00FF11F8082918240
:10067000A282B3822FEF221A320AE989FA893496CC
:10068000FA8BE98B3CCF2496AEADBFAD2497CD90CD
:10069000DD90ED90FD902496BFAFAEAF24972B8DEB
:1006A0003C8D4D8D5E8D57FF22C089859A85AB8527
:1006B000BC850197A109B109AC01BD014C195D09C7
:1006C0006E097F096A017B0181E029853A854B85A6
:1006D0005C85C216D306E406F50608F080E0482FD4
:1006E00050E070E060E049875A876B877C87B701EC
:1006F0008827992768A779A78AA79BA7EE24FF24B4
:1007000028A139A14AA15BA1C701B6010E9401221B
:100710002B013C012CA13DA14EA15FA168A579A5AB
:100720008AA59BA50E9401226CA77DA78EA79FA7E3
:10073000AB89BC894D915D916D917D91BC8BAB8BEB
:10074000DB01CA01880D991DAA1DBB1D89839A83EF
:10075000AB83BC8391E09F8F29813A814B815C817F
:10076000281539054A055B0508F01F8E2CA13DA10F
:100770004EA15FA1C701B6010E9401226B017C015D
:1007800089809A80AB80BC808C0C9D1CAE1CBF1CE9
:1007900089829A82AB82BC8252019924882488AAD9
:1007A00099AAAAAABBAA29813A814B815C81280D0A
:1007B000391D4A1D5B1D2CAB3DAB4EAB5FAB8CA412
:1007C0009DA4AEA4BFA454019924882488AE99AEF8
:1007D000AAAEBBAE280D391D4A1D5B1D2CAF3DAF27
:1007E0004EAF5FAFAB89BC8914972D933D934D936A
:1007F0005C93139728A139A14AA15BA168A579A5AB
:100800008AA59BA50E9401229F8C690D711D811DE7
:10081000911D230166247724460E571E681E791EFB
:100820002CA53DA54EA55FA54A01AA24BB24840C96
:10083000951CA61CB71C81E090E0A0E0B0E04981C7
:100840005A816B817C814C155D056E057F0518F022
:1008500080E090E0DC01880D991DAA1DBB1D41E0E0
:1008600050E060E070E088A899A8AAA8BBA8CCA82E
:10087000DDA8EEA8FFA8C814D904EA04FB0418F008
:1008800040E050E0BA01840F951FA61FB71F812CCE
:10089000912C54018394C8ACD9ACEAACFBAC2CAD20
:1008A0003DAD4EAD5FAD2C153D054E055F0518F015
:1008B000812C912C5401880E991EAA1EBB1E4D85B9
:1008C0005E854F5F5F4F5E874D87B8CEEF85F889B5
:1008D000C190D190E190F190F88BEF87DB01CA01D4
:1008E0000197A109B1098C199D09AE09BF09349777
:1008F00080839183A283B383E1E084179507A607E1
:10090000B70708F0E0E04E2F50E070E060E02F5FA6
:100910003F4F2C968EAC9FAC2C9728153905B4F21E
:1009200003CE4F925F926F927F928F929F92AF927F
:10093000BF92CF92DF92EF92FF920F931F93CF93CC
:10094000DF93CDB7DEB76A970FB6F894DEBF0FBE60
:10095000CDBF6D837E838F83988729013A01FA8EFC
:10096000E98E4B015C01B7FE08C0B094A09490944E
:100970008094811C911CA11CB11C7301620177FE43
:1009800007C0CC24DD247601C418D508E608F70892
:1009900095014427552729873A874B875C87AA24E6
:1009A000BB24C701AA27BB278D879E87AF87B88B3B
:1009B000EE24FF24C701B6010E940122698B7A8BC5
:1009C0008B8B9C8BA50194016D857E858F85988985
:1009D0000E9401226D8B7E8B8F8B988FC701B60191
:1009E0000E940122AB01BC01CD88DE88EF88F88C23
:1009F000D60199278827840F951FA61FB71FF1E0FE
:100A0000E0E030E020E084179507A607B70708F07C
:100A1000F0E0F983EA833B832C8329893A894B8967
:100A20005C897901DD24CC24C80ED91EEA1EFB1E88
:100A3000C816D906EA06FB0658F489819A81AB816B
:100A4000BC810196A11DB11D89839A83AB83BC83B0
:100A50002D893E894F89588DCA01AA27BB2729892C
:100A60003A894B895C894A01AA24BB24880E991EC5
:100A7000AA1EBB1E29853A854B855C856D857E85C2
:100A80008F8598890E940122860E971EA81EB91E86
:100A900089819A81AB81BC81880E991EAA1EBB1EDA
:100AA0002D813E814F815885211531054105510524
:100AB00031F1411451046104710409F191E01216FD
:100AC0001306140615060CF090E081E014141504CA
:100AD000160417040CF080E0981789F0F094E09465
:100AE000D094C094C11CD11CE11CF11CC114D104D0
:100AF000E104F10439F180949094A094B094D80169
:100B00008D929D92AD92BC921397E98DFA8DC08221
:100B1000D182E282F3826A960FB6F894DEBF0FBEEE
:100B2000CDBFDF91CF911F910F91FF90EF90DF909C
:100B3000CF90BF90AF909F908F907F906F905F907D
:100B40004F900895B094A09490948094811C911C2F
:100B5000A11CB11CD4CF8F929F92AF92BF92EF9203
:100B6000FF920F931F93CF93DF9300D000D01F927B
:100B70001F92CDB7DEB74701FE0131967F018E018E
:100B80000B5F1F4FCEDE20E230E0281939096D815E
:100B90007E818F81988504C0660F771F881F991FFB
:100BA0002A95D2F709811A812B813C8104C03695A0
:100BB0002795179507958A94D2F7602B712B822B76
:100BC000932B28960FB6F894DEBF0FBECDBFDF91F2
:100BD000CF911F910F91FF90EF90BF90AF909F909A
:100BE0008F9008958F929F92AF92BF92CF92DF9293
:100BF000EF92FF920F931F93CF93DF935A01E90176
:100C00009C8020E030E0A9010E94231B18160CF004
:100C100056C091100BC0F80184819581A681B781DF
:100C200088839983AA83BB8381E08C83A701960183
:100C3000688179818A819B810E941319881F882786
:100C4000881FF5018083F801248535854685578501
:100C500060817181828193810E94641B2881398126
:100C60004A815B810E944D184B015C018882998208
:100C7000AA82BB82A70196010E94231B87FD05C0A3
:100C8000C882D982EA82FB820DC0F801C084D18477
:100C9000E284F384A7019601C501B4010E941319EF
:100CA000181674F7DF91CF911F910F91FF90EF907D
:100CB000DF90CF90BF90AF909F908F900895992034
:100CC00089F31C82EFCF4F925F926F927F928F9247
:100CD0009F92AF92BF92CF92DF92EF92FF920F93CB
:100CE0001F93CF93DF9300D01F921F92CDB7DEB733
:100CF0008D833B012A01882329F1D8018C91813011
:100D000009F1F9012081318142815381D2016D9134
:100D10007D918D919C910E944D1869837A838B837C
:100D20009C83F2016083718382839383A501940184
:100D30000E94231B18161CF5D3018D929D92AD9233
:100D4000BC92139781E0FD81F11101C080E0D801D0
:100D50008C930F900F900F900F900F90DF91CF9189
:100D60001F910F91FF90EF90DF90CF90BF90AF90C9
:100D70009F908F907F906F905F904F900895A70104
:100D8000960169817A818B819C810E94131987FF6A
:100D900006C0F301C082D182E282F382D3CF89817F
:100DA0009A81AB81BC81F30180839183A283B38359
:100DB000C9CF8F929F92AF92BF92CF92DF92EF9264
:100DC000FF92CF93DF936B017C0149015A010E948E
:100DD000960F882399F06091D0077091D107809188
:100DE000D2079091D307DF91CF91FF90EF90DF90E2
:100DF000CF90BF90AF909F908F900895C501B401A0
:100E00000E94960F8111E7CFC701B6010E94510FD2
:100E10008823E1F1C501B4010E94510F8823B1F18B
:100E200020E030E0A901C701B6010E94231BCFEFEB
:100E3000DFEF181614F4C1E0D0E020E030E0A901A3
:100E4000C501B4010E94231B6FEF7FEF181614F445
:100E500061E070E0072E000C880B990B0E94AD1921
:100E60006B017C01BE01DD0F880B990B0E94AD194F
:100E7000A7019601DF91CF91FF90EF90DF90CF9087
:100E8000BF90AF909F908F900C94C01820E030E0FE
:100E9000A901C501B4010E941319811116C020E0F7
:100EA00030E0A901C701B6010E94231B181694F077
:100EB00020E030E0A901C701B6010E94131987FDA7
:100EC0000EC060E070E0CB018ECFA5019401C70198
:100ED000B601D0CF6BED7FE089EC9FE384CF6BED63
:100EE0007FE089EC9FEB7FCF3F924F925F926F92B2
:100EF0007F928F929F92AF92BF92CF92DF92EF92AA
:100F0000FF920F931F93CF93DF93CDB7DEB7E89790
:100F10000FB6F894DEBF0FBECDBF6FEB77E08EEB60
:100F200097E00E949F0F62EA77E08EE997E00E94C7
:100F3000311064EB77E08EEA97E00E941311209164
:100F4000A2073091A3074091A4075091A507609193
:100F50007E0370917F0380918003909181031FE154
:100F6000E12EF12C00E010E0F6DD698B7A8B8B8BA3
:100F70009C8B80919E0790919F07A091A007B091B4
:100F8000A1078093A6079093A707A093A807B09303
:100F9000A90729893A894B895C892093AA0730934C
:100FA000AB074093AC075093AD078091BE07809389
:100FB000C0073090BF073092C10720918C03309159
:100FC0008D03A091B007B091B1070E943A220E9410
:100FD000AD1920E030E040E053E30E94641B6D8BCC
:100FE0007E8B8F8B988F20918E0330918F03A091F1
:100FF000B207B091B3070E943A220E94AD1920E0D7
:1010000030E040E053E30E94641B2091860330915E
:10101000870340918803509189030E94641B2B0130
:101020003C018D899E89AF89B88D809392079093FA
:101030009307A0939407B093950740929607509218
:101040009707609298077092990720918A033091D0
:101050008B03A091B407B091B5070E943A220E9479
:10106000AD1920E030E040E854E30E94641B609337
:101070009A0770939B0780939C0790939D0780909D
:10108000E2029090E302A090E402B090E502C090EA
:10109000DA02D090DB02E090DC02F090DD0204E79F
:1010A00017E020E933E042E657E066E777E0832D7A
:1010B0000ADEC090EA02D090EB02E090EC02F090E1
:1010C000ED02609176077091770780917807909193
:1010D000790708E913E02AE637E042EC57E082DDC1
:1010E00020E030E0A9016091760770917707809148
:1010F0007807909179070E9413198823D1F0809185
:10110000C207811116C02091AE023091AF0240910A
:10111000B0025091B10260E070E080EA90E40E9479
:1011200017196093820770938307809384079093C5
:1011300085078090E6029090E702A090E802B090C8
:10114000E902C090DE02D090DF02E090E002F09071
:10115000E10205E717E024E933E046E657E06AE7F5
:1011600077E08091BE07AFDDC090EE02D090EF0235
:10117000E090F002F090F10260917A0770917B07A5
:1011800080917C0790917D0709EA13E02FE637E014
:1011900043EC57E027DD20E030E0A90160917A07B9
:1011A00070917B0780917C0790917D070E941319B5
:1011B000882321F18091C307811120C020917A02F8
:1011C00030917B0240917C0250917D026DEC7CEC71
:1011D0008CEC9DE30E9417192091D6023091D70222
:1011E0004091D8025091D9020E94641B60938607F7
:1011F00070938707809388079093890720911A033B
:1012000030911B0340911C0350911D03C301B20197
:101210000E94641B6B017C0120911603309117031F
:1012200040911803509119036D897E898F89988D9B
:101230000E94641BA7019601BCDD40903D075090C1
:101240003E0760903F0770904007C0904107D090E4
:101250004207E0904307F0904407A30192010E94E7
:101260004C184B015C0120912A0330912B034091D3
:101270002C0350912D03C701B6010E94641B9B01F2
:10128000AC01C501B4010E944C1820912603309195
:10129000270340912803509129030E941719609356
:1012A0008A0770938B0780938C0790938D0720910A
:1012B0001E0330911F0340912003509121030E948F
:1012C000641B4B015C012091220330912303409168
:1012D000240350912503C701B6010E94641B9B01A2
:1012E000AC01C501B4010E944D18A30192010E94F6
:1012F0004D182091D6023091D7024091D8025091DA
:10130000D9020E94641B698F7A8F8B8F9C8F80918A
:101310009E0790919F07A091A007B091A1072989EE
:101320003A894B895C89820F931FA41FB51F409196
:1013300082035091830360918403709185034D87EC
:101340005E876F87788B89879A87AB87BC8732E007
:10135000E32EF12C8E010F5F1F4F21E030E0AE0134
:10136000475F5F4F61E070E0CE010D9646D850E0D8
:1013700040E062E070E0C8010E94510120E030E0EE
:1013800040E050E30E94641B20910A0230910B025E
:1013900040910C0250910D020E94641B6B017C0174
:1013A0002091B6023091B7024091B8025091B90233
:1013B00060E070E080E89FE30E9417199B01AC0198
:1013C000C701B6010E94641B298D3A8D4B8D5C8D3F
:1013D0000E944D1869AB7AAB8BAB9CAB4090450734
:1013E00050904607609047077090480780914907E2
:1013F00090914A07A0914B07B0914C078D8F9E8F1B
:10140000AF8FB8A320914D0730914E0740914F0701
:101410005091500729A33AA34BA35CA32091460304
:10142000309147034091480350914903C301B201F1
:101430000E94641B9B01AC0169A97AA98BA99CA994
:101440000E944C186B017C0120914A0330914B03A0
:1014500040914C0350914D036D8D7E8D8F8D98A1E1
:101460000E94641B9B01AC01C701B6010E944C188D
:101470006B017C0120914E0330914F03409150034A
:101480005091510369A17AA18BA19CA10E94641B78
:101490009B01AC01C701B6010E944C182091420388
:1014A0003091430340914403509145030E94171922
:1014B0006B017C01C0928E07D0928F07E09290075B
:1014C000F09291078091510790915207A091530794
:1014D000B09154078DA39EA3AFA3B8A72091550741
:1014E00030915607409157075091580729A73AA7BE
:1014F0004BA75CA78091590790915A07A0915B0771
:10150000B0915C078DA79EA7AFA7B8AB20916A03E7
:1015100030916B0340916C0350916D036DA17EA1DE
:101520008FA198A50E94641B9B01AC01698D7A8DE7
:101530008B8D9C8D0E944C184B015C0120916E0399
:1015400030916F03409170035091710369A57AA5A2
:101550008BA59CA50E94641B9B01AC01C501B40135
:101560000E944C184B015C0120917203309173036F
:1015700040917403509175036DA57EA58FA598A920
:101580000E94641B9B01AC01C501B4010E944C1870
:10159000209166033091670340916803509169037D
:1015A0000E9417196DAB7EAB8FAB98AF20E030E097
:1015B000A90160917A0770917B0780917C079091D7
:1015C0007D070E941319811110C020E030E0A901AD
:1015D00060917607709177078091780790917907ED
:1015E0000E941319882309F496C12091D2023091E8
:1015F000D3024091D4025091D502298B3A8B4B8B68
:101600005C8B209186073091870740918807509125
:10161000890769897A898B899C890E94641B6D8BF3
:101620007E8B8F8B988F2091CA023091CB02409194
:10163000CC025091CD020E94641B4B015C012091B1
:101640003203309133034091340350913503C70185
:10165000B6010E94641B6B017C012091360330911E
:1016600037034091380350913903C301B2010E94FE
:10167000641B9B01AC01C701B6010E944D186B01B0
:101680007C0120913A0330913B0340913C035091FF
:101690003D036D8D7E8D8F8D98A10E94641B9B01F3
:1016A000AC01C701B6010E944D186B017C0120916D
:1016B0003E0330913F03409140035091410369A1A3
:1016C0007AA18BA19CA10E94641B9B01AC01C70164
:1016D000B6010E944D1829893A894B895C890E947C
:1016E000641B9B01AC01C501B4010E944C18209100
:1016F00006033091070340910803509109030E94AB
:10170000641B6B017C012091C2023091C3024091A5
:10171000C4025091C5026D897E898F89988D0E947F
:10172000641B4B015C0129A93AA94BA95CA96989F1
:101730007A898B899C890E94641B9B01AC01C5013D
:10174000B4010E944C182091FE023091FF0240919A
:101750000003509101030E94641B4B015C01209126
:10176000C6023091C7024091C8025091C9026D89EA
:101770007E898F89988D0E94641B2B013C01298DE5
:101780003A8D4B8D5C8D69897A898B899C890E9401
:10179000641B9B01AC01C301B2010E944C18209153
:1017A00002033091030340910403509105030E940A
:1017B000641B9B01AC01C501B4010E944D189B0143
:1017C000AC01C701B6010E944D186B017C0120914C
:1017D000CE023091CF024091D0025091D1026D895A
:1017E0007E898F89988D0E94641B4B015C0120913A
:1017F00056033091570340915803509159036DA9F6
:101800007EA98FA998AD0E94641B2B013C012091F9
:101810005A0330915B0340915C0350915D036DA1CD
:101820007EA18FA198A50E94641B9B01AC01C301FE
:10183000B2010E944D182B013C0120915E033091B2
:101840005F03409160035091610369A57AA58BA560
:101850009CA50E94641B9B01AC01C301B2010E94C4
:101860004D182B013C01209162033091630340919C
:101870006403509165036DA57EA58FA598A90E946C
:10188000641B9B01AC01C301B2010E944D18298960
:101890003A894B895C890E94641B9B01AC01C5019C
:1018A000B4010E944C1820910A0330910B0340911F
:1018B0000C0350910D030E94641B9B01AC01C701F6
:1018C000B6010E944D186B017C012091BE0230913F
:1018D000BF024091C0025091C1026D897E898F89FB
:1018E000988D0E94641B9B01AC01C701B6010E9448
:1018F0004D182091B2023091B3024091B402509140
:10190000B5020E94641B60937E0770937F078093EB
:10191000800790938107209182073091830740913F
:1019200084075091850760917E0770917F078091B1
:101930008007909181070E944C186B017C010E94E6
:10194000E8194B015C01F2D281115EC1C501B401FD
:10195000A8D2811159C120E030E040E857E4C50128
:10196000B4010E94021A4B015C0120E030E0A901A1
:101970000E94131987FF4BC1C501B40190580E9402
:101980007F197195619571097093BB076093BA07D0
:1019900020917A0330917B0340917C0350917D0329
:1019A000C701B6010E94641B0E94E8196B017C010B
:1019B000BDD2811131C1C701B60173D281112CC1D1
:1019C00020E030E040E857E4C701B6010E94021A67
:1019D0006B017C0120E030E0A9010E94131987FF10
:1019E0001EC1C701B60190580E947F19719561957B
:1019F00071097093BD076093BC076CEB77E08AEBCD
:101A000097E00E94B01680915D0790915E0720914B
:101A1000C0073091C107DC012D933D9328E0E6EA31
:101A2000F7E001900D922A95E1F7DC011A9628E083
:101A3000E2E9F7E001900D922A95E1F740919A07CB
:101A400050919B0760919C0770919D07DC01529615
:101A50004D935D936D937C93559740915F075091A3
:101A6000600766E170E080915D0790915E070E94DB
:101A7000E916E0915F07F0916007178A60915F07B0
:101A80007091600781E6A82E87E0B82E92E4C92EF7
:101A900021E4E22E01E028E130E040E050E082E085
:101AA0000E94181720919A0730919B0740919C073C
:101AB00050919D076091D2027091D3028091D4021F
:101AC0009091D5020E94641B20910E0330910F0368
:101AD00040911003509111030E94641B20913D0717
:101AE00030913E0740913F07509140070E944D18AA
:101AF00060933D0770933E0780933F0790934007A4
:101B000080918A0790918B07A0918C07B0918D07E7
:101B10008093410790934207A0934307B0934407F3
:101B20008091490790914A07A0914B07B0914C07CB
:101B300080934D0790934E07A0934F07B0935007A3
:101B40008091550790915607A0915707B09158077B
:101B50008093590790935A07A0935B07B0935C0753
:101B60008091450790914607A0914707B09148079B
:101B70008093490790934A07A0934B07B0934C0773
:101B80008091510790915207A0915307B09154074B
:101B90008093550790935607A0935707B093580723
:101BA00080918E0790918F07A0919007B091910737
:101BB0008093450790934607A0934707B093480743
:101BC0002DA93EA94FA958AD209351073093520734
:101BD0004093530750935407E8960FB6F894DEBF2E
:101BE0000FBECDBFDF91CF911F910F91FF90EF906E
:101BF000DF90CF90BF90AF909F908F907F906F902D
:101C00005F904F903F900895812C912C5401C50115
:101C1000B4010E947F19B8CEC12CD12C7601C70126
:101C2000B6010E947F19E5CECF93DF9384E090E068
:101C300001D17DD114D2E5D20E94981661E070E006
:101C400086E190E00E945F22CDE3D7E099A388A3CC
:101C500061E070E088E190E00E945F229BA38AA38C
:101C60001CA240E056E960E070E082E00E940E179E
:101C7000E4E7F7E081E08083818380911203909113
:101C80001303A0911403B091150388839983AA8349
:101C9000BB8380912E0390912F03A0913003B091CC
:101CA00031038C839D83AE83BF8340915203509157
:101CB00053036091540370915503488759876A878D
:101CC0007B878091760390917703A0917803B09100
:101CD00079038C8B9D8BAE8BBF8B4C875D876E871A
:101CE0007F87888F998FAA8FBB8F488B598B6A8B80
:101CF0007B8B8C8F9D8FAE8FBF8F8091DA029091FE
:101D0000DB02A091DC02B091DD028DA39EA3AFA304
:101D1000B8A7E6E7F7E080839183A283B38380913D
:101D20009C0390919D03A0919E03B0919F038DA76A
:101D30009EA7AFA7B8AB8091A8038093C2078091FC
:101D4000F6029091F702A091F802B091F90284870F
:101D50009587A687B7878091DE029091DF02A091D8
:101D6000E002B091E10289A79AA7ABA7BCA7848340
:101D70009583A683B7838091AD039091AE03A09124
:101D8000AF03B091B0038AAB9BABACABBDAB809162
:101D9000B9038093C3078091F2029091F302A0915E
:101DA000F402B091F502808B918BA28BB38B809162
:101DB000FA029091FB02A091FC02B091FD02808793
:101DC0009187A287B387DF91CF910895CF93DF9357
:101DD000D5D0CCD180D2F7D7CDE3D7E088A199A1D7
:101DE0000E9415238AA19BA10E9415231CA282E0B8
:101DF000DF91CF910C94801760E070E080E89FE75E
:101E0000089560E070E080E89FE7089560E070E08A
:101E100080E89FEF089560E070E080E89FEF08950C
:101E200060E070E080EC9FEF089560E070E080EC8F
:101E30009FEF0895F5DF6093D0077093D1078093EB
:101E4000D2079093D307F1DF6093C4077093C5075F
:101E50008093C6079093C707CFDF6093CC0770933A
:101E6000CD078093CE079093CF07CBDF6093C80751
:101E70007093C9078093CA079093CB07C7DF60931D
:101E8000D4077093D5078093D6079093D707C3DF05
:101E90006093D8077093D9078093DA079093DB0794
:101EA0000895CF92DF92EF92FF92CF936B017C0166
:101EB000AC019B016091CC077091CD078091CE075A
:101EC0009091CF070E941319C1E0882371F0A701F8
:101ED00096016091D4077091D5078091D6079091B3
:101EE000D7070E9413198111C0E08C2FCF91FF906A
:101EF000EF90DF90CF9008950F931F938B019C017B
:101F00000027112720783F770115110520483F470A
:101F100049F4AB01BC016F77772781E0452B462B55
:101F2000472B09F480E01F910F910895E5CF60E001
:101F30008EE20E94C71D60E08FE20C94C71D0F93D4
:101F40001F93CF93DF938C01EB018EE20E94301E32
:101F5000019779F481E0F80180838FE20E94301EBE
:101F6000019751F481E08883DF91CF911F910F9108
:101F70000895F8011082F1CF1882F6CF08958EBD32
:101F800000000DB407FEFDCF8EB5089561E081E33A
:101F90000E94C71D61E080E30E94C71D61E081E3EC
:101FA0000E94031E61E080E30E94031EE0D060E017
:101FB00081E30E94031E88E8E2DF83E0E0DF61E066
:101FC00081E30E94031E60E080E30E94031E88E814
:101FD000D6DF83E0D4DF61E080E30C94031E60E091
:101FE00081E30E94031E88E9CADF80E0C8DF80E049
:101FF000C6DF80E0C4DF80E0C2DF61E081E30E94F1
:10200000031E8AE090E00E94201C60E081E30E94B1
:10201000031E80EEB4DF61E081E30E94031E60E0F6
:1020200080E30E94031E88E9AADF80E0A8DF80E049
:10203000A6DF80E0A4DF80E0A2DF61E080E30E9411
:10204000031E8AE090E00E94201C60E080E30E9472
:10205000031E80EE94DF61E080E30C94031E96DFA4
:10206000BECF8F929F92AF92BF92CF92DF92EF92AC
:10207000FF920F931F93CF93DF938C01EB0160E0EE
:1020800081E30E94031E80E67ADF80E078DFF82E8D
:1020900080E075DFC82E80E072DFA82E80E06FDF61
:1020A000B82E61E081E30E94031E8F2D90E0982FEF
:1020B0008827C80ED92ED11C0D2C000CEE08FF0865
:1020C000FE2CED2CDC2CCC24CA0CD11CE11CF11C08
:1020D000FE2CED2CDC2CCC24CB0CD11CE11CF11CF7
:1020E00060E080E30E94031E80E649DF80E047DF76
:1020F000882E80E044DF982E80E041DFA82E80E02B
:102100003EDFB82E61E080E30E94031E882D90E040
:10211000982F8827890D911D092E000CAA0BBB0B47
:10212000BA2FA92F982F88278A0D911DA11DB11DA7
:10213000BA2FA92F982F8827F801C082D182E28276
:10214000F3828B0D911DA11DB11D88839983AA83F4
:10215000BB83DF91CF911F910F91FF90EF90DF90A4
:10216000CF90BF90AF909F908F90089536C0CF933F
:10217000CFB7F8948091ED03811127C0E3EDF1E032
:102180008491EDE8F1E09491E82FF0E0EE0FFF1F6D
:10219000E85EFD4FA591B491EC91E92321F461E053
:1021A00085E30E94031E61E085E30E94C71D8CB594
:1021B00080618CBD8CB580648CBD61E084E30E943D
:1021C000C71D61E083E30E94C71D8091ED038F5F0F
:1021D0008093ED03CFBFCF9108959FB7F89480917E
:1021E000ED03882319F081508093ED038091ED0376
:1021F000811105C08CB58F7B8CBD1092EC039FBF05
:1022000008958DEF93E0E6D28EEE93E0FBD062E08E
:102210008EEE93E068D060E08EEE93E06ED063E0E7
:102220008EEE93E074C08F929F92AF92BF92CF9246
:10223000DF92EF92FF920F931F93CF93DF93CDB76F
:10224000DEB72C970FB6F894DEBF0FBECDBF4C01A2
:102250005B01CE0101966C01FE0133967F018E0178
:102260000B5F1F4F9E01295F3F4FAE01475F5F4FDE
:10227000BE01655F7F4F8EEE93E053D08B859C85CA
:10228000F4019183808389859A85938382838F81EA
:102290009885958384838D819E81F50191838083C8
:1022A0008B819C819383828389819A8195838483A6
:1022B0002C960FB6F894DEBF0FBECDBFDF91CF9145
:1022C0001F910F91FF90EF90DF90CF90BF90AF9054
:1022D0009F908F90089508958EEE93E000C028E6B9
:1022E000FC01208308950F93062F23E042E06AE16A
:1022F000FC018081A4D10F9108950F93062F22E055
:1023000044E06BE1FC0180819AD10F9108950F9315
:10231000062F22E044E06CE1FC01808190D10F9116
:1023200008954F925F926F927F928F929F92AF9299
:10233000BF92CF92DF92EF92FF920F931F93CF93B2
:10234000DF93EC013B014A01590128010091BA03D6
:102350001091BB039C012F5F3F4F4EE06BE38881E0
:102360009BD089819A81982789279827F3019183A7
:1023700080838B819C81982789279827F4019183FA
:1023800080838D819E81982789279827F5019183E5
:10239000808389859A85982789279827F2019183D8
:1023A00080838B859C85982789279827F7019183BF
:1023B00080838D859E85982789279827F6019183AC
:1023C0008083DF91CF911F910F91FF90EF90DF906D
:1023D000CF90BF90AF909F908F907F906F905F90C5
:1023E0004F900895262F46E06BE6FC018081F9C0EE
:1023F0000F93062F23E042E06BE6FC0180811FD1A2
:102400000F910895CF93DF93EC0161E0F1DF60E07D
:10241000CE0173DF60E0CE017ADF60E0CE01DF91B4
:10242000CF91E0CFFF920F931F93CF93DF93C62FEF
:10243000042FF22E132F682F8DEF93E0D4D16C2F41
:102440008DEF93E06DD1CF2DD12F0C0F1D2F111DCE
:10245000C017D10729F069918DEF93E061D1F8CFD2
:102460008DEF93E03DD291E0811190E0892FDF91D3
:10247000CF911F910F91FF900895CF93DF931F92FB
:10248000CDB7DEB749839E012F5F3F4F41E0CADFE2
:102490000F90DF91CF9108952F923F924F925F92CC
:1024A0006F927F928F929F92AF92BF92CF92DF9264
:1024B000EF92FF920F931F93CF93DF9300D0CDB78E
:1024C000DEB7E82E69834B8369010E94141C4B011F
:1024D0005C01F12C1A822B81222E312C2801712CC7
:1024E000612C8B81F81608F041C06E2D8DEF93E0C2
:1024F0007AD169818DEF93E013D18DEF93E0F0D124
:102500006E2D8DEF93E06FD1A1014F19510941322A
:10251000510514F040E250E06E2D8DEF93E0DED1D6
:102520008DEF93E0D3D0892BD9F00115110569F413
:102530008DEF93E0D2D0F6019A81E90FF11D97FD5E
:10254000FA9580839F5F9A83EBCF0E94141C6819D1
:1025500079098A099B09641575058605970540F375
:102560008B81813208F080E2F80EBBCF0115110596
:10257000C1F00E94141C681979098A099B0930E08E
:1025800020E0601771078207930758F02A81822F95
:10259000220F990B2B812817190619F014F08FEFD1
:1025A0008A838A810F900F900F90DF91CF911F91B6
:1025B0000F91FF90EF90DF90CF90BF90AF909F90E2
:1025C0008F907F906F905F904F903F902F900895E5
:1025D0000F931F9389019A0141E05EDF1F910F91D4
:1025E0000895EF92FF920F931F93CF93DF931F9263
:1025F000CDB7DEB7182F062FE42EF22E2091BA03A6
:102600003091BB03AE014F5F5F4FE2DF81E090E0AE
:1026100001C0880FEA94EAF74981FF2069F0482B4E
:102620004983602F812F29DF0F90DF91CF911F9178
:102630000F91FF90EF90089580954823F1CFDF929E
:10264000EF92FF920F931F93CF93DF931F92CDB71B
:10265000DEB7F82EE62E142FD22E2091BA03309139
:10266000BB03AE014F5F5F4FB3DF882351F1812F72
:102670008D19990BAC014F5F5F4F81E090E002C074
:10268000880F991FDA94E2F70197042E01C0880F92
:102690000A94EAF701C0000F4A95EAF7482F4095DF
:1026A000998149238023482B49836E2D8F2DE5DEA8
:1026B0000F90DF91CF911F910F91FF90EF90DF90DE
:1026C000089580E0F5CF90E080E0089580912D049A
:1026D00090912E04891B990B089590912E0480915E
:1026E0002D042FEF3FEF981748F4E92FF0E0E15D5C
:1026F000FB4F208130E09F5F90932E04C901089525
:10270000E0912E0480912D04E81730F4F0E0E15DB3
:10271000FB4F808190E008958FEF9FEF089508951B
:10272000CF93DF931F92CDB7DEB769832091090461
:102730002223F9F020910A04203258F021E030E001
:10274000FC013383228390E080E00F90DF91CF91F2
:10275000089580910B04E82FF0E0E45FFB4F99812E
:1027600090838F5F80930B0480930A0481E090E054
:10277000ECCF61E0CE01019683D1F8CFCF92DF920A
:10278000EF92FF920F931F93CF93DF937C01CB01C6
:102790008A0120910904222389F0EB016B01C40E08
:1027A000D51ECC15DD0561F06991D701ED91FC9145
:1027B0000190F081E02DC7011995F3CF642F60D10E
:1027C000C801DF91CF911F910F91FF90EF90DF90A3
:1027D000CF90089510922E0410922D0410920B04A5
:1027E00010920A0490C081E08093090460932C0445
:1027F00010920B0410920A0408950F93062F21E003
:1028000040910A046CE074E080912C04E2D01092B4
:102810000B0410920A04109209040F9108954F922C
:102820005F926F927F92AF92BF92CF92EF92FF92A0
:102830000F931F93CF93DF935C01F62ED42F2801C3
:102840003901EE2009F1CFDFCE2DC43008F0C3E00E
:10285000C150B8F028E0C29FC0011124A301920129
:1028600004C056954795379527958A95D2F7B901B3
:10287000D501ED91FC910190F081E02DC5011995F4
:10288000E7CF60E0C501B9DF4D2FD13208F040E25B
:102890002C2D6FE274E08F2D54D010922E04809373
:1028A0002D04DF91CF911F910F91FF90EF90CF906A
:1028B000BF90AF907F906F905F904F900895CF92B0
:1028C000EF920F931F93C22EE12C00E010E09801CD
:1028D000A6DF1F910F91EF90CF90089521E0EFCFE9
:1028E00061E08BCFEDEFF3E01382128288EE93E08C
:1028F000A0E0B0E084839583A683B78382EC93E065
:102900009183808308951092BC0481E08093BA047F
:102910001092B90461E084E10E94031E61E085E148
:102920000E94031EE9EBF0E080818E7F808380812E
:102930008D7F80838CE08093B80085E48093BC0019
:102940000895413208F043C09091BC049111FCCF2E
:1029500091E09093BC042093BA042FEF20934F048E
:1029600010929404240F209393049093BB049091AD
:10297000BB04880F892B8093BB048091B9048130FC
:1029800009F51092B9048091BB048093BB0080913B
:10299000BC0083FDF8CF85EC8093BC008091BC0423
:1029A0008130E1F380919404841710F440919404F1
:1029B000A5E9B4E0962FFB018E2F891B841720F028
:1029C000842F089585EEE8CF8D918193F5CF40E077
:1029D000F7CF0F93413208F04BC09091BC04911196
:1029E000FCCF92E09093BC040093BA049FEF9093C5
:1029F0004F041092940440939304362FA5E9B4E059
:102A0000FB019E2F931B941770F11092BB049091C1
:102A1000BB04880F892B8093BB048091B90481305B
:102A200029F51092B9048091BB048093BB0080917A
:102A3000BC0083FDF8CF85EC8093BC00222321F0FD
:102A40008091BC048230D1F380914F048F3F91F08C
:102A500080914F04803281F080914F04803371F077
:102A600084E00F91089591919D93CBCF85EEE4CFB3
:102A700081E0F7CF80E0F5CF82E0F3CF83E0F1CFC4
:102A800020917104260F3327331F21323105ECF4D6
:102A90002091BC04FC0190E080E0243069F082E0E9
:102AA0000895A09171042191AC014D585B4FA40F82
:102AB000B52FB11D2C930196861798F38091710460
:102AC000680F6093710480E0089581E0089585EDBA
:102AD0008093BC008091BC0084FDFCCF1092BC04AC
:102AE000089585EC8093BC001092BC0408951F9259
:102AF0000F920FB60F9211240BB60F922F933F93A4
:102B00004F935F936F937F938F939F93AF93BF93F5
:102B1000EF93FF938091B900887F803609F44CC011
:102B200008F03FC0883209F4A8C028F5803109F4C4
:102B30009CC0C8F4882309F4F8C0883009F495C013
:102B4000FF91EF91BF91AF919F918F917F916F9185
:102B50005F914F913F912F910F900BBE0F900FBE41
:102B60000F901F901895883109F487C0803241F783
:102B700080934F0414C0803409F49CC040F4803327
:102B8000B9F38833E9F680934F04ABDFD9CF8035B2
:102B900009F484C0883509F495C0883489F697DF34
:102BA000CFCF883909F48CC038F5883729F050F434
:102BB000883611F0803721F683E08093BC041092B0
:102BC000500457C0883809F47BC0803919F0803828
:102BD00009F0B6CF80915004803208F071C0E091C6
:102BE000500481E08E0F809350048091BB00F0E090
:102BF000EF5AFB4F80833DC0803B39F0E0F4803AD0
:102C000009F479C0883A09F09BCF84E08093BC0432
:102C10001092720410927104E091B704F091B8041C
:102C200019958091710481110FC081E08093710426
:102C30001092730409C0803C09F475C0883C09F403
:102C400072C0883B09F07CCFE091720481E08E0F66
:102C500080937204F0E0ED58FB4F80818093BB00BD
:102C6000909172048091710429C08091BB0480937B
:102C7000BB0085EC8093BC0063CF9091940480915D
:102C80009304981758F5E091940481E08E0F809397
:102C90009404F0E0EB56FB4F8081E9CFE09194047F
:102CA00081E08E0F809394048091BB00F0E0EB569E
:102CB000FB4F808390919404809193049817C8F2FD
:102CC00085E8D8CFE091940481E08E0F809394043E
:102CD0008091BB00F0E0EB56FB4F80838091BA04FB
:102CE00081115DCF81E08093B90484EA8093BC00B8
:102CF0001092BC0425CFF5DE80915004803230F470
:102D0000E0915004F0E0EF5AFB4F108260915004C4
:102D100070E0E091B504F091B60481E594E0199576
:102D2000109250040DCF85ECE1CF10924F0437CFB5
:102D300061E08CE02CD761E083E029D761E089E095
:102D400026D761E08DE023D761E08BE020D761E0FA
:102D500088E01DD760E089E056D760E088E053C77F
:102D60000F931F93CF93DF938C01EB01FC018081C4
:102D7000918197FD19C061E08CE045D7F801608131
:102D80007181772783E0C9D58881998197FD14C027
:102D900061E08DE038D76881798177278BE0DF911A
:102DA000CF911F910F91B9C560E08CE02CD7F8014D
:102DB0006081619570E0E6CF60E08DE024D76881A6
:102DC000619570E0EBCF61E089E01DD761E088E0BC
:102DD0001AC7CF93DF93FA01680F791FEA01219692
:102DE000DC0191E0A617B70720F09083DF91CF9127
:102DF00008958D919E012F5F3F4F811105C09083F3
:102E0000FE0191E0E901EECF88839F5F9F3FD1F7FC
:102E10009083F9019E012E5F3F4FF3CF880F990BEE
:102E2000FC01E053FC4F26E0808191810C94221F2D
:102E30004F925F926F927F928F929F92AF92BF92CA
:102E4000CF92EF920F931F93CF93DF93182FEB0145
:102E500029010023E1F0E82FEE0FFF0BE053FC4FB8
:102E600080809180D401ED91FC910084F185E02D6A
:102E7000C4011995181619066CF4D401ED91FC9152
:102E80000284F385E02DC40119958E1125C081E0DF
:102E9000F5018083F5018081813019F5E12FEE0F76
:102EA000FF0BE053FC4F80819181DC01ED91FC919F
:102EB0000280F381E02DA201BE01DF91CF911F912D
:102EC0000F91EF90CF90BF90AF909F908F907F9099
:102ED0006F905F904F9019948C11DCCFD5011C92AC
:102EE000D9CFDF91CF911F910F91EF90CF90BF90ED
:102EF000AF909F908F907F906F905F904F900895CC
:102F0000880F990BFC01E053FC4F80819181FAC737
:102F100040E855E260E070E090E080E000C0813081
:102F2000910571F01CF4892B39F0089582309105D8
:102F300059F0039769F0089526E089EC94E082C780
:102F400026E086E695E0FBCF26E083E096E0F7CF2B
:102F500026E080EA96E0F3CF1F920F920FB60F9211
:102F600011240BB60F922F933F934F935F936F9360
:102F70007F938F939F93AF93BF93EF93FF938FE8CC
:102F80009DEF909325018093240134D0FF91EF9120
:102F9000BF91AF919F918F917F916F915F914F9171
:102FA0003F912F910F900BBE0F900FBE0F901F906F
:102FB00018958FE89DEF9093250180932401A3E756
:102FC000B0E08C918E7F8C93E0E2F1E080818C7F89
:102FD0008083E1E2F1E08081877E8083808184606C
:102FE000808380818C7F80838C9181608C93089515
:102FF00081E008958091BD0491E0980F9093BD0405
:10300000882349F021E030E03093BF042093BE04D0
:103010008093BD04089578940E947407F894809179
:10302000BD048150F5CFCF93DF931092DD0710924E
:10303000DC0711D46DDFC091BC03D091BD031982B0
:1030400018820E94140EF894B4DF81E0288139813F
:10305000232B09F080E08093DC07789478948091AA
:10306000DC07811108C00E94E60EF89490E080E031
:10307000DF91CF91089581E028813981232B09F4D4
:1030800080E08093DD079091DD0781E0911180E081
:103090008093DC07ADDFE3CF5058BB27AA270ED0C3
:1030A00081C272D230F077D220F031F49F3F11F418
:1030B0001EF442C20EF4E095E7FB0FC2E92F83D263
:1030C00080F3BA17620773078407950718F071F445
:1030D0009EF5B2C20EF4E0950B2EBA2FA02D0B0177
:1030E000B90190010C01CA01A0011124FF27591B4D
:1030F00099F0593F50F4503E68F11A16F040A22F53
:10310000232F342F4427585FF3CF469537952795C3
:10311000A795F0405395C9F77EF41F16BA0B620BC2
:10312000730B840BBAF09150A1F0FF0FBB1F661F09
:10313000771F881FC2F70EC0BA0F621F731F841F4C
:1031400048F4879577956795B795F7959E3F08F072
:10315000B3CF9395880F08F09927EE0F9795879531
:10316000089512D258F080E891E009F49EEF13D24E
:1031700028F040E851E059F45EEF09C0DDC15CC2BF
:10318000E92FE07820D268F3092E052AC1F326172B
:1031900037074807590738F00E2E07F8E02569F081
:1031A000E025E0640AC0EF6307F8009407FADB014A
:1031B000B9019D01DC01CA01AD01EF9347D0F2D105
:1031C0000AD05F91552331F02BED3FE049E450FDEB
:1031D00049EC63CF0895DF93DD27B92FBF7740E82F
:1031E0005FE31616170648075B0710F4D92F2FD296
:1031F0009F938F937F936F93CAD2E4EEF0E09FD1B9
:10320000D1D12F913F914F915F916AD2DD2349F047
:103210009058A2EA2AED3FE049EC5FE3D0785D27C1
:103220004DDFDF91BFC135D108F481E008950CD0A6
:10323000B9C1B1D140F0A8D130F021F45F3F19F00D
:103240004CC15111FAC178C1BED198F39923C9F389
:103250005523B1F3951B550BBB27AA27621773079C
:10326000840738F09F5F5F4F220F331F441FAA1F50
:10327000A9F333D00E2E3AF0E0E830D09150504010
:10328000E695001CCAF729D0FE2F27D0660F771FBE
:10329000881FBB1F261737074807AB07B0E809F0A0
:1032A000BB0B802DBF01FF2793585F4F2AF09E3F35
:1032B000510568F012C1C1C15F3FECF3983EDCF3E9
:1032C000869577956795B795F7959F5FC9F7880FAE
:1032D000911D9695879597F90895E1E0660F771F00
:1032E000881FBB1F621773078407BA0720F0621B91
:1032F000730B840BBA0BEE1F88F7E09508956BD122
:1033000088F09F5790F0B92F9927B751A0F0D1F0CE
:10331000660F771F881F991F1AF0BA95C9F712C058
:10332000B13081F089D1B1E0089586C1672F782F3F
:103330008827B85F39F0B93FCCF3869577956795C4
:10334000B395D9F73EF490958095709561957F4F30
:103350008F4F9F4F0895E89409C097FB3EF49095D6
:103360008095709561957F4F8F4F9F4F9923A9F05E
:10337000F92F96E9BB279395F695879577956795ED
:10338000B795F111F8CFFAF4BB0F11F460FF1BC031
:103390006F5F7F4F8F4F9F4F16C0882311F096E9C4
:1033A00011C0772321F09EE8872F762F05C0662372
:1033B00071F096E8862F70E060E02AF09A95660F2B
:1033C000771F881FDAF7880F9695879597F90895E4
:1033D0001CD180F09F3740F491110EF02EC160E0B7
:1033E00070E080E89FEB089526F41B16611D711DA7
:1033F000811D79C093C0C8D018F011F0CCD038F43A
:103400009BC01BC1E92FDFD0B0F35523C9F3E7FB05
:103410006217730784079507A8F199F3E92FFF272F
:1034200088232AF03197660F771F881FDAF7952FC8
:103430005527442332F091505040220F331F441F30
:10344000D2F7BB27E91BF50B621B730B840BB10989
:10345000C1F222F4620F731F841FB11D31972AF04D
:10346000660F771F881FBB1FEFCF915050405AF057
:1034700041F0882332F0660F771F881F915050402B
:10348000C1F793954BC08695779567959F5FD9F760
:10349000F8CF990F0008550FAA0BE0E8FEEF1616BB
:1034A0001706E807F907C0F012161306E407F50738
:1034B00098F0621B730B840B950B39F40A2661F0AC
:1034C000232B242B252B21F408950A2609F4A1404F
:1034D000A6958FEF811D811D089597F99F6780E85C
:1034E00070E060E00895882371F4772321F098500C
:1034F000872B762F07C0662311F499270DC09051B2
:10350000862B70E060E02AF09A95660F771F881F7F
:10351000DAF7880F9695879597F908959F3F31F0D0
:10352000915020F4879577956795B795880F911DF1
:103530009695879597F908959FEF80EC0895DF930E
:10354000CF931F930F93FF92EF92DF927B018C0139
:10355000689405C0DA2EEF01C3D0FE01E894A5916E
:103560002591359145915591AEF3EF01A7DDFE010F
:103570009701A801DA9479F7DF90EF90FF900F910F
:103580001F91CF91DF91089500240A941616170613
:1035900018060906089500240A9412161306140644
:1035A00005060895092E0394000C11F4882352F0A7
:1035B000BB0F40F4BF2B11F460FF04C06F5F7F4F5F
:1035C0008F4F9F4F089557FD9058440F551F59F046
:1035D0005F3F71F04795880F97FB991F61F09F3F00
:1035E00079F087950895121613061406551FF2CF29
:1035F0004695F1DF08C0161617061806991FF1CF79
:1036000086957105610508940895E5DFA0F0BEE791
:10361000B91788F4BB279F3860F41616B11D672FC1
:10362000782F8827985FF7CF869577956795B11D96
:1036300093959639C8F30895E894BB2766277727B2
:10364000CB0197F9089525DF08F48FEF08959B01CA
:10365000AC0160E070E080E89FE3E9CD3ECF5ECF53
:10366000BADFE8F39923D9F3940F511DBBF39150BE
:10367000504094F059F0882332F0660F771F881F6E
:1036800091505040C1F79E3F510544F7880F911D5E
:103690009695879597F908955F3FACF0983E9CF01A
:1036A000BB27869577956795B79508F4B160939594
:1036B000C1F7BB0F58F711F460FFE8CF6F5F7F4F82
:1036C0008F4F9F4FE3CFB9CF0BD06CCF5DDF28F08A
:1036D00062DF18F0952309F000CF2ECF1124ADCF73
:1036E00072DFA0F3959FD1F3950F50E0551F629FB5
:1036F000F001729FBB27F00DB11D639FAA27F00D4B
:10370000B11DAA1F649F6627B00DA11D661F829F71
:103710002227B00DA11D621F739FB00DA11D621F56
:10372000839FA00D611D221F749F3327A00D611D73
:10373000231F849F600D211D822F762F6A2F112455
:103740009F5750408AF0E1F088234AF0EE0FFF1FA8
:10375000BB1F661F771F881F91505040A9F79E3FDF
:10376000510570F0BACE69CF5F3FECF3983EDCF3C1
:10377000869577956795B795F795E7959F5FC1F71C
:10378000FE2B880F911D9695879597F908959B01BB
:10379000AC019ACF1F920F920FB60F9211242F9364
:1037A0003F938F939F93AF93BF938091C104909168
:1037B000C204A091C304B091C4043091C00423E0BA
:1037C000230F2D3758F50196A11DB11D2093C0047C
:1037D0008093C1049093C204A093C304B093C40423
:1037E0008091C5049091C604A091C704B091C8040B
:1037F0000196A11DB11D8093C5049093C604A093AA
:10380000C704B093C804BF91AF919F918F913F912E
:103810002F910F900FBE0F901F90189526E8230F41
:103820000296A11DB11DD2CF2FB7F8946091C104AB
:103830007091C2048091C3049091C4042FBF089575
:103840008230910538F0880F991F880F991F0597CE
:103850000197F1F70895789484B5826084BD84B5AA
:10386000816084BD85B5826085BD85B5816085BD7B
:10387000EEE6F0E0808181608083E1E8F0E0108294
:10388000808182608083808181608083E0E8F0E0D5
:10389000808181608083E1EBF0E0808184608083BF
:1038A000E0EBF0E0808181608083E1E9F0E08081FD
:1038B00082608083808181608083E0E9F0E08081A4
:1038C00081608083E1EAF0E0808182608083808192
:1038D00081608083E0EAF0E0808181608083E1E2C2
:1038E000F1E0808182608083808181608083E0E27A
:1038F000F1E0808181608083EAE7F0E0808184608C
:1039000080838081826080838081816080838081E8
:10391000806880831092C10008951F93CF93DF9336
:10392000182FEB0161E033D1209731F460E0812F53
:10393000DF91CF911F9167C1CF3FD10511F461E0B5
:10394000F6CFE12FF0E0EE5EFE4FE491E150E23180
:1039500008F0B2C0F0E08827E055F34E8F4F82C5E3
:10396000C21CCA1CCF1CD91CE31C5C1DED1CF51C21
:10397000FD1C071D111D1B1D2A1D341D5C1D3E1D38
:10398000481D521D84B5806884BDC7BDDF91CF91AD
:103990001F91089584B5806284BDC8BDF7CF809122
:1039A0008000806880938000D0938900C093880055
:1039B000EDCF80918000806280938000D0938B0057
:1039C000C0938A00E3CF809180008860809380005C
:1039D000D0938D00C0938C00D9CF8091B0008068C7
:1039E0008093B000C093B300D1CF8091B0008062CB
:1039F0008093B000C093B400C9CF809190008068DC
:103A000080939000D0939900C0939800BFCF80918D
:103A10009000806280939000D0939B00C0939A00A6
:103A2000B5CF80919000886080939000D0939D00E6
:103A3000C0939C00ABCF8091A00080688093A000D1
:103A40008091A0008F7B8093A000D093A900C093A9
:103A5000A8009CCF8091A00080628093A000D093AA
:103A6000AB00C093AA0092CF8091A00088608093A1
:103A7000A000D093AD00C093AC0088CF809120010E
:103A8000806880932001D0932901C09328017ECFC4
:103A900080912001806280932001D0932B01C093FC
:103AA0002A0174CF80912001886080932001D093F7
:103AB0002D01C0932C016ACFC038D1050CF03FCF47
:103AC00035CF8150823108F059C0E82FF0E08827C7
:103AD000E459F24E8F4FC6C48C1D901D7E1D841D6F
:103AE000881DBE1D931D991D9D1DA31DA71DAB1DEA
:103AF000B11DB51DBE1DB91DBF1DC31D8091800028
:103B00008F77809380000895809180008F7DF9CF1A
:103B100080918000877FF5CF84B58F7784BD08952D
:103B200084B58F7DFBCF8091B0008F778093B000FC
:103B300008958091B0008F7DF9CF809190008F77AC
:103B4000809390000895809190008F7DF9CF8091AF
:103B50009000877FF5CF8091A0008F778093A000A1
:103B600008958091A0008F7DF9CF8091A000877F7C
:103B7000F5CF809120018F77809320010895809167
:103B800020018F7DF9CF80912001877FF5CFCF93E2
:103B9000DF9390E0FC01E85AFE4F249182569E4F3D
:103BA000FC0184918823C9F090E0880F991FFC01E3
:103BB000E85EFD4FA591B491FC01E250FE4FC59126
:103BC000D49161110DC09FB7F8948C9120958223F8
:103BD0008C938881282328839FBFDF91CF910895FC
:103BE000623051F49FB7F8943C91822F80958323E3
:103BF0008C93E8812E2BEFCF8FB7F894EC912E2B7E
:103C00002C938FBFEACF1F93CF93DF93282F30E001
:103C1000F901EE5EFE4F8491F901E85AFE4FD4910E
:103C2000F901E256FE4FC491CC23A1F0162F811169
:103C300048DFEC2FF0E0EE0FFF1FE250FE4FA591A2
:103C4000B4918FB7F894EC91111108C0D095DE2390
:103C5000DC938FBFDF91CF911F910895DE2BF8CFBA
:103C6000CF93DF93282F30E0F901EE5EFE4F849171
:103C7000F901E85AFE4FD491F901E256FE4FC49182
:103C8000CC2399F081111DDFEC2FF0E0EE0FFF1F28
:103C9000EC51FE4FA591B491EC91ED2381E090E0C1
:103CA00009F480E0DF91CF91089580E090E0FACFB1
:103CB000FC01918D228D892F90E0805C9F4F821BAB
:103CC00091098F7399270895FC01918D828D981722
:103CD00031F0828DE80FF11D858D90E008958FEF12
:103CE0009FEF0895FC01918D828D981761F0A28D50
:103CF000AE0FBF2FB11D5D968C91928D9F5F9F730C
:103D0000928F90E008958FEF9FEF0895FC01538DFF
:103D1000448D252F30E0842F90E0821B930B5417A5
:103D200010F0CF96089501970895FC01A48DA80F77
:103D3000B92FB11DA35ABF4F2C91848D90E00196ED
:103D40008F739927848FA689B7892C93A089B1890D
:103D50008C91837080648C93938D848D981306C0AE
:103D60000288F389E02D80818F7D80830895CF9331
:103D7000DF93EC01888D8823B1F0AA89BB89E8899B
:103D8000F9898C9185FD03C0808186FD0CC00FB63A
:103D900007FCF7CF8C9185FFF2CF808185FFEDCFB7
:103DA000CE01C3DFEACFDF91CF910895EF92FF926A
:103DB0000F931F93CF93DF93EC0181E0888F9B8D4E
:103DC0008C8D98131AC0E889F989808185FF15C008
:103DD0009FB7F894EE89FF896083E889F98980812B
:103DE0008370806480839FBF81E090E0DF91CF91FA
:103DF0001F910F91FF90EF900895F62E0B8D10E01C
:103E00000F5F1F4F0F731127E02E8C8D8E110BC08B
:103E10000FB607FCFACFE889F989808185FFF5CFD5
:103E2000CE0183DFF2CFEB8DEC0FFD2FF11DE35AB6
:103E3000FF4FF0829FB7F8940B8FEA89FB8980814E
:103E40008062D0CFCF92DF92EF92FF921F93CF93F9
:103E5000DF93EC016A017B01122FE889F98982E086
:103E60008083C11481EED806E104F10499F060E08A
:103E700079E08DE390E0A7019601D2D2215031097B
:103E8000410951095695479537952795211580E1A8
:103E9000380790F0E889F989108260E874E88EE1CB
:103EA00090E0A7019601BCD2215031094109510986
:103EB0005695479537952795EC85FD853083EE859A
:103EC000FF852083188EEC89FD891083EA89FB89A0
:103ED000808180618083EA89FB898081886080831A
:103EE000EA89FB89808180688083EA89FB898081F7
:103EF0008F7D8083DF91CF911F91FF90EF90DF90B6
:103F0000CF900895CF93DF93EC01E881F98106808B
:103F1000F781E02D1995EA89FB8980818F7E808366
:103F2000EA89FB898081877F8083EA89FB89808198
:103F30008F778083EA89FB8980818F7D80838A8D5A
:103F4000898FDF91CF9108951F920F920FB60F9234
:103F500011240BB60F922F938F939F93EF93FF93A0
:103F6000E091D904F091DA048081E091DF04F091CE
:103F7000E00482FD1DC090818091E2048F5F8F7309
:103F80002091E304821741F0E091E204F0E0E7536E
:103F9000FB4F958F8093E204FF91EF919F918F915A
:103FA0002F910F900BBE0F900FBE0F901F90189582
:103FB0008081F2CF1F920F920FB60F9211240BB691
:103FC0000F922F933F934F935F936F937F938F93B2
:103FD0009F93AF93BF93EF93FF9389EC94E0A5DE9B
:103FE000FF91EF91BF91AF919F918F917F916F91D1
:103FF0005F914F913F912F910F900BBE0F900FBE8D
:104000000F901F901895E9ECF4E01382128288EE6D
:1040100093E0A0E0B0E084839583A683B7838CED22
:1040200093E09183808385EC90E09587848784EC8E
:1040300090E09787868780EC90E0918B808B81EC75
:1040400090E0938B828B82EC90E0958B848B86EC56
:1040500090E0978B868B118E128E138E148E08959E
:104060001F920F920FB60F9211240BB60F922F933F
:104070008F939F93EF93FF93E0917605F0917705EF
:104080008081E0917C05F0917D0582FD1DC09081CD
:1040900080917F058F5F8F7320918005821741F09B
:1040A000E0917F05F0E0EA59FA4F958F80937F0504
:1040B000FF91EF919F918F912F910F900BBE0F90D9
:1040C0000FBE0F901F9018958081F2CF1F920F9214
:1040D0000FB60F9211240BB60F922F933F934F936D
:1040E0005F936F937F938F939F93AF93BF93EF9360
:1040F000FF9386E695E019DEFF91EF91BF91AF91B6
:104100009F918F917F916F915F914F913F912F91EF
:104110000F900BBE0F900FBE0F901F901895E6E604
:10412000F5E01382128288EE93E0A0E0B0E0848391
:104130009583A683B7838CED93E0918380838DEC88
:1041400090E0958784878CEC90E09787868788EC51
:1041500090E0918B808B89EC90E0938B828B8AEC42
:1041600090E0958B848B8EEC90E0978B868B118EF4
:10417000128E138E148E08951F920F920FB60F9207
:1041800011240BB60F922F938F939F93EF93FF936E
:10419000E0911306F09114068081E0911906F091E8
:1041A0001A0682FD1DC0908180911C068F5F8F735F
:1041B00020911D06821741F0E0911C06F0E0ED5FB2
:1041C000F94F958F80931C06FF91EF919F918F91EE
:1041D0002F910F900BBE0F900FBE0F901F90189550
:1041E0008081F2CF1F920F920FB60F9211240BB65F
:1041F0000F922F933F934F935F936F937F938F9380
:104200009F93AF93BF93EF93FF9383E096E08DDD91
:10421000FF91EF91BF91AF919F918F917F916F919E
:104220005F914F913F912F910F900BBE0F900FBE5A
:104230000F901F901895E3E0F6E01382128288EE4B
:1042400093E0A0E0B0E084839583A683B7838CEDF0
:1042500093E09183808385ED90E09587848784ED5A
:1042600090E09787868780ED90E0918B808B81ED41
:1042700090E0938B828B82ED90E0958B848B86ED22
:1042800090E0978B868B118E128E138E148E08956C
:104290001F920F920FB60F9211240BB60F922F930D
:1042A0008F939F93EF93FF93E091B006F091B10647
:1042B0008081E091B606F091B70682FD1DC0908125
:1042C0008091B9068F5F8F732091BA06821741F0F3
:1042D000E091B906F0E0E056F94F958F8093B9066A
:1042E000FF91EF919F918F912F910F900BBE0F90A7
:1042F0000FBE0F901F9018958081F2CF1F920F92E2
:104300000FB60F9211240BB60F922F933F934F933A
:104310005F936F937F938F939F93AF93BF93EF932D
:10432000FF9380EA96E001DDFF91EF91BF91AF919D
:104330009F918F917F916F915F914F913F912F91BD
:104340000F900BBE0F900FBE0F901F901895E0EAD4
:10435000F6E01382128288EE93E0A0E0B0E084835E
:104360009583A683B7838CED93E09183808385E367
:1043700091E09587848784E391E09787868780E33F
:1043800091E0918B808B81E391E0938B828B82E330
:1043900091E0958B848B86E391E0978B868B118ED1
:1043A000128E138E148E0895AF92BF92CF92DF9229
:1043B000EF92FF920F931F93CF93DF936C017B01DA
:1043C0008B01040F151FEB015E01AE18BF08C0176B
:1043D000D10759F06991D601ED91FC910190F081DE
:1043E000E02DC6011995892B79F7C501DF91CF9191
:1043F0001F910F91FF90EF90DF90CF90BF90AF9003
:104400000895DB018F939F9350D0BF91AF91A29FEE
:10441000800D911DA39F900DB29F900D11240895C2
:10442000A1E21A2EAA1BBB1BFD010DC0AA1FBB1FB8
:10443000EE1FFF1FA217B307E407F50720F0A21B2A
:10444000B30BE40BF50B661F771F881F991F1A9497
:1044500069F760957095809590959B01AC01BD01C1
:10446000CF010895EE0FFF1F881F8BBF0790F691B5
:10447000E02D199405D0332312F48A1B9B0B10C036
:10448000A29FB001B39FC001A39F700D811D112495
:10449000911DB29F700D811D1124911D0895F0DFB3
:1044A000B7FF0895821B930B0895EADFA59F900D37
:1044B000B49F900DA49F800D911D112408950F931A
:1044C0001F93CF93DF93869F8001879F100D969F48
:1044D000100D1124C8010DD0EC01009721F0A801A6
:1044E00070E060E02BD1CE01DF91CF911F910F9151
:1044F00008950F931F93CF93DF938230910510F4AB
:1045000082E090E0E091E007F091E10730E020E008
:10451000B0E0A0E0309799F42115310509F44AC0C4
:10452000281B390B24303105D8F58A819B81611510
:10453000710589F1FB0193838283FE0111C04081E3
:1045400051810281138148175907E0F04817590734
:1045500099F4109761F012960C93129713961C938E
:104560003296CF01DF91CF911F910F910895009363
:10457000E0071093E107F4CF2115310551F0421700
:10458000530738F0A901DB019A01BD01DF01F801F1
:10459000C1CFEF01F9CF9093E1078093E007CDCF32
:1045A000FE01E20FF31F8193919322503109398369
:1045B0002883D7CF2091DE073091DF07232B41F4EA
:1045C00020910202309103023093DF072093DE072F
:1045D00020910002309101022115310541F42DB7DF
:1045E0003EB74091040250910502241B350BE09127
:1045F000DE07F091DF07E217F307A0F42E1B3F0B55
:104600002817390778F0AC014E5F5F4F2417350744
:1046100048F04E0F5F1F5093DF074093DE078193F2
:1046200091939FCFF0E0E0E09CCFCF93DF93009792
:10463000E9F0FC01329713821282A091E007B09159
:10464000E107ED0130E020E01097A1F420813181F5
:10465000820F931F2091DE073091DF07281739075B
:1046600009F061C0F093DF07E093DE07DF91CF919F
:104670000895EA01CE17DF07E8F54A815B819E01C4
:1046800041155105B1F7E901FB83EA83499159913D
:10469000C40FD51FEC17FD0761F48081918102964C
:1046A000840F951FE90199838883828193819B837D
:1046B0008A83F0E0E0E012968D919C911397009729
:1046C000B9F52D913C911197CD010296820F931F60
:1046D0002091DE073091DF072817390739F6309728
:1046E00051F51092E1071092E007B093DF07A09315
:1046F000DE07BCCFD383C28340815181840F951FD5
:10470000C817D90761F44E5F5F4F88819981480FC0
:10471000591F518340838A819B8193838283211512
:10472000310509F0B0CFF093E107E093E0079ECFA9
:10473000FD01DC01C0CF13821282D7CFDC0101C0A2
:0E4740006D9341505040E0F70895F894FFCF7C
:10474E000000E2078000000080420000B440DB0F52
:10475E00C93D610B363E83F9224100000000000086
:10476E0000001B2F5D3C0000804100008041C3F51E
:10477E001C43000000453EC450430000003AC3F500
:10478E009C3B0000BC426F12833BBD378637000056
:10479E00804100007A4358A08B4000000343FA8DFD
:1047AE00EA450000FA3B58A00B390000C442CDCCBC
:1047BE004C3DBD378637F4FDD43C96430B3D00008F
:1047CE000000CDCCCC3D00000000CDCC4C3DE2D75E
:1047DE009037476EF237E2D79037A69BC43A9A9934
:1047EE003141000000410000804300007F43E54B53
:1047FE00323DA6C8B7410000F041CDCCCC3C000004
:10480E0000000000803F000000000000008000005B
:10481E00000035FA8E3CE12E6542000000000000DB
:10482E00000000002041000020410000803F0000F9
:10483E00803F000000000000000000000000A169A1
:10484E009ABD0E2452C243478FBFF65FBEC00AD731
:10485E00233C000000000000803F000080BF664641
:10486E00B03C000000000000803FCD7D7ABF00000C
:10487E0000000000803F000000000000000000006B
:10488E0080BF8FC2F53C0000000000000000000059
:10489E000000000000000000803F0000000000004B
:1048AE000000000080BF8FC2F53C00000000000039
:1048BE0000000000000000000000000080BF0000AB
:1048CE00008000000040000080BF127D00400040CC
:1048DE000000803F0000803F0AD7233C000000000C
:1048EE00000000000000803F000AD7233C000000BB
:1048FE0000000000000000803F00E803EA03000013
:10490E0000009013BE1363138F1366136D13801381
:10491E00C90466050306A00600000000D61ED421B9
:0A492E00861EB71E581E721E641E7E
:00000001FF
