:100000001EC100004DC100004BC1000049C10000ED
:1000100047C1000045C1000043C1000041C10000CC
:100020003FC100003DC100003BC1000039C10000DC
:1000300037C1000035C1000033C1000031C10000EC
:100040002FC100002DC100002BC1000029C10000FC
:1000500027C1000025C1000023C100000C941F1A15
:100060001FC100000C94F91D0C942F1E19C1000033
:1000700017C1000015C1000013C1000011C100002C
:100080000FC100000DC100000BC1000009C100003C
:100090000C94851E0C94BB1E03C100000C94031429
:1000A000FFC00000FDC00000FBC00000F9C0000060
:1000B000F7C00000F5C00000F3C00000F1C0000070
:1000C000EFC00000EDC000000C9437160C94111F17
:1000D0000C94471FE5C000000C949D1F0C94D31F87
:1000E000DFC00000084AD73B3BCE016E84BCBFFD99
:1000F000C12F3D6C74319ABD56833DDA3D00C77FF8
:1001000011BED9E4BB4C3E916BAAAABE0000008090
:100110003F0000000A0B02090C0D0E080703040142
:1001200000000000000000000000000000000000CF
:10013000000000000000000000000000000012119C
:10014000100000000000000000000000000000009F
:10015000000000000000000001021020200808102C
:100160002040102040800201020108040201010227
:100170000408102040808040201008040201800400
:10018000020180402010080402010804020101025B
:10019000040810204080010204081020408005055A
:1001A0000505070508080808020202020A0A0808ED
:1001B000040404040101010101010101030303031B
:1001C00003030303040707070C0C0C0C0C0C0C0CAA
:1001D0000202020206060606060606060B0B0B0BBB
:1001E0000B0B0B0B000020002300260029002C0025
:1001F0002F00320000010000030106010901000088
:100200002200250028002B002E00310034000201BE
:100210000000050108010B01000021002400270057
:100220002A002D0030003300010100000401070105
:100230000A01F80FFE12581EE41E701FFC1F112445
:100240001FBECFEFD1E2DEBFCDBF00E00CBF14E098
:10025000A0E0B2E0E8EFF3E400E00BBF02C00790DB
:100260000D92A032B107D9F728E0A0E2B4E001C0B6
:100270001D92AA3CB207E1F711E0CFE1D1E000E026
:1002800006C021970109802FFE010E948720C931F5
:10029000D10780E00807A9F70E949E160C94FA2166
:1002A000AFCE4F925F926F927F928F929F92AF925A
:1002B000BF92CF92DF92EF92FF920F931F93CF9353
:1002C000DF93CDB7DEB76A970FB6F894DEBF0FBEE7
:1002D000CDBF6D837E838F83988729013A01FA8E83
:1002E000E98E4B015C01B7FE08C0B094A0949094D5
:1002F0008094811C911CA11CB11C7301620177FECA
:1003000007C0CC24DD247601C418D508E608F70818
:1003100095014427552729873A874B875C87AA246C
:10032000BB24C701AA27BB278D879E87AF87B88BC1
:10033000EE24FF24C701B6010E945620698B7A8BF8
:100340008B8B9C8BA50194016D857E858F8598890B
:100350000E9456206D8B7E8B8F8B988FC701B601C4
:100360000E945620AB01BC01CD88DE88EF88F88C56
:10037000D60199278827840F951FA61FB71FF1E084
:10038000E0E030E020E084179507A607B70708F003
:10039000F0E0F983EA833B832C8329893A894B89EE
:1003A0005C897901DD24CC24C80ED91EEA1EFB1E0F
:1003B000C816D906EA06FB0658F489819A81AB81F2
:1003C000BC810196A11DB11D89839A83AB83BC8337
:1003D0002D893E894F89588DCA01AA27BB272989B3
:1003E0003A894B895C894A01AA24BB24880E991E4C
:1003F000AA1EBB1E29853A854B855C856D857E8549
:100400008F8598890E945620860E971EA81EB91EB9
:1004100089819A81AB81BC81880E991EAA1EBB1E60
:100420002D813E814F8158852115310541055105AA
:1004300031F1411451046104710409F191E0121683
:100440001306140615060CF090E081E01414150450
:10045000160417040CF080E0981789F0F094E094EB
:10046000D094C094C11CD11CE11CF11CC114D10456
:10047000E104F10439F180949094A094B094D801EF
:100480008D929D92AD92BC921397E98DFA8DC082A8
:10049000D182E282F3826A960FB6F894DEBF0FBE75
:1004A000CDBFDF91CF911F910F91FF90EF90DF9023
:1004B000CF90BF90AF909F908F907F906F905F9004
:1004C0004F900895B094A09490948094811C911CB6
:1004D000A11CB11CD4CF8F929F92AF92BF92EF928A
:1004E000FF920F931F93CF93DF9300D000D01F9202
:1004F0001F92CDB7DEB74701FE0131967F018E0115
:100500000B5F1F4FCEDE20E230E0281939096D81E4
:100510007E818F81988504C0660F771F881F991F81
:100520002A95D2F709811A812B813C8104C0369526
:100530002795179507958A94D2F7602B712B822BFC
:10054000932B28960FB6F894DEBF0FBECDBFDF9178
:10055000CF911F910F91FF90EF90BF90AF909F9020
:100560008F9008958F929F92AF92BF92CF92DF9219
:10057000EF92FF920F931F93CF93DF935A01E901FC
:100580009C8020E030E0A9010E94AE1918160CF002
:1005900056C091100BC0F80184819581A681B78166
:1005A00088839983AA83BB8381E08C83A70196010A
:1005B000688179818A819B810E949E17881F882784
:1005C000881FF5018083F801248535854685578588
:1005D00060817181828193810E94B919288139815A
:1005E0004A815B810E94D8164B015C018882998206
:1005F000AA82BB82A70196010E94AE1987FD05C0A1
:10060000C882D982EA82FB820DC0F801C084D184FD
:10061000E284F384A7019601C501B4010E949E17EC
:10062000181674F7DF91CF911F910F91FF90EF9003
:10063000DF90CF90BF90AF909F908F9008959920BA
:1006400089F31C82EFCF4F925F926F927F928F92CD
:100650009F92AF92BF92CF92DF92EF92FF920F9351
:100660001F93CF93DF9300D01F921F92CDB7DEB7B9
:100670008D833B012A01882329F1D8018C91813097
:1006800009F1F9012081318142815381D2016D91BB
:100690007D918D919C910E94D81669837A838B837A
:1006A0009C83F2016083718382839383A50194010B
:1006B0000E94AE1918161CF5D3018D929D92AD9231
:1006C000BC92139781E0FD81F11101C080E0D80157
:1006D0008C930F900F900F900F900F90DF91CF9110
:1006E0001F910F91FF90EF90DF90CF90BF90AF9050
:1006F0009F908F907F906F905F904F900895A7018B
:10070000960169817A818B819C810E949E1787FF67
:1007100006C0F301C082D182E282F382D3CF898105
:100720009A81AB81BC81F30180839183A283B383DF
:10073000C9CF8F929F92AF92BF92CF92DF92EF92EA
:10074000FF92CF93DF936B017C0149015A010E9414
:10075000220E882399F06091B8087091B9088091B1
:10076000BA089091BB08DF91CF91FF90EF90DF9096
:10077000CF90BF90AF909F908F900895C501B40126
:100780000E94220E8111E7CFC701B6010E94DD0D44
:100790008823E1F1C501B4010E94DD0D8823B1F188
:1007A00020E030E0A901C701B6010E94AE19CFEFE9
:1007B000DFEF181614F4C1E0D0E020E030E0A9012A
:1007C000C501B4010E94AE196FEF7FEF181614F443
:1007D00061E070E0072E000C880B990B0E9438181E
:1007E0006B017C01BE01DD0F880B990B0E9438184C
:1007F000A7019601DF91CF91FF90EF90DF90CF900E
:10080000BF90AF909F908F900C944B1720E030E0FA
:10081000A901C501B4010E949E17811116C020E0F4
:1008200030E0A901C701B6010E94AE19181694F074
:1008300020E030E0A901C701B6010E949E1787FDA4
:100840000EC060E070E0CB018ECFA5019401C7011E
:10085000B601D0CF6BED7FE089EC9FE384CF6BEDE9
:100860007FE089EC9FEB7FCF4F925F926F927F92F8
:100870008F929F92AF92BF92CF92DF92EF92FF92B0
:100880000F931F93CF93DF93CDB7DEB768970FB663
:10089000F894DEBF0FBECDBF69E578E088E598E04B
:1008A0000E942B0E6CE378E088E398E00E94BD0E76
:1008B0006EE478E088E498E00E949F0F20913C0865
:1008C00030913D0840913E0850913F086091A60349
:1008D0007091A7038091A8039091A9031FE1E12ED5
:1008E000F12C00E010E0F7DD69837A838B839C8331
:1008F0008091380890913908A0913A08B0913B084E
:100900008093400890934108A0934208B093430815
:1009100089819A81AB81BC8180934408909345087A
:10092000A0934608B09347089091580899879093F0
:100930005A088091590880935B082091B003309148
:10094000B103A0914A08B0914B080E948F200E94E9
:10095000381820E030E040E053E30E94B9196D837D
:100960007E838F8398872091B2033091B303A09147
:100970004C08B0914D080E948F200E94381820E04A
:1009800030E040E053E30E94B9192091AA0330916E
:10099000AB034091AC035091AD030E94B9192B01F8
:1009A0003C018D819E81AF81B88580932C08909306
:1009B0002D08A0932E08B0932F0840923008509233
:1009C000310860923208709233082091AE03309162
:1009D000AF03A0914E08B0914F080E948F200E9453
:1009E000381820E030E040E854E30E94B9196093E1
:1009F00034087093350880933608909337088090B8
:100A0000E6029090E702A090E802B090E902C09060
:100A1000DE02D090DF02E090E002F090E1020BEA0B
:100A200018E028EB33E04CE958E060E178E0898594
:100A30000ADEC090EE02D090EF02E090F002F0905B
:100A4000F102609110087091110880911208909144
:100A500013080DEC13E025EA38E04DE558E082DD9F
:100A600020E030E0A9016091100870911108809198
:100A70001208909113080E949E17882321F18091FB
:100A80005D08811120C020917A0230917B02409153
:100A90007C0250917D026DEC7CEC8CEC9DE30E941D
:100AA000A2172091DA023091DB024091DC025091D2
:100AB000DD020E94B9196093280870932908809379
:100AC0002A0890932B0820914203309143034091D0
:100AD000440350914503C301B2010E94B9196B014F
:100AE0007C0120913E0330913F034091400350919F
:100AF00041036D817E818F8198850E94B919A7017C
:100B0000960117DE80905E0890905F08A0906008C4
:100B1000B09061084090620850906308609064084B
:100B200070906508A50194010E94D7166B017C01A5
:100B30002091520330915303409154035091550337
:100B4000C301B2010E94B9199B01AC01C701B601F2
:100B50000E94D71620914E0330914F0340915003CD
:100B6000509151030E94A2176093860870938708E2
:100B70008093880890938908209146033091470319
:100B800040914803509149030E94B9196B017C01BF
:100B900020914A0330914B0340914C0350914D03F7
:100BA000C301B2010E94B9199B01AC01C701B60192
:100BB0000E94D816A50194010E94D8162091DA024D
:100BC0003091DB024091DC025091DD020E94B919A4
:100BD0002B013C012091B6023091B7024091B8023E
:100BE0005091B90260E070E080E89FE30E94A21794
:100BF0006B017C0180900A0290900B02A0900C0285
:100C0000B0900D02609138087091390880913A08CF
:100C100090913B080E943818A50194010E94B919CF
:100C2000A70196010E94B919A30192010E94D8164A
:100C30006D877E878F87988B69817A818B819C8174
:100C40000E943818A50194010E94B919A7019601C4
:100C50000E94B919A30192010E94D816698B7A8B60
:100C60008B8B9C8B9B01AC016D857E858F859889D4
:100C70000E94D81620E030E040E05FE30E94B919FE
:100C800069877A878B879C872091660830916708EF
:100C9000409168085091690860916E0370916F03EC
:100CA00080917003909171030E94B9199B01AC016E
:100CB00069857A858B859C850E94D7166B017C019E
:100CC00020916A0830916B0840916C0850916D0832
:100CD0006091720370917303809174039091750316
:100CE0000E94B9199B01AC01C701B6010E94D71639
:100CF0006B017C0120916E0830916F084091700863
:100D00005091710860917603709177038091780318
:100D1000909179030E94B9199B01AC01C701B601FA
:100D20000E94D71620916A0330916B0340916C03A7
:100D300050916D030E94A21760938A0870938B08EC
:100D400080938C0890938D082091720830917308DD
:100D500040917408509175086091920370919303CB
:100D600080919403909195030E94B9199B01AC0165
:100D7000C301B2010E94D7166B017C012091760855
:100D800030917708409178085091790860919603E6
:100D90007091970380919803909199030E94B919DB
:100DA0009B01AC01C701B6010E94D7166B017C0103
:100DB00020917A0830917B0840917C0850917D0801
:100DC00060919A0370919B0380919C0390919D0385
:100DD0000E94B9199B01AC01C701B6010E94D71648
:100DE00020918E0330918F03409190035091910395
:100DF0000E94A21760938E0870938F0880939008CA
:100E0000909391088090EA029090EB02A090EC02FF
:100E1000B090ED02C090E202D090E302E090E402D4
:100E2000F090E5020AEA18E024EB33E048E958E0E4
:100E30006CE078E08091590806DC20E030E0A90100
:100E40006091100870911108809112089091130818
:100E50000E949E178111E5C491E0998320E030E063
:100E6000A90160910C0870910D0880910E08909175
:100E70000F080E949E17811101C01982B981B09399
:100E80009708BB2309F466C28091D6029091D702DD
:100E9000A091D802B091D90289839A83AB83BC8395
:100EA000209128083091290840912A0850912B0858
:100EB000BC01CD010E94B9196D837E838F83988711
:100EC00029853A854B855C8569817A818B819C81F6
:100ED0000E94B9196D8B7E8B8F8B988F8091B20297
:100EE0009091B302A091B402B091B50289879A871C
:100EF000AB87BC872091CE023091CF024091D002C7
:100F00005091D1026D817E818F8198850E94B9199F
:100F10006B017C0120918A0830918B0840918C08EC
:100F200050918D0860915A0370915B0380915C032E
:100F300090915D030E94B9194B015C0120916608F4
:100F400030916708409168085091690860915E038C
:100F500070915F0380916003909161030E94B919C1
:100F60009B01AC01C501B4010E94D8164B015C0184
:100F700020916A0830916B0840916C0850916D087F
:100F800060916203709163038091640390916503A3
:100F90000E94B9199B01AC01C501B4010E94D81689
:100FA0004B015C0120916E0830916F0840917008F0
:100FB0005091710860916603709167038091680396
:100FC000909169030E94B9199B01AC01C501B4015C
:100FD0000E94D81629813A814B815C810E94B919FF
:100FE0009B01AC01C701B6010E94D71620910A03EC
:100FF00030910B0340910C0350910D030E94B919DD
:101000006B017C012091CA023091CB024091CC024D
:101010005091CD026D817E818F8198850E94B91992
:101020004B015C01A301920169817A818B819C81D2
:101030000E94B9199B01AC01C501B4010E94D716E9
:101040002091060330910703409108035091090352
:101050000E94B9194B015C012091C6023091C70270
:101060004091C8025091C9026D817E818F8198851F
:101070000E94B9192D893E894F89588D0E94D71633
:101080002091020330910303409104035091050322
:101090000E94B9199B01AC01C501B4010E94D81688
:1010A0009B01AC01C701B6010E94D8166B017C01FF
:1010B0002091D2023091D3024091D4025091D502B6
:1010C0006D817E818F8198850E94B9194B015C01E9
:1010D00020918E0830918F0840919008509191088E
:1010E00060917E0370917F038091800390918103D2
:1010F0000E94B9192B013C012091720830917308AC
:101100004091740850917508609182037091830337
:1011100080918403909185030E94B9199B01AC01D1
:10112000C301B2010E94D8162B013C012091760820
:101130003091770840917808509179086091860342
:101140007091870380918803909189030E94B91957
:101150009B01AC01C301B2010E94D8162B013C01D6
:1011600020917A0830917B0840917C0850917D084D
:1011700060918A0370918B0380918C0390918D0311
:101180000E94B9199B01AC01C301B2010E94D8169B
:1011900029813A814B815C810E94B9199B01AC0184
:1011A000C501B4010E94D71620910E0330910F03A0
:1011B00040911003509111030E94B9199B01AC0199
:1011C000C701B6010E94D8166B017C012091C202B2
:1011D0003091C3024091C4025091C5026D817E815D
:1011E0008F8198850E94B9199B01AC01C701B60196
:1011F0000E94D8166B017C0120917E0830917F08F7
:1012000040918008509181086091BE027091BF02A8
:101210008091C0029091C1020E94B9199B01AC015A
:10122000C701B6010E94D81629853A854B855C8591
:101230000E94B919609314087093150880931608DA
:10124000909317082D893E894F89588D6D817E8135
:101250008F8198850E94D71660931808709319089B
:1012600080931A0890931B08E091AD04F091AE04AE
:1012700020912203309123034091240350912503B0
:1012800060817181828193810E949E1787FFCCC209
:10129000C0902603D0902703E0902803F090290304
:1012A00029893A894B895C896D857E858F859889E6
:1012B0000E94D71626E933E44BE05DE30E94B9199A
:1012C0002DEC3CEC4CE45EE30E94A21729813A81AC
:1012D0004B815C810E94B9199B01AC01C701B60129
:1012E0000E94D7166B017C0120912E0330912F03B1
:1012F00040913003509131030E94B9192091820826
:101300003091830840918408509185080E94D81636
:1013100029853A854B855C850E94B91960931C0824
:1013200070931D0880931E0890931F08A7019601D3
:1013300060913203709133038091340390913503AF
:101340000E94B919609320087093210880932208A5
:1013500090932308C090F202D090F302E090F40240
:10136000F090F50260910C0870910D0880910E08C4
:1013700090910F080CEB13E020EA38E04CE558E0C0
:10138000F1D820E030E0A90160910C0870910D08BF
:1013900080910E0890910F080E949E178823D1F02B
:1013A00080915C08811116C02091AE023091AF028D
:1013B0004091B0025091B10260E070E080EA90E4A8
:1013C0000E94A21760932408709325088093260832
:1013D00090932708209124083091250840912608F1
:1013E0005091270860911408709115088091160893
:1013F000909117080E94D7166B017C0120911C0860
:1014000030911D0840911E0850911F080E94D81667
:101410000E9473184B015C0115D481110EC2C501E5
:10142000B401CBD3811109C220E030E040E857E499
:10143000C501B4010E948D184B015C0120E030E031
:10144000A9010E949E1787FFFBC1C501B4019058F6
:101450000E940A18719561957109709355086093FF
:10146000540820911C0830911D0840911E0850918D
:101470001F08C701B6010E94D7162091A203309120
:10148000A3034091A4035091A5030E94B9190E949F
:1014900073186B017C01D6D38111D7C1C701B60186
:1014A0008CD38111D2C120E030E040E857E4C7017D
:1014B000B6010E948D186B017C0120E030E0A9018B
:1014C0000E949E1787FFC4C1C701B60190580E94B1
:1014D0000A187195619571097093570860935608C1
:1014E00066E578E084E598E00E943C15209192083A
:1014F000309193083A83298380915A0890915B0830
:10150000D9018D939D9388E0E0E4F8E001900D927D
:101510008A95E1F7D9011A9688E0ECE2F8E00190AB
:101520000D928A95E1F78091340890913508A09149
:101530003608B0913708F901828B938BA48BB58B59
:10154000409194085091950866E170E0809192086E
:10155000909193080E947515E0919408F091950878
:10156000178A609194087091950886E9A82E88E002
:10157000B82E92E4C92E21E4E22E01E028E130E009
:1015800040E050E082E00E94A315209134083091A1
:10159000350840913608509137086091D602709115
:1015A000D7028091D8029091D9020E94B919609314
:1015B00008087093090880930A0890930B082091FB
:1015C00036033091370340913803509139030E941C
:1015D000B91920915E0830915F08409160085091E0
:1015E00061080E94D81660935E0870935F0880932C
:1015F0006008909361088091860890918708A09177
:101600008808B09189088093620890936308A0933A
:101610006408B093650880916A0890916B08A09166
:101620006C08B0916D0880936E0890936F08A0933A
:101630007008B09371088091760890917708A09116
:101640007808B091790880937A0890937B08A093EA
:101650007C08B0937D088091660890916708A091FE
:101660006808B091690880936A0890936B08A0930A
:101670006C08B0936D088091720890917308A091E6
:101680007408B09175088093760890937708A093BA
:101690007808B093790880918A0890918B08A0917E
:1016A0008C08B0918D088093660890936708A0938A
:1016B0006808B093690880918E0890918F08A09176
:1016C0009008B09191088093720890937308A0934A
:1016D0007408B093750880919708882309F448C06E
:1016E000209118083091190840911A0850911B0850
:1016F000609112037091130380911403909115036C
:101700000E94B91920917E0830917F08409180088D
:10171000509181080E94D81660937E0870937F08CC
:1017200080938008909381082091200830912108AF
:10173000409122085091230860911A0370911B0375
:1017400080911C0390911D030E94B9192091820879
:101750003091830840918408509185080E94D816E2
:10176000609382087093830880938408909385081F
:1017700060919F047091A0048091A1049091A204B3
:101780006F5F7F4F8F4F9F4F60939F047093A004B4
:101790008093A1049093A2042091AD043091AE04F3
:1017A0003A8329830E9436189B01AC016091A304FF
:1017B0007091A4048091A5049091A6040E94B91987
:1017C000A981BA816D937D938D939C93139780919A
:1017D000A7049091A804A091A904B091AA0401962D
:1017E000A11DB11D8093A7049093A804A093A90400
:1017F000B093AA0468960FB6F894DEBF0FBECDBFB3
:10180000DF91CF911F910F91FF90EF90DF90CF90DC
:10181000BF90AF909F908F907F906F905F904F9010
:101820000895A1E0A9832ACBC0902A03D0902B036E
:10183000E0902C03F0902D0333CD812C912C54019A
:10184000C501B4010E940A1808CEC12CD12C760122
:10185000C701B6010E940A183FCE0F931F93CF9382
:10186000DF9384E090E072D1E0E2F4E08BEA94E070
:1018700095838483CDEAD4E0D7AFC6AF03EA14E002
:10188000138B028BF0938904E0938804F383E28343
:1018900021E030E0DC012D933C9380EE93E09187D2
:1018A00080878FEA94E0998388834AE057ED63E26A
:1018B0007CE3F8014083518362837383C4D15BD29C
:1018C0002CD30E94241561E070E086E190E00E9434
:1018D000B420CEE5D8E09DAB8CAB61E070E088E150
:1018E00090E00E94B4209FAB8EAB18AE40E056E96A
:1018F00060E070E082E00E949A15EAEAF8E081E098
:101900008083818380913A0390913B03A0913C03B3
:10191000B0913D0388839983AA83BB83809156034A
:1019200090915703A0915803B09159038C839D83E4
:10193000AE83BF8340917A0350917B0360917C0317
:1019400070917D03488759876A877B8780919E03C2
:1019500090919F03A091A003B091A1038C8B9D8BCC
:10196000AE8BBF8B4C875D876E877F87888F998F03
:10197000AA8FBB8F488B598B6A8B7B8B8C8F9D8FEB
:10198000AE8FBF8F8091DE029091DF02A091E002C6
:10199000B091E10280939C0890939D08A0939E08CB
:1019A000B0939F0808E018E0F80180879187A2872C
:1019B000B3878091D1039091D203A091D303B091CA
:1019C000D4038093A5089093A608A093A708B0938A
:1019D000A8088091DD0380935D0820917A02309100
:1019E0007B0240917C0250917D026DEC7CEC8CEC92
:1019F0009DE30E94A2172091DA023091DB02409110
:101A0000DC025091DD020E94B919D80190966D93C5
:101A10007D938D939C9393978091E2029091E30242
:101A2000A091E402B091E5028AAF9BAFACAFBDAF2D
:101A3000F80184839583A683B783809116039091E0
:101A40001703A0911803B091190388A399A3AAA31F
:101A5000BBA380911E0390911F03A0912003B0911E
:101A600021038CA39DA3AEA3BFA38091FA02909102
:101A7000FB02A091FC02B091FD0284879587A687A6
:101A8000B7878091FE029091FF02A0910003B09170
:101A90000103848B958BA68BB78B8091C0039091AB
:101AA000C103A091C203B091C3038093A008909397
:101AB000A108A093A208B093A3088091CC038093BF
:101AC0005C088091F6029091F702A091F802B09123
:101AD000F902848F958FA68FB78FDF91CF911F91D9
:101AE0000F910895CF93DF93D5D0CCD180D2F7D783
:101AF000CEE5D8E08CA99DA90E946A218EA99FA954
:101B00000E946A2118AE82E0DF91CF910C940B16EF
:101B100060E070E080E89FE7089560E070E080E8B2
:101B20009FE7089560E070E080E89FEF089560E02F
:101B300070E080E89FEF089560E070E080EC9FEF38
:101B4000089560E070E080EC9FEF0895F5DF60930A
:101B5000B8087093B9088093BA089093BB08F1DF76
:101B60006093AC087093AD088093AE089093AF0873
:101B7000CFDF6093B4087093B5088093B608909354
:101B8000B708CBDF6093B0087093B1088093B208B8
:101B90009093B308C7DF6093BC087093BD0880932F
:101BA000BE089093BF08C3DF6093C0087093C1085C
:101BB0008093C2089093C3080895CF92DF92EF926A
:101BC000FF92CF936B017C01AC019B016091B40843
:101BD0007091B5088091B6089091B7080E949E1741
:101BE000C1E0882371F0A70196016091BC08709153
:101BF000BD088091BE089091BF080E949E17811178
:101C0000C0E08C2FCF91FF90EF90DF90CF900895A0
:101C10000F931F938B019C010027112720783F779A
:101C20000115110520483F4749F4AB01BC016F770E
:101C3000772781E0452B462B472B09F480E01F9145
:101C40000F910895E5CF60E08EE20E941C1C60E0D9
:101C50008FE20C941C1C0F931F93CF93DF938C0186
:101C6000EB018EE20E94851C019779F481E0F80176
:101C700080838FE20E94851C019751F481E0888364
:101C8000DF91CF911F910F910895F8011082F1CF4C
:101C90001882F6CF08958EBD00000DB407FEFDCF6B
:101CA0008EB5089561E081E30E941C1C61E080E331
:101CB0000E941C1C61E081E30E94581C61E080E3EB
:101CC0000E94581CE0D060E081E30E94581C88E824
:101CD000E2DF83E0E0DF61E081E30E94581C60E026
:101CE00080E30E94581C88E8D6DF83E0D4DF61E0FF
:101CF00080E30C94581C60E081E30E94581C88E942
:101D0000CADF80E0C8DF80E0C6DF80E0C4DF80E0BB
:101D1000C2DF61E081E30E94581C8AE090E00E94EB
:101D2000751A60E081E30E94581C80EEB4DF61E028
:101D300081E30E94581C60E080E30E94581C88E9FF
:101D4000AADF80E0A8DF80E0A6DF80E0A4DF80E0FB
:101D5000A2DF61E080E30E94581C8AE090E00E94CC
:101D6000751A60E080E30E94581C80EE94DF61E009
:101D700080E30C94581C96DFBECF8F929F92AF9257
:101D8000BF92CF92DF92EF92FF920F931F93CF9368
:101D9000DF938C01EB0160E081E30E94581C80E638
:101DA0007ADF80E078DFF82E80E075DFC82E80E0F3
:101DB00072DFA82E80E06FDFB82E61E081E30E9421
:101DC000581C8F2D90E0982F8827C80ED92ED11C33
:101DD0000D2C000CEE08FF08FE2CED2CDC2CCC2486
:101DE000CA0CD11CE11CF11CFE2CED2CDC2CCC24EB
:101DF000CB0CD11CE11CF11C60E080E30E94581C5C
:101E000080E649DF80E047DF882E80E044DF982EBF
:101E100080E041DFA82E80E03EDFB82E61E080E365
:101E20000E94581C882D90E0982F8827890D911DBD
:101E3000092E000CAA0BBB0BBA2FA92F982F8827AD
:101E40008A0D911DA11DB11DBA2FA92F982F88278A
:101E5000F801C082D182E282F3828B0D911DA11D17
:101E6000B11D88839983AA83BB83DF91CF911F9192
:101E70000F91FF90EF90DF90CF90BF90AF909F9029
:101E80008F90089536C0CF93CFB7F8948091B8045F
:101E9000811127C0E3EDF1E08491EDE8F1E0949148
:101EA000E82FF0E0EE0FFF1FE85EFD4FA591B49123
:101EB000EC91E92321F461E085E30E94581C61E084
:101EC00085E30E941C1C8CB580618CBD8CB5806440
:101ED0008CBD61E084E30E941C1C61E083E30E94EE
:101EE0001C1C8091B8048F5F8093B804CFBFCF9142
:101EF00008959FB7F8948091B804882319F0815011
:101F00008093B8048091B804811105C08CB58F7B93
:101F10008CBD1092B7049FBF089588EC94E0E6D280
:101F200089EB94E0FBD062E089EB94E068D060E05C
:101F300089EB94E06ED063E089EB94E074C08F92FB
:101F40009F92AF92BF92CF92DF92EF92FF920F9348
:101F50001F93CF93DF93CDB7DEB72C970FB6F894CE
:101F6000DEBF0FBECDBF4C015B01CE0101966C01FF
:101F7000FE0133967F018E010B5F1F4F9E01295F8B
:101F80003F4FAE01475F5F4FBE01655F7F4F89EBFB
:101F900094E053D08B859C85F4019183808389855F
:101FA0009A85938382838F819885958384838D819D
:101FB0009E81F501918380838B819C8193838283B1
:101FC00089819A81958384832C960FB6F894DEBF1D
:101FD0000FBECDBFDF91CF911F910F91FF90EF907A
:101FE000DF90CF90BF90AF909F908F90089508950D
:101FF00089EB94E000C028E6FC01208308950F934C
:10200000062F23E042E06AE1FC018081A4D10F9118
:1020100008950F93062F22E044E06BE1FC018081DC
:102020009AD10F9108950F93062F22E044E06CE1BE
:10203000FC01808190D10F9108954F925F926F9231
:102040007F928F929F92AF92BF92CF92DF92EF9248
:10205000FF920F931F93CF93DF93EC013B014A0153
:10206000590128010091DE031091DF039C012F5FCD
:102070003F4F4EE06BE388819BD089819A819827FE
:1020800089279827F301918380838B819C819827EE
:1020900089279827F401918380838D819E819827D9
:1020A00089279827F5019183808389859A859827C8
:1020B00089279827F201918380838B859C859827B7
:1020C00089279827F701918380838D859E8598279E
:1020D00089279827F60191838083DF91CF911F9103
:1020E0000F91FF90EF90DF90CF90BF90AF909F90B7
:1020F0008F907F906F905F904F900895262F46E0CD
:102100006BE6FC018081F9C00F93062F23E042E0CB
:102110006BE6FC0180811FD10F910895CF93DF936F
:10212000EC0161E0F1DF60E0CE0173DF60E0CE0141
:102130007ADF60E0CE01DF91CF91E0CFFF920F9385
:102140001F93CF93DF93C62F042FF22E132F682FE8
:1021500088EC94E0D4D16C2F88EC94E06DD1CF2D35
:10216000D12F0C0F1D2F111DC017D10729F0699118
:1021700088EC94E061D1F8CF88EC94E03DD291E016
:10218000811190E0892FDF91CF911F910F91FF90E6
:102190000895CF93DF931F92CDB7DEB749839E0199
:1021A0002F5F3F4F41E0CADF0F90DF91CF9108953D
:1021B0002F923F924F925F926F927F928F929F9257
:1021C000AF92BF92CF92DF92EF92FF920F931F9345
:1021D000CF93DF9300D0CDB7DEB7E82E69834B8372
:1021E00069010E94691A4B015C01F12C1A822B8152
:1021F000222E312C2801712C612C8B81F81608F0CD
:1022000041C06E2D88EC94E07AD1698188EC94E02D
:1022100013D188EC94E0F0D16E2D88EC94E06FD16E
:10222000A1014F1951094132510514F040E250E02B
:102230006E2D88EC94E0DED188EC94E0D3D0892B2D
:10224000D9F00115110569F488EC94E0D2D0F601BB
:102250009A81E90FF11D97FDFA9580839F5F9A831C
:10226000EBCF0E94691A681979098A099B096415DC
:1022700075058605970540F38B81813208F080E271
:10228000F80EBBCF01151105C1F00E94691A68193B
:1022900079098A099B0930E020E0601771078207FD
:1022A000930758F02A81822F220F990B2B81281730
:1022B000190619F014F08FEF8A838A810F900F901E
:1022C0000F90DF91CF911F910F91FF90EF90DF90D2
:1022D000CF90BF90AF909F908F907F906F905F90C6
:1022E0004F903F902F9008950F931F9389019A016B
:1022F00041E05EDF1F910F910895EF92FF920F93DF
:102300001F93CF93DF931F92CDB7DEB7182F062F01
:10231000E42EF22E2091DE033091DF03AE014F5FF9
:102320005F4FE2DF81E090E001C0880FEA94EAF7B6
:102330004981FF2069F0482B4983602F812F29DFD5
:102340000F90DF91CF911F910F91FF90EF90089523
:1023500080954823F1CFDF92EF92FF920F931F9366
:10236000CF93DF931F92CDB7DEB7F82EE62E142F52
:10237000D22E2091DE033091DF03AE014F5F5F4F1D
:10238000B3DF882351F1812F8D19990BAC014F5F79
:102390005F4F81E090E002C0880F991FDA94E2F766
:1023A0000197042E01C0880F0A94EAF701C0000FBC
:1023B0004A95EAF7482F4095998149238023482B75
:1023C00049836E2D8F2DE5DE0F90DF91CF911F9108
:1023D0000F91FF90EF90DF90089580E0F5CF90E0AF
:1023E00080E008958091F8049091F904891B990B7D
:1023F00008959091F9048091F8042FEF3FEF98171A
:1024000048F4E92FF0E0E650FB4F208130E09F5F79
:102410009093F904C9010895E091F9048091F804BA
:10242000E81730F4F0E0E650FB4F808190E008952B
:102430008FEF9FEF08950895CF93DF931F92CDB74D
:10244000DEB769832091D4042223F9F02091D504CA
:10245000203258F021E030E0FC013383228390E009
:1024600080E00F90DF91CF9108958091D604E82FFE
:10247000F0E0E952FB4F998190838F5F8093D604FF
:102480008093D50481E090E0ECCF61E0CE0101962D
:1024900083D1F8CFCF92DF92EF92FF920F931F93E9
:1024A000CF93DF937C01CB018A012091D4042223B6
:1024B00089F0EB016B01C40ED51ECC15DD0561F072
:1024C0006991D701ED91FC910190F081E02DC70158
:1024D0001995F3CF642F60D1C801DF91CF911F917F
:1024E0000F91FF90EF90DF90CF9008951092F90434
:1024F0001092F8041092D6041092D50490C081E096
:102500008093D4046093F7041092D6041092D504FB
:1025100008950F93062F21E04091D50467ED74E0F4
:102520008091F704E2D01092D6041092D504109254
:10253000D4040F9108954F925F926F927F92AF9261
:10254000BF92CF92EF92FF920F931F93CF93DF939F
:102550005C01F62ED42F28013901EE2009F1CFDFDE
:10256000CE2DC43008F0C3E0C150B8F028E0C29FBF
:10257000C0011124A301920104C0569547953795D7
:1025800027958A95D2F7B901D501ED91FC9101907B
:10259000F081E02DC5011995E7CF60E0C501B9DFF5
:1025A0004D2FD13208F040E22C2D6AEF74E08F2DD0
:1025B00054D01092F9048093F804DF91CF911F91C9
:1025C0000F91FF90EF90CF90BF90AF907F906F9062
:1025D0005F904F900895CF92EF920F931F93C22E6A
:1025E000E12C00E010E09801A6DF1F910F91EF9021
:1025F000CF90089521E0EFCF61E08BCFE8ECF4E0DD
:102600001382128288EE93E0A0E0B0E08483958389
:10261000A683B78388EF93E0918380830895109217
:10262000870581E0809385051092840561E084E14F
:102630000E94581C61E085E10E94581CE9EBF0E023
:1026400080818E7F808380818D7F80838CE08093EA
:10265000B80085E48093BC000895413208F043C07F
:10266000909187059111FCCF91E09093870520937D
:1026700085052FEF20931A0510925F05240F2093F4
:102680005E059093860590918605880F892B80932F
:10269000860580918405813009F51092840580912A
:1026A00086058093BB008091BC0083FDF8CF85EC4C
:1026B0008093BC00809187058130E1F380915F05B4
:1026C000841710F440915F05A0E6B5E0962FFB015A
:1026D0008E2F891B841720F0842F089585EEE8CF74
:1026E0008D918193F5CF40E0F7CF0F93413208F001
:1026F0004BC0909187059111FCCF92E09093870594
:10270000009385059FEF90931A0510925F05409303
:102710005E05362FA0E6B5E0FB019E2F931B9417B4
:1027200070F11092860590918605880F892B809311
:10273000860580918405813029F510928405809169
:1027400086058093BB008091BC0083FDF8CF85ECAB
:102750008093BC00222321F0809187058230D1F341
:1027600080911A058F3F91F080911A05803281F097
:1027700080911A05803371F084E00F910895919152
:102780009D93CBCF85EEE4CF81E0F7CF80E0F5CF0E
:1027900082E0F3CF83E0F1CF20913C05260F332771
:1027A000331F21323105ECF420918705FC0190E0C4
:1027B00080E0243069F082E00895A0913C052191E9
:1027C000AC01425C5A4FA40FB52FB11D2C9301965A
:1027D000861798F380913C05680F60933C0580E074
:1027E000089581E0089585ED8093BC008091BC0040
:1027F00084FDFCCF10928705089585EC8093BC0082
:102800001092870508951F920F920FB60F92112410
:102810000BB60F922F933F934F935F936F937F93DA
:102820008F939F93AF93BF93EF93FF938091B900E2
:10283000887F803609F44CC008F03FC0883209F424
:10284000A8C028F5803109F49CC0C8F4882309F495
:10285000F8C0883009F495C0FF91EF91BF91AF9116
:102860009F918F917F916F915F914F913F912F91A8
:102870000F900BBE0F900FBE0F901F9018958831D0
:1028800009F487C0803241F780931A0514C0803460
:1028900009F49CC040F48033B9F38833E9F680939F
:1028A0001A05ABDFD9CF803509F484C0883509F427
:1028B00095C0883489F697DFCFCF883909F48CC06A
:1028C00038F5883729F050F4883611F0803721F632
:1028D00083E08093870510921B0557C0883809F460
:1028E0007BC0803919F0803809F0B6CF80911B0584
:1028F000803208F071C0E0911B0581E08E0F80935B
:102900001B058091BB00F0E0E45EFA4F80833DC080
:10291000803B39F0E0F4803A09F479C0883A09F054
:102920009BCF84E08093870510923D0510923C0573
:10293000E0918205F0918305199580913C05811104
:102940000FC081E080933C0510923E0509C0803C99
:1029500009F475C0883C09F472C0883B09F07CCF4B
:10296000E0913D0581E08E0F80933D05F0E0E25C53
:10297000FA4F80818093BB0090913D0580913C058A
:1029800029C0809186058093BB0085EC8093BC00B4
:1029900063CF90915F0580915E05981758F5E0919F
:1029A0005F0581E08E0F80935F05F0E0E05AFA4FFB
:1029B0008081E9CFE0915F0581E08E0F80935F0514
:1029C0008091BB00F0E0E05AFA4F808390915F0560
:1029D00080915E059817C8F285E8D8CFE0915F0531
:1029E00081E08E0F80935F058091BB00F0E0E05A9C
:1029F000FA4F80838091850581115DCF81E08093BE
:102A0000840584EA8093BC001092870525CFF5DE0B
:102A100080911B05803230F4E0911B05F0E0E45E0C
:102A2000FA4F108260911B0570E0E0918005F091F3
:102A300081058CE195E0199510921B050DCF85EC71
:102A4000E1CF10921A0537CF61E08CE0F5D661E056
:102A500083E0F2D661E089E0EFD661E08DE0ECD66C
:102A600061E08BE0E9D661E088E0E6D660E089E0ED
:102A70001FD760E088E01CC70F931F93CF93DF93AD
:102A80008C01EB01FC018081918197FD19C061E00F
:102A90008CE00ED7F80160817181772783E092D5B1
:102AA0008881998197FD14C061E08DE001D768812C
:102AB000798177278BE0DF91CF911F910F9182C5AC
:102AC00060E08CE0F5D6F8016081619570E0E6CFBA
:102AD00060E08DE0EDD66881619570E0EBCF61E05C
:102AE00089E0E6D661E088E0E3C6CF93DF93FA01A0
:102AF000680F791FEA012196DC0191E0A617B7075C
:102B000020F09083DF91CF9108958D919E012F5FEA
:102B10003F4F811105C09083FE0191E0E901EECFA6
:102B200088839F5F9F3FD1F79083F9019E012E5FBD
:102B30003F4FF3CF880F990BFC01EA5FFB4F26E074
:102B400080819181D4C74F925F926F927F928F92D2
:102B50009F92AF92BF92CF92EF920F931F93CF931A
:102B6000DF93182FEB0129010023E1F0E82FEE0F8E
:102B7000FF0BEA5FFB4F80809180D401ED91FC91C7
:102B80000084F185E02DC4011995181619066CF41E
:102B9000D401ED91FC910284F385E02DC4011995D7
:102BA0008E1125C081E0F5018083F501808181309F
:102BB00019F5E12FEE0FFF0BEA5FFB4F808191814A
:102BC000DC01ED91FC910280F381E02DA201BE01B8
:102BD000DF91CF911F910F91EF90CF90BF90AF9069
:102BE0009F908F907F906F905F904F9019948C1171
:102BF000DCCFD5011C92D9CFDF91CF911F910F91DE
:102C0000EF90CF90BF90AF909F908F907F906F90FC
:102C10005F904F900895880F990BFC01EA5FFB4F7E
:102C200080819181C4C740E855E260E070E090E0A7
:102C300080E000C08130910571F01CF4892B39F0DF
:102C400008958230910559F0039769F0089526E0C0
:102C500084E995E04CC726E081E396E0FBCF26E0CF
:102C60008EEC96E0F7CF26E08BE697E0F3CF1F924D
:102C70000F920FB60F9211240BB60F922F933F9322
:102C80004F935F936F937F938F939F93AF93BF9374
:102C9000EF93FF938FE89DEF90932501809324019C
:102CA00034D0FF91EF91BF91AF919F918F917F9120
:102CB0006F915F914F913F912F910F900BBE0F90AD
:102CC0000FBE0F901F9018958FE89DEF90932501F0
:102CD00080932401A3E7B0E08C918E7F8C93E0E297
:102CE000F1E080818C7F8083E1E2F1E08081877E6A
:102CF000808380818460808380818C7F80838C91BD
:102D000081608C93089581E008958091880591E019
:102D1000980F90938805882349F021E030E03093A4
:102D20008A052093890580938805089578940E94E8
:102D30003404F894809188058150F5CFCF93DF93C8
:102D40001092C5081092C408DBD36DDFC091F20366
:102D5000D091F303198218820E942D0CF894B4DFED
:102D600081E028813981232B09F080E08093C40819
:102D7000789478948091C408811108C00E94720DE3
:102D8000F89490E080E0DF91CF91089581E0288170
:102D90003981232B09F480E08093C5089091C50800
:102DA00081E0911180E08093C408ADDFE3CF5058FB
:102DB000BB27AA270ED081C272D230F077D220F082
:102DC00031F49F3F11F41EF442C20EF4E095E7FB8C
:102DD0000FC2E92F83D280F3BA1762077307840703
:102DE000950718F071F49EF5B2C20EF4E0950B2E23
:102DF000BA2FA02D0B01B90190010C01CA01A0014D
:102E00001124FF27591B99F0593F50F4503E68F1A7
:102E10001A16F040A22F232F342F4427585FF3CFE8
:102E2000469537952795A795F0405395C9F77EF4B9
:102E30001F16BA0B620B730B840BBAF09150A1F002
:102E4000FF0FBB1F661F771F881FC2F70EC0BA0F88
:102E5000621F731F841F48F4879577956795B79510
:102E6000F7959E3F08F0B3CF9395880F08F0992708
:102E7000EE0F97958795089512D258F080E891E06B
:102E800009F49EEF13D228F040E851E059F45EEFC8
:102E900009C0DDC15CC2E92FE07820D268F3092EB9
:102EA000052AC1F3261737074807590738F00E2EB1
:102EB00007F8E02569F0E025E0640AC0EF6307F851
:102EC000009407FADB01B9019D01DC01CA01AD01E3
:102ED000EF9347D0F2D10AD05F91552331F02BED1B
:102EE0003FE049E450FD49EC63CF0895DF93DD27CF
:102EF000B92FBF7740E85FE31616170648075B0750
:102F000010F4D92F2FD29F938F937F936F9394D2E6
:102F1000E4EEF0E09FD1D1D12F913F914F915F919D
:102F200034D2DD2349F09058A2EA2AED3FE049EC83
:102F30005FE3D0785D274DDFDF91BFC135D108F465
:102F400081E008950CD0B9C1B1D140F0A8D130F0E2
:102F500021F45F3F19F04CC15111FAC178C1BED1C3
:102F600098F39923C9F35523B1F3951B550BBB2750
:102F7000AA2762177307840738F09F5F5F4F220FFD
:102F8000331F441FAA1FA9F333D00E2E3AF0E0E8F6
:102F900030D091505040E695001CCAF729D0FE2F42
:102FA00027D0660F771F881FBB1F261737074807D4
:102FB000AB07B0E809F0BB0B802DBF01FF2793588A
:102FC0005F4F2AF09E3F510568F012C1C1C15F3FBB
:102FD000ECF3983EDCF3869577956795B795F79572
:102FE0009F5FC9F7880F911D9695879597F908956A
:102FF000E1E0660F771F881FBB1F62177307840706
:10300000BA0720F0621B730B840BBA0BEE1F88F714
:10301000E09508956BD188F09F5790F0B92F9927CC
:10302000B751A0F0D1F0660F771F881F991F1AF0D3
:10303000BA95C9F712C0B13081F089D1B1E00895D5
:1030400086C1672F782F8827B85F39F0B93FCCF356
:10305000869577956795B395D9F73EF490958095C9
:10306000709561957F4F8F4F9F4F0895E89409C0E9
:1030700097FB3EF490958095709561957F4F8F4FAB
:103080009F4F9923A9F0F92F96E9BB279395F695C1
:10309000879577956795B795F111F8CFFAF4BB0F3F
:1030A00011F460FF1BC06F5F7F4F8F4F9F4F16C0A3
:1030B000882311F096E911C0772321F09EE8872F2D
:1030C000762F05C0662371F096E8862F70E060E0E9
:1030D0002AF09A95660F771F881FDAF7880F969562
:1030E000879597F908951CD180F09F3740F491118E
:1030F0000EF02EC160E070E080E89FEB089526F4AA
:103100001B16611D711D811D79C093C0C8D018F0B8
:1031100011F0CCD038F49BC01BC1E92FDFD0B0F345
:103120005523C9F3E7FB6217730784079507A8F1D6
:1031300099F3E92FFF2788232AF03197660F771F2D
:10314000881FDAF7952F5527442332F091505040CD
:10315000220F331F441FD2F7BB27E91BF50B621B5D
:10316000730B840BB109C1F222F4620F731F841F29
:10317000B11D31972AF0660F771F881FBB1FEFCF55
:10318000915050405AF041F0882332F0660F771F7B
:10319000881F91505040C1F793954BC08695779505
:1031A00067959F5FD9F7F8CF990F0008550FAA0BC5
:1031B000E0E8FEEF16161706E807F907C0F012164A
:1031C0001306E407F50798F0621B730B840B950B4D
:1031D00039F40A2661F0232B242B252B21F40895A2
:1031E0000A2609F4A140A6958FEF811D811D08953F
:1031F00097F99F6780E870E060E00895882371F494
:10320000772321F09850872B762F07C0662311F47F
:1032100099270DC09051862B70E060E02AF09A95B6
:10322000660F771F881FDAF7880F9695879597F9AD
:1032300008959F3F31F0915020F4879577956795D9
:10324000B795880F911D9695879597F908959FEFEB
:1032500080EC0895DF93CF931F930F93FF92EF922B
:10326000DF927B018C01689405C0DA2EEF018DD0CE
:10327000FE01E894A5912591359145915591AEF3C4
:10328000EF01A7DDFE019701A801DA9479F7DF903D
:10329000EF90FF900F911F91CF91DF91089500243F
:1032A0000A941616170618060906089500240A94AB
:1032B00012161306140605060895092E0394000C31
:1032C00011F4882352F0BB0F40F4BF2B11F460FFC0
:1032D00004C06F5F7F4F8F4F9F4F089557FD9058E9
:1032E000440F551F59F05F3F71F04795880F97FBCA
:1032F000991F61F09F3F79F0879508951216130684
:103300001406551FF2CF4695F1DF08C016161706B2
:103310001806991FF1CF86957105610508940895E7
:10332000E5DFA0F0BEE7B91788F4BB279F3860F44B
:103330001616B11D672F782F8827985FF7CF8695CF
:1033400077956795B11D93959639C8F30895E894DC
:10335000BB2766277727CB0197F9089525DF08F467
:103360008FEF08959B01AC0160E070E080E89FE37F
:10337000E9CD0BD0A2CF93DF28F098DF18F095238A
:1033800009F036CF64CF1124E3CFA8DFA0F3959FD7
:10339000D1F3950F50E0551F629FF001729FBB273C
:1033A000F00DB11D639FAA27F00DB11DAA1F649FE8
:1033B0006627B00DA11D661F829F2227B00DA11D9B
:1033C000621F739FB00DA11D621F839FA00D611D21
:1033D000221F749F3327A00D611D231F849F600D42
:1033E000211D822F762F6A2F11249F5750408AF07B
:1033F000E1F088234AF0EE0FFF1FBB1F661F771F07
:10340000881F91505040A9F79E3F510570F0F0CEB3
:103410009FCF5F3FECF3983EDCF3869577956795F9
:10342000B795F795E7959F5FC1F7FE2B880F911D24
:103430009695879597F908959B01AC019ACF1F92B5
:103440000F920FB60F9211242F933F938F939F9358
:10345000AF93BF9380918C0590918D05A0918E05BF
:10346000B0918F0530918B0523E0230F2D3758F550
:103470000196A11DB11D20938B0580938C0590931F
:103480008D05A0938E05B0938F0580919005909146
:103490009105A0919205B09193050196A11DB11DD2
:1034A0008093900590939105A0939205B093930516
:1034B000BF91AF919F918F913F912F910F900FBE30
:1034C0000F901F90189526E8230F0296A11DB11D9D
:1034D000D2CF2FB7F89460918C0570918D058091B3
:1034E0008E0590918F052FBF08958230910538F099
:1034F000880F991F880F991F05970197F1F7089575
:10350000789484B5826084BD84B5816084BD85B5BE
:10351000826085BD85B5816085BDEEE6F0E0808185
:1035200081608083E1E8F0E01082808182608083A6
:10353000808181608083E0E8F0E080818160808329
:10354000E1EBF0E0808184608083E0EBF0E080815B
:1035500081608083E1E9F0E0808182608083808106
:1035600081608083E0E9F0E0808181608083E1EA2E
:10357000F0E0808182608083808181608083E0EAE6
:10358000F0E0808181608083E1E2F1E0808182600F
:103590008083808181608083E0E2F1E080818160CE
:1035A0008083EAE7F0E080818460808380818260AC
:1035B0008083808181608083808180688083109295
:1035C000C10008951F93CF93DF93182FEB0161E0A3
:1035D00033D1209731F460E0812FDF91CF911F919B
:1035E00067C1CF3FD10511F461E0F6CFE12FF0E0E4
:1035F000EE5EFE4FE491E150E23108F0B2C0F0E03F
:103600008827EB5FF44E8F4F82C5171B1F1B241BAF
:103610002E1B381BB11B421B4A1B521B5C1B661B1B
:10362000701B7F1B891BB11B931B9D1BA71B84B5A4
:10363000806884BDC7BDDF91CF911F91089584B587
:10364000806284BDC8BDF7CF809180008068809380
:103650008000D0938900C0938800EDCF80918000D6
:10366000806280938000D0938B00C0938A00E3CF68
:1036700080918000886080938000D0938D00C093FB
:103680008C00D9CF8091B00080688093B000C09347
:10369000B300D1CF8091B00080628093B000C0931E
:1036A000B400C9CF80919000806880939000D0933F
:1036B0009900C0939800BFCF809190008062809362
:1036C0009000D0939B00C0939A00B5CF809190005A
:1036D000886080939000D0939D00C0939C00ABCFF6
:1036E0008091A00080688093A0008091A0008F7BD3
:1036F0008093A000D093A900C093A8009CCF809194
:10370000A00080628093A000D093AB00C093AA0079
:1037100092CF8091A00088608093A000D093AD00EC
:10372000C093AC0088CF80912001806880932001F5
:10373000D0932901C09328017ECF8091200180621F
:1037400080932001D0932B01C0932A0174CF8091E4
:103750002001886080932001D0932D01C0932C011B
:103760006ACFC038D1050CF03FCF35CF81508231C0
:1037700008F059C0E82FF0E08827EF53F44E8F4F40
:10378000C6C4E11BE51BD31BD91BDD1B131CE81BA7
:10379000EE1BF21BF81BFC1B001C061C0A1C131C56
:1037A0000E1C141C181C809180008F778093800061
:1037B0000895809180008F7DF9CF80918000877F70
:1037C000F5CF84B58F7784BD089584B58F7DFBCF09
:1037D0008091B0008F778093B00008958091B00001
:1037E0008F7DF9CF809190008F778093900008951E
:1037F000809190008F7DF9CF80919000877FF5CFE9
:103800008091A0008F778093A00008958091A00000
:103810008F7DF9CF8091A000877FF5CF8091200127
:103820008F77809320010895809120018F7DF9CFBB
:1038300080912001877FF5CFCF93DF9390E0FC014B
:10384000E85AFE4F249182569E4FFC0184918823B2
:10385000C9F090E0880F991FFC01E85EFD4FA5912B
:10386000B491FC01E250FE4FC591D49161110DC09D
:103870009FB7F8948C91209582238C93888128237C
:1038800028839FBFDF91CF910895623051F49FB795
:10389000F8943C91822F809583238C93E8812E2B82
:1038A000EFCF8FB7F894EC912E2B2C938FBFEACFEC
:1038B0001F93CF93DF93282F30E0F901EE5EFE4F88
:1038C0008491F901E85AFE4FD491F901E256FE4F76
:1038D000C491CC23A1F0162F811148DFEC2FF0E02A
:1038E000EE0FFF1FE250FE4FA591B4918FB7F894F1
:1038F000EC91111108C0D095DE23DC938FBFDF91CE
:10390000CF911F910895DE2BF8CFCF93DF93282F0F
:1039100030E0F901EE5EFE4F8491F901E85AFE4F66
:10392000D491F901E256FE4FC491CC2399F0811154
:103930001DDFEC2FF0E0EE0FFF1FEC51FE4FA591C5
:10394000B491EC91ED2381E090E009F480E0DF9107
:10395000CF91089580E090E0FACFFC01918D228D07
:10396000892F90E0805C9F4F821B91098F7399276C
:103970000895FC01918D828D981731F0828DE80FAA
:10398000F11D858D90E008958FEF9FEF0895FC0164
:10399000918D828D981761F0A28DAE0FBF2FB11D52
:1039A0005D968C91928D9F5F9F73928F90E00895AA
:1039B0008FEF9FEF0895FC01538D448D252F30E04C
:1039C000842F90E0821B930B541710F0CF9608952C
:1039D00001970895FC01A48DA80FB92FB11DA35A1A
:1039E000BF4F2C91848D90E001968F739927848F1F
:1039F000A689B7892C93A089B1898C918370806442
:103A00008C93938D848D981306C00288F389E02DE2
:103A100080818F7D80830895CF93DF93EC01888D23
:103A20008823B1F0AA89BB89E889F9898C9185FD41
:103A300003C0808186FD0CC00FB607FCF7CF8C91C8
:103A400085FFF2CF808185FFEDCFCE01C3DFEACFC6
:103A5000DF91CF910895EF92FF920F931F93CF9331
:103A6000DF93EC0181E0888F9B8D8C8D98131AC0B9
:103A7000E889F989808185FF15C09FB7F894EE89A0
:103A8000FF896083E889F9898081837080648083FD
:103A90009FBF81E090E0DF91CF911F910F91FF9048
:103AA000EF900895F62E0B8D10E00F5F1F4F0F73F0
:103AB0001127E02E8C8D8E110BC00FB607FCFACFAC
:103AC000E889F989808185FFF5CFCE0183DFF2CFC8
:103AD000EB8DEC0FFD2FF11DE35AFF4FF0829FB7E6
:103AE000F8940B8FEA89FB8980818062D0CFCF92D6
:103AF000DF92EF92FF921F93CF93DF93EC016A0165
:103B00007B01122FE889F98982E08083C11481EE5C
:103B1000D806E104F10499F060E079E08DE390E0EB
:103B2000A7019601D2D22150310941095109569578
:103B3000479537952795211580E1380790F0E8895A
:103B4000F989108260E874E88EE190E0A70196019F
:103B5000BCD22150310941095109569547953795F5
:103B60002795EC85FD853083EE85FF852083188EB3
:103B7000EC89FD891083EA89FB89808180618083DB
:103B8000EA89FB89808188608083EA89FB8980815A
:103B900080688083EA89FB8980818F7D8083DF91C3
:103BA000CF911F91FF90EF90DF90CF900895CF932A
:103BB000DF93EC01E881F9810680F781E02D19950A
:103BC000EA89FB8980818F7E8083EA89FB898081F5
:103BD000877F8083EA89FB8980818F778083EA8968
:103BE000FB8980818F7D80838A8D898FDF91CF9142
:103BF00008951F920F920FB60F9211240BB60F92D9
:103C00002F938F939F93EF93FF93E091A405F091EF
:103C1000A5058081E091AA05F091AB0582FD1DC04C
:103C200090818091AD058F5F8F732091AE058217D3
:103C300041F0E091AD05F0E0EC56FA4F958F80939E
:103C4000AD05FF91EF919F918F912F910F900BBE3A
:103C50000F900FBE0F901F9018958081F2CF1F928A
:103C60000F920FB60F9211240BB60F922F933F9322
:103C70004F935F936F937F938F939F93AF93BF9374
:103C8000EF93FF9384E995E0A5DEFF91EF91BF915B
:103C9000AF919F918F917F916F915F914F913F91E4
:103CA0002F910F900BBE0F900FBE0F901F90189585
:103CB000E4E9F5E01382128288EE93E0A0E0B0E040
:103CC00084839583A683B78382E194E09183808384
:103CD00085EC90E09587848784EC90E097878687D1
:103CE00080EC90E0918B808B81EC90E0938B828BC9
:103CF00082EC90E0958B848B86EC90E0978B868BA2
:103D0000118E128E138E148E08951F920F920FB67D
:103D10000F9211240BB60F922F938F939F93EF93D3
:103D2000FF93E0914106F09142068081E0914706C1
:103D3000F091480682FD1DC0908180914A068F5FF8
:103D40008F7320914B06821741F0E0914A06F0E014
:103D5000EF5CF94F958F80934A06FF91EF919F9109
:103D60008F912F910F900BBE0F900FBE0F901F9051
:103D700018958081F2CF1F920F920FB60F921124E7
:103D80000BB60F922F933F934F935F936F937F9355
:103D90008F939F93AF93BF93EF93FF9381E396E04D
:103DA00019DEFF91EF91BF91AF919F918F917F911C
:103DB0006F915F914F913F912F910F900BBE0F909C
:103DC0000FBE0F901F901895E1E3F6E01382128268
:103DD00088EE93E0A0E0B0E084839583A683B78368
:103DE00082E194E0918380838DEC90E095878487D5
:103DF0008CEC90E09787868788EC90E0918B808BA5
:103E000089EC90E0938B828B8AEC90E0958B848B8D
:103E10008EEC90E0978B868B118E128E138E148E03
:103E200008951F920F920FB60F9211240BB60F92A6
:103E30002F938F939F93EF93FF93E091DE06F09182
:103E4000DF068081E091E406F091E50682FD1DC069
:103E500090818091E7068F5F8F732091E80682172B
:103E600041F0E091E706F0E0E253F94F958F80933F
:103E7000E706FF91EF919F918F912F910F900BBECD
:103E80000F900FBE0F901F9018958081F2CF1F9258
:103E90000F920FB60F9211240BB60F922F933F93F0
:103EA0004F935F936F937F938F939F93AF93BF9342
:103EB000EF93FF938EEC96E08DDDFF91EF91BF9134
:103EC000AF919F918F917F916F915F914F913F91B2
:103ED0002F910F900BBE0F900FBE0F901F90189553
:103EE000EEECF6E01382128288EE93E0A0E0B0E000
:103EF00084839583A683B78382E194E09183808352
:103F000085ED90E09587848784ED90E0978786879C
:103F100080ED90E0918B808B81ED90E0938B828B94
:103F200082ED90E0958B848B86ED90E0978B868B6D
:103F3000118E128E138E148E08951F920F920FB64B
:103F40000F9211240BB60F922F938F939F93EF93A1
:103F5000FF93E0917B07F0917C078081E0918107DE
:103F6000F091820782FD1DC09081809184078F5F50
:103F70008F7320918507821741F0E0918407F0E06C
:103F8000E559F84F958F80938407FF91EF919F91AA
:103F90008F912F910F900BBE0F900FBE0F901F901F
:103FA00018958081F2CF1F920F920FB60F921124B5
:103FB0000BB60F922F933F934F935F936F937F9323
:103FC0008F939F93AF93BF93EF93FF938BE697E00D
:103FD00001DDFF91EF91BF91AF919F918F917F9103
:103FE0006F915F914F913F912F910F900BBE0F906A
:103FF0000FBE0F901F901895EBE6F7E01382128228
:1040000088EE93E0A0E0B0E084839583A683B78335
:1040100082E194E09183808385E391E095878487B2
:1040200084E391E09787868780E391E0918B808B92
:1040300081E391E0938B828B82E391E0958B848B7B
:1040400086E391E0978B868B118E128E138E148EE1
:104050000895AF92BF92CF92DF92EF92FF920F93AB
:104060001F93CF93DF936C017B018B01040F151F0E
:10407000EB015E01AE18BF08C017D10759F0699176
:10408000D601ED91FC910190F081E02DC6011995CA
:10409000892B79F7C501DF91CF911F910F91FF9087
:1040A000EF90DF90CF90BF90AF900895DB018F939A
:1040B0009F9350D0BF91AF91A29F800D911DA39F60
:1040C000900DB29F900D11240895A1E21A2EAA1B03
:1040D000BB1BFD010DC0AA1FBB1FEE1FFF1FA217B8
:1040E000B307E407F50720F0A21BB30BE40BF50BB5
:1040F000661F771F881F991F1A9469F7609570953E
:10410000809590959B01AC01BD01CF010895EE0F04
:10411000FF1F881F8BBF0790F691E02D199405D0E3
:10412000332312F48A1B9B0B10C0A29FB001B39FD4
:10413000C001A39F700D811D1124911DB29F700DB0
:10414000811D1124911D0895F0DFB7FF0895821B92
:10415000930B0895EADFA59F900DB49F900DA49F47
:10416000800D911D112408950F931F93CF93DF931A
:10417000869F8001879F100D969F100D1124C80106
:104180000DD0EC01009721F0A80170E060E02BD188
:10419000CE01DF91CF911F910F9108950F931F933F
:1041A000CF93DF938230910510F482E090E0E091AC
:1041B000C808F091C90830E020E0B0E0A0E03097F6
:1041C00099F42115310509F44AC0281B390B243014
:1041D0003105D8F58A819B816115710589F1FB0153
:1041E00093838283FE0111C040815181028113813A
:1041F00048175907E0F04817590799F4109761F0EC
:1042000012960C93129713961C933296CF01DF915E
:10421000CF911F910F9108950093C8081093C9087A
:10422000F4CF2115310551F04217530738F0A90199
:10423000DB019A01BD01DF01F801C1CFEF01F9CF28
:104240009093C9088093C808CDCFFE01E20FF31FF9
:10425000819391932250310939832883D7CF2091BC
:10426000C6083091C708232B41F4209102023091F7
:1042700003023093C7082093C608209100023091B2
:1042800001022115310541F42DB73EB740910402DA
:1042900050910502241B350BE091C608F091C70828
:1042A000E217F307A0F42E1B3F0B2817390778F00D
:1042B000AC014E5F5F4F2417350748F04E0F5F1F6C
:1042C0005093C7084093C608819391939FCFF0E025
:1042D000E0E09CCFCF93DF930097E9F0FC013297A9
:1042E00013821282A091C808B091C908ED0130E094
:1042F00020E01097A1F420813181820F931F20913B
:10430000C6083091C7082817390709F061C0F09333
:10431000C708E093C608DF91CF910895EA01CE1750
:10432000DF07E8F54A815B819E0141155105B1F730
:10433000E901FB83EA8349915991C40FD51FEC171A
:10434000FD0761F4808191810296840F951FE90138
:1043500099838883828193819B838A83F0E0E0E064
:1043600012968D919C9113970097B9F52D913C91E0
:104370001197CD010296820F931F2091C6083091AC
:10438000C7082817390739F6309751F51092C90830
:104390001092C808B093C708A093C608BCCFD383B7
:1043A000C28340815181840F951FC817D90761F4DA
:1043B0004E5F5F4F88819981480F591F5183408319
:1043C0008A819B81938382832115310509F0B0CFC7
:1043D000F093C908E093C8089ECFFD01DC01C0CF6F
:1043E00013821282D7CFDC0101C06D93415050403F
:0843F000E0F70895F894FFCFF7
:1043F8000000CA088000000080420000B440DB0FC3
:10440800C93D610B363E83F92241000000000000DF
:1044180000001B2F5D3C0000804100008041C3F577
:104428001C43000000453EC450430000003AC3F559
:104438009C3B0000BC426F12833BBD3786370000AF
:10444800804100007A4358A08B4000000343FA8D56
:10445800EA450000FA3B58A00B390000C442CDCC15
:104468004C3DBD378637F4FDD43C96430B3D0000E8
:104478000000CDCCCC3D00000000CDCC4C3DE2D7B7
:104488009037476EF237E2D79037A69BC43A9A998D
:104498003141000000410000804300007F43E54BAC
:1044A800323DA6C8B7410000F041CDCCCC3CE492E7
:1044B80055BC000000000000803F00000000000024
:1044C80000800000000035FA8E3CE12E65420000B5
:1044D8000000000000000000204100002041000012
:1044E8002041000020410000000000000000000002
:1044F8000000A660F7BF0A7483C2559EDBBFE82898
:10450800ECC00AD7233C000000000AD7233C000077
:10451800000000000000000000000000000033332D
:1045280053403333333F0AD7233C000000000000D8
:10453800803F000080BF6646B03C000000000000DD
:10454800803FCD7D7ABF000000000000803F000062
:10455800000000000000000080BF8FC2F53C000092
:104568000000000000000000000000000000000043
:10457800803F0000000000000000000080BF8FC2E4
:10458800F53C0000000000000000000000000000F2
:104598000000000080BF00000080000080BF127D86
:1045A800004000400000803F0000803F0AD7233CC5
:1045B80000000000000000000000803F000AD72330
:1045C8003C00000000000000000000803F00E803FD
:1045D8004669786564537465704469736372657479
:1045E80065002004000000001C124A12EF111B1283
:1045F800F211F9110C1294053106CE066B07000072
:1046080000002B1D2920DB1C0C1DAD1CC71CB91C70
:00000001FF
