:100000001EC100004DC100004BC1000049C10000ED
:1000100047C1000045C1000043C1000041C10000CC
:100020003FC100003DC100003BC1000039C10000DC
:1000300037C1000035C1000033C1000031C10000EC
:100040002FC100002DC100002BC1000029C10000FC
:1000500027C1000025C1000023C100000C94851CAD
:100060001FC100000C945F200C94952019C1000062
:1000700017C1000015C1000013C1000011C100002C
:100080000FC100000DC100000BC1000009C100003C
:100090000C94EB200C94212103C100000C94321627
:1000A000FFC00000FDC00000FBC00000F9C0000060
:1000B000F7C00000F5C00000F3C00000F1C0000070
:1000C000EFC00000EDC000000C9467180C9477217D
:1000D0000C94AD21E5C000000C9403220C9439224D
:1000E000DFC00000084AD73B3BCE016E84BCBFFD99
:1000F000C12F3D6C74319ABD56833DDA3D00C77FF8
:1001000011BED9E4BB4C3E916BAAAABE0000008090
:100110003F0000000A0B02090C0D0E080703040142
:1001200000000000000000000000000000000000CF
:10013000000000000000000000000000000012119C
:10014000100000000000000000000000000000009F
:10015000000000000000000001021020200808102C
:100160002040102040800201020108040201010227
:100170000408102040808040201008040201800400
:10018000020180402010080402010804020101025B
:10019000040810204080010204081020408005055A
:1001A0000505070508080808020202020A0A0808ED
:1001B000040404040101010101010101030303031B
:1001C00003030303040707070C0C0C0C0C0C0C0CAA
:1001D0000202020206060606060606060B0B0B0BBB
:1001E0000B0B0B0B000020002300260029002C0025
:1001F0002F00320000010000030106010901000088
:100200002200250028002B002E00310034000201BE
:100210000000050108010B01000021002400270057
:100220002A002D0030003300010100000401070105
:100230000A0127122D15BE204A21D621622211243F
:100240001FBECFEFD1E2DEBFCDBF00E00CBF13E099
:10025000A0E0B2E0E4ECF8E400E00BBF02C00790DD
:100260000D92A63FB107D9F727E0A6EFB3E001C092
:100270001D92A53FB207E1F711E0CFE1D1E000E028
:1002800006C021970109802FFE010E94ED22C9318D
:10029000D10780E00807A9F70E94CE180C946024CB
:1002A000AFCE2F923F924F925F926F927F928F923A
:1002B0009F92AF92BF92CF92DF92EF92FF920F93F5
:1002C0001F93CF93DF9300D01F92CDB7DEB78B0182
:1002D0005C834B83FB01E150F04CEE0FFF1FEE0FF0
:1002E000FF1FE80FF91F408151816281738177FD03
:1002F00027C04C01B12CA12CC12CD12C7601A01609
:10030000B10664F5F40161917191819191914F0170
:100310000E94661A4B815C810E94EB1B9B01AC0121
:10032000C701B6010E9408196B017C012B813C8139
:10033000205E3F4F3C832B833FEFA31AB30ADFCFEE
:100340009A838983312C212C81E090E0A0E0B0E0F9
:10035000C12CD12C760120163106CCF0C701B60194
:100360000F900F900F900F90DF91CF911F910F91F1
:10037000FF90EF90DF90CF90BF90AF909F908F90C5
:100380007F906F905F904F903F902F900895E981FC
:10039000FA814190519061907190FA83E983409481
:1003A00050946094709453014201880E991EAA1EC5
:1003B000BB1EC501B4010E94661A4B815C810E947C
:1003C000EB1B9B01AC01C701B6010E9407196B0131
:1003D0007C0181E084149504A604B70408F080E051
:1003E00090E0B0E0A0E02B813C81205E3F4F3C8359
:1003F0002B833FEF231A330AAECF2F923F924F92B7
:100400005F926F927F928F929F92AF92BF92CF92A4
:10041000DF92EF92FF920F931F93CF93DF93CDB7AD
:10042000DEB7CB54D1090FB6F894DEBF0FBECDBFF7
:1004300026967FAF6EAF269728965FAF4EAF289770
:100440003E8B2D8B2C96FFAEEEAE2C97FB01E15030
:10045000F04CEE0FFF1FEE0FFF1FE80FF91F80801B
:100460009180A280B3808F8A988EA98EBA8EB501B2
:10047000A401442777FD43955527662777272996BA
:100480004FAF2997F901E150F04CEE0FFF1FEE0F2F
:10049000FF1F2896AEACBFAC2897EA0DFB1DC080AD
:1004A000D180E280F380CB8EDC8EED8EFE8EB701A4
:1004B000A601442777FD43955527662777272A9677
:1004C0004FAF2A97188B0F87F80130E020E02C9669
:1004D000EEACFFAC2C972E153F050CF43FC02296D6
:1004E0009FAF8EAF22971A8B098B312C212C812C38
:1004F000912C540183948D829E82AF82B886269679
:100500008EAC9FAC2697281439047CF129969FACB9
:1005100029972A96AFAC2A9730E020E041E050E0DE
:1005200060E070E09A10F5C1C55BDF4F0FB6F8943C
:10053000DEBF0FBECDBFDF91CF911F910F91FF9016
:10054000EF90DF90CF90BF90AF909F908F907F9073
:100550006F905F904F903F902F900895119211925D
:10056000119211922F5F3F4FB2CF2296EEADFFADA9
:10057000229781919191A191B1912296FFAFEEAF17
:1005800022978F88988CA98CBA8CB7FE23C04D8196
:100590005E816F81788541505109610971095A0165
:1005A0006B01A81AB90ACA0ADB0AD601C50121E003
:1005B000CD80DE80EF80F8848C159D05AE05BF05EB
:1005C00008F020E0822E912CB12CA12C8D829E82ED
:1005D000AF82B8865D01CC24DD24A8A2B9A2CAA24C
:1005E000DBA29C01AD01442755272CA33DA34EA3BC
:1005F0005FA32C96EEADFFAD2C97E219F3098D8821
:100600009E888E169F060CF4F4012896AEACBFAC03
:1006100028972496BFAEAEAE2497C988DA88DC8AC4
:10062000CB8A1E861D86812C912C54018394898649
:100630009A86AB86BC86812C912C5401CD84DE84B5
:10064000CE16DF0604F1F7FF02C0F0E0E0E0E20DB5
:10065000F31D2C96EEACFFAC2C97EE15FF0554F471
:10066000EE0FFF1FEE0FFF1FE00FF11F8082918240
:10067000A282B3822FEF221A320AE989FA893496CC
:10068000FA8BE98B3CCF2496AEADBFAD2497CD90CD
:10069000DD90ED90FD902496BFAFAEAF24972B8DEB
:1006A0003C8D4D8D5E8D57FF22C089859A85AB8527
:1006B000BC850197A109B109AC01BD014C195D09C7
:1006C0006E097F096A017B0181E029853A854B85A6
:1006D0005C85C216D306E406F50608F080E0482FD4
:1006E00050E070E060E049875A876B877C87B701EC
:1006F0008827992768A779A78AA79BA7EE24FF24B4
:1007000028A139A14AA15BA1C701B6010E94BC2260
:100710002B013C012CA13DA14EA15FA168A579A5AB
:100720008AA59BA50E94BC226CA77DA78EA79FA728
:10073000AB89BC894D915D916D917D91BC8BAB8BEB
:10074000DB01CA01880D991DAA1DBB1D89839A83EF
:10075000AB83BC8391E09F8F29813A814B815C817F
:10076000281539054A055B0508F01F8E2CA13DA10F
:100770004EA15FA1C701B6010E94BC226B017C01A2
:1007800089809A80AB80BC808C0C9D1CAE1CBF1CE9
:1007900089829A82AB82BC8252019924882488AAD9
:1007A00099AAAAAABBAA29813A814B815C81280D0A
:1007B000391D4A1D5B1D2CAB3DAB4EAB5FAB8CA412
:1007C0009DA4AEA4BFA454019924882488AE99AEF8
:1007D000AAAEBBAE280D391D4A1D5B1D2CAF3DAF27
:1007E0004EAF5FAFAB89BC8914972D933D934D936A
:1007F0005C93139728A139A14AA15BA168A579A5AB
:100800008AA59BA50E94BC229F8C690D711D811D2C
:10081000911D230166247724460E571E681E791EFB
:100820002CA53DA54EA55FA54A01AA24BB24840C96
:10083000951CA61CB71C81E090E0A0E0B0E04981C7
:100840005A816B817C814C155D056E057F0518F022
:1008500080E090E0DC01880D991DAA1DBB1D41E0E0
:1008600050E060E070E088A899A8AAA8BBA8CCA82E
:10087000DDA8EEA8FFA8C814D904EA04FB0418F008
:1008800040E050E0BA01840F951FA61FB71F812CCE
:10089000912C54018394C8ACD9ACEAACFBAC2CAD20
:1008A0003DAD4EAD5FAD2C153D054E055F0518F015
:1008B000812C912C5401880E991EAA1EBB1E4D85B9
:1008C0005E854F5F5F4F5E874D87B8CEEF85F889B5
:1008D000C190D190E190F190F88BEF87DB01CA01D4
:1008E0000197A109B1098C199D09AE09BF09349777
:1008F00080839183A283B383E1E084179507A607E1
:10090000B70708F0E0E04E2F50E070E060E02F5FA6
:100910003F4F2C968EAC9FAC2C9728153905B4F21E
:1009200003CE4F925F926F927F928F929F92AF927F
:10093000BF92CF92DF92EF92FF920F931F93CF93CC
:10094000DF93CDB7DEB76A970FB6F894DEBF0FBE60
:10095000CDBF6D837E838F83988729013A01FA8EFC
:10096000E98E4B015C01B7FE08C0B094A09490944E
:100970008094811C911CA11CB11C7301620177FE43
:1009800007C0CC24DD247601C418D508E608F70892
:1009900095014427552729873A874B875C87AA24E6
:1009A000BB24C701AA27BB278D879E87AF87B88B3B
:1009B000EE24FF24C701B6010E94BC22698B7A8B0A
:1009C0008B8B9C8BA50194016D857E858F85988985
:1009D0000E94BC226D8B7E8B8F8B988FC701B601D6
:1009E0000E94BC22AB01BC01CD88DE88EF88F88C68
:1009F000D60199278827840F951FA61FB71FF1E0FE
:100A0000E0E030E020E084179507A607B70708F07C
:100A1000F0E0F983EA833B832C8329893A894B8967
:100A20005C897901DD24CC24C80ED91EEA1EFB1E88
:100A3000C816D906EA06FB0658F489819A81AB816B
:100A4000BC810196A11DB11D89839A83AB83BC83B0
:100A50002D893E894F89588DCA01AA27BB2729892C
:100A60003A894B895C894A01AA24BB24880E991EC5
:100A7000AA1EBB1E29853A854B855C856D857E85C2
:100A80008F8598890E94BC22860E971EA81EB91ECB
:100A900089819A81AB81BC81880E991EAA1EBB1EDA
:100AA0002D813E814F815885211531054105510524
:100AB00031F1411451046104710409F191E01216FD
:100AC0001306140615060CF090E081E014141504CA
:100AD000160417040CF080E0981789F0F094E09465
:100AE000D094C094C11CD11CE11CF11CC114D104D0
:100AF000E104F10439F180949094A094B094D80169
:100B00008D929D92AD92BC921397E98DFA8DC08221
:100B1000D182E282F3826A960FB6F894DEBF0FBEEE
:100B2000CDBFDF91CF911F910F91FF90EF90DF909C
:100B3000CF90BF90AF909F908F907F906F905F907D
:100B40004F900895B094A09490948094811C911C2F
:100B5000A11CB11CD4CF8F929F92AF92BF92EF9203
:100B6000FF920F931F93CF93DF9300D000D01F927B
:100B70001F92CDB7DEB74701FE0131967F018E018E
:100B80000B5F1F4FCEDE20E230E0281939096D815E
:100B90007E818F81988504C0660F771F881F991FFB
:100BA0002A95D2F709811A812B813C8104C03695A0
:100BB0002795179507958A94D2F7602B712B822B76
:100BC000932B28960FB6F894DEBF0FBECDBFDF91F2
:100BD000CF911F910F91FF90EF90BF90AF909F909A
:100BE0008F9008958F929F92AF92BF92CF92DF9293
:100BF000EF92FF920F931F93CF93DF935A01E90176
:100C00009C8020E030E0A9010E94DE1B18160CF049
:100C100056C091100BC0F80184819581A681B781DF
:100C200088839983AA83BB8381E08C83A701960183
:100C3000688179818A819B810E94CE19881F8827CB
:100C4000881FF5018083F801248535854685578501
:100C500060817181828193810E941F1C288139816A
:100C60004A815B810E9408194B015C01888299824C
:100C7000AA82BB82A70196010E94DE1B87FD05C0E8
:100C8000C882D982EA82FB820DC0F801C084D18477
:100C9000E284F384A7019601C501B4010E94CE1934
:100CA000181674F7DF91CF911F910F91FF90EF907D
:100CB000DF90CF90BF90AF909F908F900895992034
:100CC00089F31C82EFCF4F925F926F927F928F9247
:100CD0009F92AF92BF92CF92DF92EF92FF920F93CB
:100CE0001F93CF93DF9300D01F921F92CDB7DEB733
:100CF0008D833B012A01882329F1D8018C91813011
:100D000009F1F9012081318142815381D2016D9134
:100D10007D918D919C910E94081969837A838B83C0
:100D20009C83F2016083718382839383A501940184
:100D30000E94DE1B18161CF5D3018D929D92AD9278
:100D4000BC92139781E0FD81F11101C080E0D801D0
:100D50008C930F900F900F900F900F90DF91CF9189
:100D60001F910F91FF90EF90DF90CF90BF90AF90C9
:100D70009F908F907F906F905F904F900895A70104
:100D8000960169817A818B819C810E94CE1987FFAF
:100D900006C0F301C082D182E282F382D3CF89817F
:100DA0009A81AB81BC81F30180839183A283B38359
:100DB000C9CF8F929F92AF92BF92CF92DF92EF9264
:100DC000FF92CF93DF936B017C0149015A010E948E
:100DD0005110882399F06091E3077091E4078091A6
:100DE000E5079091E607DF91CF91FF90EF90DF90BC
:100DF000CF90BF90AF909F908F900895C501B401A0
:100E00000E9451108111E7CFC701B6010E940C105A
:100E10008823E1F1C501B4010E940C108823B1F1CF
:100E200020E030E0A901C701B6010E94DE1BCFEF30
:100E3000DFEF181614F4C1E0D0E020E030E0A901A3
:100E4000C501B4010E94DE1B6FEF7FEF181614F48A
:100E500061E070E0072E000C880B990B0E94681A65
:100E60006B017C01BE01DD0F880B990B0E94681A93
:100E7000A7019601DF91CF91FF90EF90DF90CF9087
:100E8000BF90AF909F908F900C947B1920E030E042
:100E9000A901C501B4010E94CE19811116C020E03C
:100EA00030E0A901C701B6010E94DE1B181694F0BC
:100EB00020E030E0A901C701B6010E94CE1987FDEC
:100EC0000EC060E070E0CB018ECFA5019401C70198
:100ED000B601D0CF6BED7FE089EC9FE384CF6BED63
:100EE0007FE089EC9FEB7FCF3F924F925F926F92B2
:100EF0007F928F929F92AF92BF92CF92DF92EF92AA
:100F0000FF920F931F93CF93DF93CDB7DEB7EC978C
:100F10000FB6F894DEBF0FBECDBF60ED77E08FEC6B
:100F200097E00E945A1063EB77E08FEA97E00E9407
:100F3000EC1065EC77E08FEB97E00E94CE112091EA
:100F4000B3073091B4074091B5075091B60760914F
:100F50008A0370918B0380918C0390918D031FE124
:100F6000E12EF12C00E010E0F6DD6D8B7E8B8F8B97
:100F7000988F8091AF079091B007A091B107B09181
:100F8000B2078093B7079093B807A093B907B093BF
:100F9000BA072D893E894F89588D2093BB0730931E
:100FA000BC074093BD075093BE078091CF07809345
:100FB000D1073090D0073092D2072091980330911A
:100FC0009903A091C107B091C2070E94F5220E9427
:100FD000681A20E030E040E053E30E941F1C698B58
:100FE0007A8B8B8B9C8B20919A0330919B03A091E1
:100FF000C307B091C4070E94F5220E94681A20E03E
:1010000030E040E053E30E941F1C20919203309196
:10101000930340919403509195030E941F1C2B0150
:101020003C0189899A89AB89BC898093A3079093F5
:10103000A407A093A507B093A6074092A7075092D4
:10104000A8076092A9077092AA0720919603309191
:101050009703A091C507B091C6070E94F5220E9490
:10106000681A20E030E040E854E30E941F1C6093BF
:10107000AB077093AC078093AD079093AE07809059
:10108000E6029090E702A090E802B090E902C090DA
:10109000DE02D090DF02E090E002F090E10205ED88
:1010A00017E02CE933E045E757E067E877E0832D68
:1010B0000ADEC090EE02D090EF02E090F002F090D5
:1010C000F10260918707709188078091890790915C
:1010D0008A0704EA13E02DE737E043ED57E082DDAD
:1010E00020E030E0A9016091870770918807809126
:1010F000890790918A070E94CE19882309F4EBC5CD
:101100008091D3078111E7C581E080937307209117
:10111000AE023091AF024091B0025091B10260E056
:1011200070E080EA90E40E94D21960939307709374
:10113000940780939507909396078090EA02909089
:10114000EB02A090EC02B090ED02C090E202D090D1
:10115000E302E090E402F090E50206ED17E020EAF9
:1011600033E049E757E06BE877E08091CF07ABDDEC
:10117000C090F202D090F302E090F402F090F502F9
:1011800060918B0770918C0780918D0790918E07ED
:1011900005EB13E022E837E044ED57E023DD20E0E3
:1011A00030E0A90160918B0770918C0780918D07C9
:1011B00090918E070E94CE19882309F4A4C58091CE
:1011C000D4078111A0C581E08093740720917A0231
:1011D00030917B0240917C0250917D026DEC7CEC61
:1011E0008CEC9DE30E94D2192091DA023091DB024F
:1011F0004091DC025091DD020E941F1C6093970712
:10120000709398078093990790939A0720912603EB
:10121000309127034091280350912903C301B20163
:101220000E941F1C6B017C0120912203309123033B
:10123000409124035091250369897A898B899C897F
:101240000E941F1CA7019601B4DD409049075090F1
:101250004A0760904B0770904C07C0904D07D090A4
:101260004E07E0904F07F0905007A30192010E94B3
:1012700007194B015C0120913603309137034091EF
:10128000380350913903C701B6010E941F1C9B010E
:10129000AC01C501B4010E940719209132033091BD
:1012A000330340913403509135030E94D219609367
:1012B0009B0770939C0780939D0790939E072091B6
:1012C0002A0330912B0340912C0350912D030E944F
:1012D0001F1C4B015C0120912E0330912F03409184
:1012E000300350913103C701B6010E941F1C9B01BE
:1012F000AC01C501B4010E940819A30192010E942A
:1013000008192091DA023091DB024091DC02509101
:10131000DD020E941F1C698B7A8B8B8B9C8B8091CA
:10132000AF079091B007A091B107B091B2072D8996
:101330003E894F89588D820F931FA41FB51F40917E
:101340008E0350918F0360919003709191034D87AC
:101350005E876F87788B89879A87AB87BC8732E0F7
:10136000E32EF12C8E010F5F1F4F21E030E0AE0124
:10137000475F5F4F61E070E0CE010D963ED850E0D0
:1013800040E062E070E0C8010E94510120E030E0DE
:1013900040E050E30E941F1C20910A0230910B0292
:1013A00040910C0250910D020E941F1C6B017C01A8
:1013B0002091B6023091B7024091B8025091B90223
:1013C00060E070E080E89FE30E94D2199B01AC01CD
:1013D000C701B6010E941F1C29893A894B895C8983
:1013E0000E9408194B015C018091510790915207AE
:1013F000A0915307B0915407898F9A8FAB8FBC8F00
:101400002091550730915607409157075091580742
:101410002D8F3E8F4F8F58A38091590790915A0777
:10142000A0915B07B0915C0789A39AA3ABA3BCA36F
:10143000209152033091530340915403509155032E
:10144000698D7A8D8B8D9C8D0E941F1C9B01AC0138
:10145000C501B4010E9407196B017C01209156035C
:101460003091570340915803509159036D8D7E8DF3
:101470008F8D98A10E941F1C9B01AC01C701B60172
:101480000E9407196B017C0120915A0330915B0384
:1014900040915C0350915D0369A17AA18BA19CA14D
:1014A0000E941F1C9B01AC01C701B6010E940719D5
:1014B00020914E0330914F034091500350915103BE
:1014C0000E94D2196B017C01C0929F07D092A007A5
:1014D000E092A107F092A20720915D0730915E078C
:1014E00040915F07509160072DA33EA34FA358A7DB
:1014F0008091610790916207A0916307B0916407A2
:1015000089A79AA7ABA7BCA720916507309166076A
:1015100040916707509168072DA73EA74FA758AB8A
:1015200020917603309177034091780350917903AD
:101530006DA17EA18FA198A50E941F1C9B01AC01EB
:1015400069897A898B899C890E9407192B013C0142
:1015500020917A0330917B0340917C0350917D036D
:1015600069A57AA58BA59CA50E941F1C9B01AC01B7
:10157000C301B2010E9407192B013C0120917E0397
:1015800030917F0340918003509181036DA57EA52A
:101590008FA598A90E941F1C9B01AC01C301B20139
:1015A0000E940719209172033091730340917403D4
:1015B000509175030E94D2196DAB7EAB8FAB98AF83
:1015C00020E030E0A90160918B0770918C07809139
:1015D0008D0790918E070E94CE19811110C020E0D6
:1015E00030E0A90160918707709188078091890791
:1015F00090918A070E94CE19882309F49CC3809198
:101600007207811113C08091160390911703A09166
:101610001803B09119038093690790936A07A09308
:101620006B07B0936C0781E0809372078091D602BC
:101630009091D702A091D802B091D9028D8B9E8B48
:10164000AF8BB88F209197073091980740919907F9
:1016500050919A07BC01CD010E941F1C2B013C0137
:10166000A50194016D897E898F89988D0E941F1C28
:1016700069AF7AAF8BAF9CAF2091690730916A0751
:1016800040916B0750916C0729AB3AAB4BAB5CAB0D
:101690002091CE023091CF024091D0025091D102E0
:1016A000C301B2010E941F1C4B015C0120913E034B
:1016B00030913F034091400350914103C701B6016F
:1016C0000E941F1C6B017C01209142033091430357
:1016D0004091440350914503698D7A8D8B8D9C8D8B
:1016E0000E941F1C9B01AC01C701B6010E94081992
:1016F0006B017C01209146033091470340914803E0
:10170000509149036D8D7E8D8F8D98A10E941F1C75
:101710009B01AC01C701B6010E9408196B017C0155
:1017200020914A0330914B0340914C0350914D035B
:1017300069A17AA18BA19CA10E941F1C9B01AC01F5
:10174000C701B6010E9408192D893E894F89588D1D
:101750000E941F1C9B01AC01C501B4010E94071926
:1017600020910A0330910B0340910C0350910D031B
:101770000E941F1C6B017C012091CA023091CB0298
:101780004091CC025091CD02C301B2010E941F1CB6
:101790004B015C0129893A894B895C896D897E8975
:1017A0008F89988D0E941F1C9B01AC01C501B4015B
:1017B0000E94071920910603309107034091080306
:1017C000509109030E941F1C4B015C012091C6022D
:1017D0003091C7024091C8025091C902C301B201C1
:1017E0000E941F1C29AD3AAD4BAD5CAD0E9407199C
:1017F00020910203309103034091040350910503AB
:101800000E941F1C9B01AC01C501B4010E94081974
:101810009B01AC01C701B6010E9408196B017C0154
:101820002091D2023091D3024091D4025091D5023E
:10183000C301B2010E941F1C4B015C012091620395
:101840003091630340916403509165036DA97EA9B3
:101850008FA998AD0E941F1C698B7A8B8B8B9C8BF8
:1018600020916603309167034091680350916903AA
:101870006DA17EA18FA198A50E941F1C9B01AC01A8
:1018800069897A898B899C890E940819698B7A8B6E
:101890008B8B9C8B20916A0330916B0340916C037E
:1018A00050916D0369A57AA58BA59CA50E941F1C6C
:1018B0009B01AC0169897A898B899C890E940819EE
:1018C000698B7A8B8B8B9C8B20916E0330916F038D
:1018D00040917003509171036DA57EA58FA598A9C5
:1018E0000E941F1C9B01AC0169897A898B899C89A4
:1018F0000E9408192D893E894F89588D0E941F1C0E
:101900009B01AC01C501B4010E94071920910E038F
:1019100030910F0340911003509111030E941F1C3E
:101920009B01AC01C701B6010E9408196B017C0143
:101930002091C2023091C3024091C4025091C5026D
:10194000C301B2010E941F1C9B01AC01C701B6017B
:101950000E9408196B017C012091BE023091BF02E8
:101960004091C0025091C10269A97AA98BA99CA992
:101970000E941F1C9B01AC01C701B6010E940819FF
:101980002091B2023091B3024091B4025091B5025D
:101990000E941F1C60938F0770939007809391079C
:1019A0009093920729AD3AAD4BAD5CADC301B20146
:1019B0000E940719209112033091130340911403E0
:1019C000509115030E941F1C29A93AA94BA95CA993
:1019D0000E9408196093690770936A0780936B07E8
:1019E00090936C072091930730919407409195074D
:1019F0005091960760918F077091900780919107A1
:101A0000909192070E9407196B017C010E94A31A12
:101A10004B015C0146D38111A6C1C501B401FCD2C2
:101A20008111A1C120E030E040E857E4C501B401D4
:101A30000E94BD1A4B015C0120E030E0A9010E9428
:101A4000CE1987FF93C1C501B40190580E943A1A7C
:101A50007195619571097093CC076093CB072091C4
:101A60008603309187034091880350918903C70111
:101A7000B6010E941F1C0E94A31A6B017C0111D3A6
:101A8000811179C1C701B601C7D2811174C120E0AB
:101A900030E040E857E4C701B6010E94BD1A6B016F
:101AA0007C0120E030E0A9010E94CE1987FF66C1C9
:101AB000C701B60190580E943A1A71956195710953
:101AC0007093CE076093CD076DEC77E08BEC97E0D9
:101AD0000E946B1780916D0790916E072091D1073E
:101AE0003091D207DC012D933D9328E0E7EBF7E03E
:101AF00001900D922A95E1F7DC011A9628E0E3EABD
:101B0000F7E001900D922A95E1F74091AB075091D3
:101B1000AC076091AD077091AE07DC0152964D9312
:101B20005D936D937C93559740916F07509170072B
:101B300066E170E080916D0790916E070E94A41796
:101B4000E0916F07F0917007178A60916F077091AD
:101B5000700781E7A82E87E0B82E92E4C92E21E411
:101B6000E22E01E028E130E040E050E082E00E9417
:101B7000D3172091AB073091AC074091AD0750913E
:101B8000AE076091D6027091D7028091D8029091F1
:101B9000D9020E941F1C20911A0330911B0340910F
:101BA0001C0350911D030E941F1C20914907309176
:101BB0004A0740914B0750914C070E9408196093C7
:101BC000490770934A0780934B0790934C07809185
:101BD0009B0790919C07A0919D07B0919E078093D1
:101BE0004D0790934E07A0934F07B09350078091F5
:101BF000550790915607A0915707B09158078093C9
:101C0000590790935A07A0935B07B0935C078091A4
:101C1000610790916207A0916307B0916407809378
:101C2000650790936607A0936707B0936807809154
:101C3000510790915207A0915307B0915407809398
:101C4000550790935607A0935707B0935807809174
:101C50005D0790915E07A0915F07B0916007809348
:101C6000610790936207A0936307B0936407809124
:101C70009F079091A007A091A107B091A207809320
:101C8000510790935207A0935307B09354072DA97F
:101C90003EA94FA958AD20935D0730935E0740934E
:101CA0005F0750936007EC960FB6F894DEBF0FBE47
:101CB000CDBFDF91CF911F910F91FF90EF90DF90FB
:101CC000CF90BF90AF909F908F907F906F905F90DC
:101CD0004F903F90089580917307882309F42DCA8F
:101CE0008091FA029091FB02A091FC02B091FD025A
:101CF0008093930790939407A0939507B0939607CA
:101D0000109273071ACA80917407882309F47ECA57
:101D10008091F6029091F702A091F802B091F90239
:101D20008093970790939807A0939907B0939A0789
:101D3000109274076BCA80917207882309F452CEFF
:101D40008091FE029091FF02A0910003B0910103E7
:101D500080938F0790939007A0939107B093920779
:101D6000109272073FCE812C912C5401C501B40111
:101D70000E943A1A70CEC12CD12C7601C701B6014F
:101D80000E943A1A9DCECF93DF9384E090E00DD16C
:101D900089D120D2F1D20E94531761E070E086E130
:101DA00090E00E941A23C9E4D7E09DA38CA361E0D0
:101DB00070E088E190E00E941A239FA38EA318A6EA
:101DC00040E056E960E070E082E00E94C917E5ED6E
:101DD000F7E081E08083818380911E0390911F034F
:101DE000A0912003B091210388839983AA83BB83A8
:101DF00080913A0390913B03A0913C03B0913D0345
:101E00008C839D83AE83BF8340915E0350915F03BB
:101E10006091600370916103488759876A877B8767
:101E20008091820390918303A0918403B0918503F4
:101E30008C8B9D8BAE8BBF8B4C875D876E877F872E
:101E4000888F998FAA8FBB8F488B598B6A8B7B8B1E
:101E50008C8F9D8FAE8FBF8F8091DE029091DF02BD
:101E6000A091E002B091E1028CA79DA7AEA7BFA709
:101E7000E7E8F7E080839183A283B3838091A8038E
:101E80009091A903A091AA03B091AB038CAB9DAB39
:101E9000AEABBFAB8091B4038093D3078091FA02BD
:101EA0009091FB02A091FC02B091FD02848795877E
:101EB000A687B7878091E2029091E302A091E402A5
:101EC000B091E50288AB99ABAAABBBAB8483958399
:101ED000A683B7838091B9039091BA03A091BB0305
:101EE000B091BC0389AF9AAFABAFBCAF8091C503D3
:101EF0008093D4078091F6029091F702A091F802A6
:101F0000B091F902808B918BA28BB38B80911603D9
:101F100090911703A0911803B091190388A399A376
:101F2000AAA3BBA38091FE029091FF02A09100039F
:101F3000B091010380879187A287B387DF91CF910A
:101F40000895CF93DF93D5D0CCD180D2F7D7C9E411
:101F5000D7E08CA19DA10E94D0238EA19FA10E94B9
:101F6000D02318A682E0DF91CF910C943B1860E05B
:101F700070E080E89FE7089560E070E080E89FE708
:101F8000089560E070E080E89FEF089560E070E001
:101F900080E89FEF089560E070E080EC9FEF089587
:101FA00060E070E080EC9FEF0895F5DF6093E30759
:101FB0007093E4078093E5079093E607F1DF609361
:101FC000D7077093D8078093D9079093DA07CFDFAC
:101FD0006093DF077093E0078093E1079093E20737
:101FE000CBDF6093DB077093DC078093DD07909372
:101FF000DE07C7DF6093E7077093E8078093E90780
:102000009093EA07C3DF6093EB077093EC0780932C
:10201000ED079093EE070895CF92DF92EF92FF9233
:10202000CF936B017C01AC019B016091DF07709144
:10203000E0078091E1079091E2070E94CE19C1E08C
:10204000882371F0A70196016091E7077091E80776
:102050008091E9079091EA070E94CE198111C0E0B2
:102060008C2FCF91FF90EF90DF90CF9008950F933A
:102070001F938B019C010027112720783F770115C2
:10208000110520483F4749F4AB01BC016F77772722
:1020900081E0452B462B472B09F480E01F910F91DF
:1020A0000895E5CF60E08EE20E94821E60E08FE23C
:1020B0000C94821E0F931F93CF93DF938C01EB013F
:1020C0008EE20E94EB1E019779F481E0F801808393
:1020D0008FE20E94EB1E019751F481E08883DF912B
:1020E000CF911F910F910895F8011082F1CF1882BE
:1020F000F6CF08958EBD00000DB407FEFDCF8EB55E
:10210000089561E081E30E94821E61E080E30E9405
:10211000821E61E081E30E94BE1E61E080E30E94B6
:10212000BE1EE0D060E081E30E94BE1E88E8E2DFD0
:1021300083E0E0DF61E081E30E94BE1E60E080E3B7
:102140000E94BE1E88E8D6DF83E0D4DF61E080E332
:102150000C94BE1E60E081E30E94BE1E88E9CADFC7
:1021600080E0C8DF80E0C6DF80E0C4DF80E0C2DF5F
:1021700061E081E30E94BE1E8AE090E00E94DB1CC9
:1021800060E081E30E94BE1E80EEB4DF61E081E387
:102190000E94BE1E60E080E30E94BE1E88E9AADFA6
:1021A00080E0A8DF80E0A6DF80E0A4DF80E0A2DF9F
:1021B00061E080E30E94BE1E8AE090E00E94DB1C8A
:1021C00060E080E30E94BE1E80EE94DF61E080E369
:1021D0000C94BE1E96DFBECF8F929F92AF92BF929D
:1021E000CF92DF92EF92FF920F931F93CF93DF93E3
:1021F0008C01EB0160E081E30E94BE1E80E67ADF85
:1022000080E078DFF82E80E075DFC82E80E072DF96
:10221000A82E80E06FDFB82E61E081E30E94BE1E31
:102220008F2D90E0982F8827C80ED92ED11C0D2C09
:10223000000CEE08FF08FE2CED2CDC2CCC24CA0C84
:10224000D11CE11CF11CFE2CED2CDC2CCC24CB0C85
:10225000D11CE11CF11C60E080E30E94BE1E80E600
:1022600049DF80E047DF882E80E044DF982E80E061
:1022700041DFA82E80E03EDFB82E61E080E30E94BF
:10228000BE1E882D90E0982F8827890D911D092E5C
:10229000000CAA0BBB0BBA2FA92F982F88278A0DE9
:1022A000911DA11DB11DBA2FA92F982F8827F801C4
:1022B000C082D182E282F3828B0D911DA11DB11DDE
:1022C00088839983AA83BB83DF91CF911F910F915C
:1022D000FF90EF90DF90CF90BF90AF909F908F9046
:1022E000089536C0CF93CFB7F8948091F903811148
:1022F00027C0E3EDF1E08491EDE8F1E09491E82F5F
:10230000F0E0EE0FFF1FE85EFD4FA591B491EC9158
:10231000E92321F461E085E30E94BE1E61E085E3CC
:102320000E94821E8CB580618CBD8CB580648CBD92
:1023300061E084E30E94821E61E083E30E94821ECA
:102340008091F9038F5F8093F903CFBFCF910895F8
:102350009FB7F8948091F903882319F081508093F6
:10236000F9038091F903811105C08CB58F7B8CBD79
:102370001092F8039FBF089589E094E0E6D28AEFB7
:1023800093E0FBD062E08AEF93E068D060E08AEFF0
:1023900093E06ED063E08AEF93E074C08F929F92D7
:1023A000AF92BF92CF92DF92EF92FF920F931F9363
:1023B000CF93DF93CDB7DEB72C970FB6F894DEBF7F
:1023C0000FBECDBF4C015B01CE0101966C01FE0139
:1023D00033967F018E010B5F1F4F9E01295F3F4F98
:1023E000AE01475F5F4FBE01655F7F4F8AEF93E0AD
:1023F00053D08B859C85F4019183808389859A8550
:10240000938382838F819885958384838D819E8138
:10241000F501918380838B819C8193838283898161
:102420009A81958384832C960FB6F894DEBF0FBEF5
:10243000CDBFDF91CF911F910F91FF90EF90DF9073
:10244000CF90BF90AF909F908F90089508958AEF9E
:1024500093E000C028E6FC01208308950F93062F27
:1024600023E042E06AE1FC018081A4D10F9108954C
:102470000F93062F22E044E06BE1FC0180819AD1AA
:102480000F9108950F93062F22E044E06CE1FC01C8
:10249000808190D10F9108954F925F926F927F92B9
:1024A0008F929F92AF92BF92CF92DF92EF92FF9264
:1024B0000F931F93CF93DF93EC013B014A01590126
:1024C00028010091C6031091C7039C012F5F3F4F65
:1024D0004EE06BE388819BD089819A819827892778
:1024E0009827F301918380838B819C81982789278A
:1024F0009827F401918380838D819E819827892775
:102500009827F5019183808389859A859827892763
:102510009827F201918380838B859C859827892752
:102520009827F701918380838D859E859827892739
:102530009827F60191838083DF91CF911F910F91AE
:10254000FF90EF90DF90CF90BF90AF909F908F90D3
:102550007F906F905F904F900895262F46E06BE636
:10256000FC018081F9C00F93062F23E042E06BE667
:10257000FC0180811FD10F910895CF93DF93EC016F
:1025800061E0F1DF60E0CE0173DF60E0CE017ADF71
:1025900060E0CE01DF91CF91E0CFFF920F931F93C8
:1025A000CF93DF93C62F042FF22E132F682F89E0CD
:1025B00094E0D4D16C2F89E094E06DD1CF2DD12F50
:1025C0000C0F1D2F111DC017D10729F0699189E04B
:1025D00094E061D1F8CF89E094E03DD291E081119F
:1025E00090E0892FDF91CF911F910F91FF90089577
:1025F000CF93DF931F92CDB7DEB749839E012F5F44
:102600003F4F41E0CADF0F90DF91CF9108952F92A5
:102610003F924F925F926F927F928F929F92AF9272
:10262000BF92CF92DF92EF92FF920F931F93CF93BF
:10263000DF9300D0CDB7DEB7E82E69834B83690105
:102640000E94CF1C4B015C01F12C1A822B81222E9F
:10265000312C2801712C612C8B81F81608F041C0B7
:102660006E2D89E094E07AD1698189E094E013D1FC
:1026700089E094E0F0D16E2D89E094E06FD1A10162
:102680004F1951094132510514F040E250E06E2DCE
:1026900089E094E0DED189E094E0D3D0892BD9F0B1
:1026A0000115110569F489E094E0D2D0F6019A8110
:1026B000E90FF11D97FDFA9580839F5F9A83EBCF19
:1026C0000E94CF1C681979098A099B096415750550
:1026D0008605970540F38B81813208F080E2F80E81
:1026E000BBCF01151105C1F00E94CF1C68197909F3
:1026F0008A099B0930E020E0601771078207930781
:1027000058F02A81822F220F990B2B812817190646
:1027100019F014F08FEF8A838A810F900F900F9039
:10272000DF91CF911F910F91FF90EF90DF90CF90AD
:10273000BF90AF909F908F907F906F905F904F90E1
:102740003F902F9008950F931F9389019A0141E0C4
:102750005EDF1F910F910895EF92FF920F931F93E9
:10276000CF93DF931F92CDB7DEB7182F062FE42E3D
:10277000F22E2091C6033091C703AE014F5F5F4F29
:10278000E2DF81E090E001C0880FEA94EAF7498136
:10279000FF2069F0482B4983602F812F29DF0F909C
:1027A000DF91CF911F910F91FF90EF900895809549
:1027B0004823F1CFDF92EF92FF920F931F93CF93B5
:1027C000DF931F92CDB7DEB7F82EE62E142FD22E50
:1027D0002091C6033091C703AE014F5F5F4FB3DF57
:1027E000882351F1812F8D19990BAC014F5F5F4FF9
:1027F00081E090E002C0880F991FDA94E2F7019718
:10280000042E01C0880F0A94EAF701C0000F4A9510
:10281000EAF7482F4095998149238023482B498323
:102820006E2D8F2DE5DE0F90DF91CF911F910F91CF
:10283000FF90EF90DF90089580E0F5CF90E080E08A
:1028400008958091390490913A04891B990B089559
:1028500090913A04809139042FEF3FEF981748F494
:10286000E92FF0E0E55CFB4F208130E09F5F909323
:102870003A04C9010895E0913A0480913904E817B7
:1028800030F4F0E0E55CFB4F808190E008958FEF3D
:102890009FEF08950895CF93DF931F92CDB7DEB7D2
:1028A0006983209115042223F9F020911604203227
:1028B00058F021E030E0FC013383228390E080E097
:1028C0000F90DF91CF91089580911704E82FF0E0E9
:1028D000E85EFB4F998190838F5F8093170480930C
:1028E000160481E090E0ECCF61E0CE01019683D147
:1028F000F8CFCF92DF92EF92FF920F931F93CF9377
:10290000DF937C01CB018A0120911504222389F0F9
:10291000EB016B01C40ED51ECC15DD0561F069918C
:10292000D701ED91FC910190F081E02DC70119953F
:10293000F3CF642F60D1C801DF91CF911F910F9128
:10294000FF90EF90DF90CF90089510923A0410928C
:102950003904109217041092160490C081E08093FD
:102960001504609338041092170410921604089509
:102970000F93062F21E04091160468E174E08091E6
:102980003804E2D010921704109216041092150425
:102990000F9108954F925F926F927F92AF92BF9284
:1029A000CF92EF92FF920F931F93CF93DF935C012F
:1029B000F62ED42F28013901EE2009F1CFDFCE2DDC
:1029C000C43008F0C3E0C150B8F028E0C29FC00195
:1029D0001124A301920104C0569547953795279578
:1029E0008A95D2F7B901D501ED91FC910190F08162
:1029F000E02DC5011995E7CF60E0C501B9DF4D2F86
:102A0000D13208F040E22C2D6BE374E08F2D54D0CE
:102A100010923A0480933904DF91CF911F910F9166
:102A2000FF90EF90CF90BF90AF907F906F905F90AE
:102A30004F900895CF92EF920F931F93C22EE12CE7
:102A400000E010E09801A6DF1F910F91EF90CF906A
:102A5000089521E0EFCF61E08BCFE9E0F4E013824D
:102A6000128288EE93E0A0E0B0E084839583A68391
:102A7000B7838EEC93E09183808308951092C8040D
:102A800081E08093C6041092C50461E084E10E9455
:102A9000BE1E61E085E10E94BE1EE9EBF0E0808190
:102AA0008E7F808380818D7F80838CE08093B800CF
:102AB00085E48093BC000895413208F043C09091B2
:102AC000C8049111FCCF91E09093C8042093C604F0
:102AD0002FEF20935B041092A004240F20939F04F7
:102AE0009093C7049091C704880F892B8093C704E3
:102AF0008091C504813009F51092C5048091C70406
:102B00008093BB008091BC0083FDF8CF85EC80935F
:102B1000BC008091C8048130E1F38091A004841747
:102B200010F44091A004A1EAB4E0962FFB018E2F8F
:102B3000891B841720F0842F089585EEE8CF8D91AE
:102B40008193F5CF40E0F7CF0F93413208F04BC0AF
:102B50009091C8049111FCCF92E09093C804009327
:102B6000C6049FEF90935B041092A00440939F04CF
:102B7000362FA1EAB4E0FB019E2F931B941770F14E
:102B80001092C7049091C704880F892B8093C704C3
:102B90008091C504813029F51092C5048091C70445
:102BA0008093BB008091BC0083FDF8CF85EC8093BF
:102BB000BC00222321F08091C8048230D1F380919F
:102BC0005B048F3F91F080915B04803281F08091B3
:102BD0005B04803371F084E00F91089591919D938F
:102BE000CBCF85EEE4CF81E0F7CF80E0F5CF82E078
:102BF000F3CF83E0F1CF20917D04260F3327331FDD
:102C000021323105ECF42091C804FC0190E080E011
:102C1000243069F082E00895A0917D042191AC01F7
:102C200041585B4FA40FB52FB11D2C930196861709
:102C300098F380917D04680F60937D0480E008958F
:102C400081E0089585ED8093BC008091BC0084FDF7
:102C5000FCCF1092C804089585EC8093BC001092BC
:102C6000C80408951F920F920FB60F9211240BB64D
:102C70000F922F933F934F935F936F937F938F9315
:102C80009F93AF93BF93EF93FF938091B900887F99
:102C9000803609F44CC008F03FC0883209F4A8C05F
:102CA00028F5803109F49CC0C8F4882309F4F8C0E1
:102CB000883009F495C0FF91EF91BF91AF919F913A
:102CC0008F917F916F915F914F913F912F910F90D5
:102CD0000BBE0F900FBE0F901F901895883109F40E
:102CE00087C0803241F780935B0414C0803409F4BC
:102CF0009CC040F48033B9F38833E9F680935B04D9
:102D0000ABDFD9CF803509F484C0883509F495C08C
:102D1000883489F697DFCFCF883909F48CC038F52D
:102D2000883729F050F4883611F0803721F683E097
:102D30008093C80410925C0457C0883809F47BC0A3
:102D4000803919F0803809F0B6CF80915C04803268
:102D500008F071C0E0915C0481E08E0F80935C0408
:102D60008091BB00F0E0E35AFB4F80833DC0803B85
:102D700039F0E0F4803A09F479C0883A09F09BCF41
:102D800084E08093C80410927E0410927D04E09148
:102D9000C304F091C404199580917D0481110FC082
:102DA00081E080937D0410927F0409C0803C09F487
:102DB00075C0883C09F472C0883B09F07CCFE09173
:102DC0007E0481E08E0F80937E04F0E0E158FB4F9B
:102DD00080818093BB0090917E0480917D0429C006
:102DE0008091C7048093BB0085EC8093BC0063CFC7
:102DF0009091A00480919F04981758F5E091A00449
:102E000081E08E0F8093A004F0E0EF55FB4F8081AE
:102E1000E9CFE091A00481E08E0F8093A00480911F
:102E2000BB00F0E0EF55FB4F80839091A0048091B0
:102E30009F049817C8F285E8D8CFE091A00481E0FC
:102E40008E0F8093A0048091BB00F0E0EF55FB4F04
:102E500080838091C60481115DCF81E08093C50499
:102E600084EA8093BC001092C80425CFF5DE8091DF
:102E70005C04803230F4E0915C04F0E0E35AFB4FF4
:102E8000108260915C0470E0E091C104F091C20492
:102E90008DE594E0199510925C040DCF85ECE1CF9F
:102EA00010925B0437CF61E08CE02CD761E083E0C7
:102EB00029D761E089E026D761E08DE023D761E082
:102EC0008BE020D761E088E01DD760E089E056D72D
:102ED00060E088E053C70F931F93CF93DF938C017B
:102EE000EB01FC018081918197FD19C061E08CE0CC
:102EF00045D7F80160817181772783E0C9D5888142
:102F0000998197FD14C061E08DE038D7688179819F
:102F100077278BE0DF91CF911F910F91B9C560E0CA
:102F20008CE02CD7F8016081619570E0E6CF60E01D
:102F30008DE024D76881619570E0EBCF61E089E096
:102F40001DD761E088E01AC7CF93DF93FA01680FBD
:102F5000791FEA012196DC0191E0A617B70720F05E
:102F60009083DF91CF9108958D919E012F5F3F4F08
:102F7000811105C09083FE0191E0E901EECF8883C5
:102F80009F5F9F3FD1F79083F9019E012E5F3F4FD6
:102F9000F3CF880F990BFC01E452FC4F26E08081AF
:102FA00091810C94DD1F4F925F926F927F928F926E
:102FB0009F92AF92BF92CF92EF920F931F93CF93B6
:102FC000DF93182FEB0129010023E1F0E82FEE0F2A
:102FD000FF0BE452FC4F80809180D401ED91FC9175
:102FE0000084F185E02DC4011995181619066CF4BA
:102FF000D401ED91FC910284F385E02DC401199573
:103000008E1125C081E0F5018083F501808181303A
:1030100019F5E12FEE0FFF0BE452FC4F80819181F7
:10302000DC01ED91FC910280F381E02DA201BE0153
:10303000DF91CF911F910F91EF90CF90BF90AF9004
:103040009F908F907F906F905F904F9019948C110C
:10305000DCCFD5011C92D9CFDF91CF911F910F9179
:10306000EF90CF90BF90AF909F908F907F906F9098
:103070005F904F900895880F990BFC01E452FC4F2C
:1030800080819181FAC740E855E260E070E090E00D
:1030900080E000C08130910571F01CF4892B39F07B
:1030A00008958230910559F0039769F0089526E05C
:1030B00085ED94E082C726E082E795E0FBCF26E02D
:1030C0008FE096E0F7CF26E08CEA96E0F3CF1F92F0
:1030D0000F920FB60F9211240BB60F922F933F93BE
:1030E0004F935F936F937F938F939F93AF93BF9310
:1030F000EF93FF938FE89DEF909325018093240138
:1031000034D0FF91EF91BF91AF919F918F917F91BB
:103110006F915F914F913F912F910F900BBE0F9048
:103120000FBE0F901F9018958FE89DEF909325018B
:1031300080932401A3E7B0E08C918E7F8C93E0E232
:10314000F1E080818C7F8083E1E2F1E08081877E05
:10315000808380818460808380818C7F80838C9158
:1031600081608C93089581E008958091C90491E075
:10317000980F9093C904882349F021E030E0309300
:10318000CB042093CA048093C904089578940E94C4
:103190007407F8948091C9048150F5CFCF93DF93E1
:1031A0001092F0071092EF0711D46DDFC091C803A1
:1031B000D091C903198218820E94C30EF894B4DF1B
:1031C00081E028813981232B09F080E08093EF078B
:1031D000789478948091EF07811108C00E94A10F24
:1031E000F89490E080E0DF91CF91089581E028810C
:1031F0003981232B09F480E08093F0079091F00748
:1032000081E0911180E08093EF07ADDFE3CF50586C
:10321000BB27AA270ED081C272D230F077D220F01D
:1032200031F49F3F11F41EF442C20EF4E095E7FB27
:103230000FC2E92F83D280F3BA176207730784079E
:10324000950718F071F49EF5B2C20EF4E0950B2EBE
:10325000BA2FA02D0B01B90190010C01CA01A001E8
:103260001124FF27591B99F0593F50F4503E68F143
:103270001A16F040A22F232F342F4427585FF3CF84
:10328000469537952795A795F0405395C9F77EF455
:103290001F16BA0B620B730B840BBAF09150A1F09E
:1032A000FF0FBB1F661F771F881FC2F70EC0BA0F24
:1032B000621F731F841F48F4879577956795B795AC
:1032C000F7959E3F08F0B3CF9395880F08F09927A4
:1032D000EE0F97958795089512D258F080E891E007
:1032E00009F49EEF13D228F040E851E059F45EEF64
:1032F00009C0DDC15CC2E92FE07820D268F3092E55
:10330000052AC1F3261737074807590738F00E2E4C
:1033100007F8E02569F0E025E0640AC0EF6307F8EC
:10332000009407FADB01B9019D01DC01CA01AD017E
:10333000EF9347D0F2D10AD05F91552331F02BEDB6
:103340003FE049E450FD49EC63CF0895DF93DD276A
:10335000B92FBF7740E85FE31616170648075B07EB
:1033600010F4D92F2FD29F938F937F936F93CAD24C
:10337000E4EEF0E09FD1D1D12F913F914F915F9139
:103380006AD2DD2349F09058A2EA2AED3FE049ECE9
:103390005FE3D0785D274DDFDF91BFC135D108F401
:1033A00081E008950CD0B9C1B1D140F0A8D130F07E
:1033B00021F45F3F19F04CC15111FAC178C1BED15F
:1033C00098F39923C9F35523B1F3951B550BBB27EC
:1033D000AA2762177307840738F09F5F5F4F220F99
:1033E000331F441FAA1FA9F333D00E2E3AF0E0E892
:1033F00030D091505040E695001CCAF729D0FE2FDE
:1034000027D0660F771F881FBB1F2617370748076F
:10341000AB07B0E809F0BB0B802DBF01FF27935825
:103420005F4F2AF09E3F510568F012C1C1C15F3F56
:10343000ECF3983EDCF3869577956795B795F7950D
:103440009F5FC9F7880F911D9695879597F9089505
:10345000E1E0660F771F881FBB1F621773078407A1
:10346000BA0720F0621B730B840BBA0BEE1F88F7B0
:10347000E09508956BD188F09F5790F0B92F992768
:10348000B751A0F0D1F0660F771F881F991F1AF06F
:10349000BA95C9F712C0B13081F089D1B1E0089571
:1034A00086C1672F782F8827B85F39F0B93FCCF3F2
:1034B000869577956795B395D9F73EF49095809565
:1034C000709561957F4F8F4F9F4F0895E89409C085
:1034D00097FB3EF490958095709561957F4F8F4F47
:1034E0009F4F9923A9F0F92F96E9BB279395F6955D
:1034F000879577956795B795F111F8CFFAF4BB0FDB
:1035000011F460FF1BC06F5F7F4F8F4F9F4F16C03E
:10351000882311F096E911C0772321F09EE8872FC8
:10352000762F05C0662371F096E8862F70E060E084
:103530002AF09A95660F771F881FDAF7880F9695FD
:10354000879597F908951CD180F09F3740F4911129
:103550000EF02EC160E070E080E89FEB089526F445
:103560001B16611D711D811D79C093C0C8D018F054
:1035700011F0CCD038F49BC01BC1E92FDFD0B0F3E1
:103580005523C9F3E7FB6217730784079507A8F172
:1035900099F3E92FFF2788232AF03197660F771FC9
:1035A000881FDAF7952F5527442332F09150504069
:1035B000220F331F441FD2F7BB27E91BF50B621BF9
:1035C000730B840BB109C1F222F4620F731F841FC5
:1035D000B11D31972AF0660F771F881FBB1FEFCFF1
:1035E000915050405AF041F0882332F0660F771F17
:1035F000881F91505040C1F793954BC086957795A1
:1036000067959F5FD9F7F8CF990F0008550FAA0B60
:10361000E0E8FEEF16161706E807F907C0F01216E5
:103620001306E407F50798F0621B730B840B950BE8
:1036300039F40A2661F0232B242B252B21F408953D
:103640000A2609F4A140A6958FEF811D811D0895DA
:1036500097F99F6780E870E060E00895882371F42F
:10366000772321F09850872B762F07C0662311F41B
:1036700099270DC09051862B70E060E02AF09A9552
:10368000660F771F881FDAF7880F9695879597F949
:1036900008959F3F31F0915020F487957795679575
:1036A000B795880F911D9695879597F908959FEF87
:1036B00080EC0895DF93CF931F930F93FF92EF92C7
:1036C000DF927B018C01689405C0DA2EEF01C3D034
:1036D000FE01E894A5912591359145915591AEF360
:1036E000EF01A7DDFE019701A801DA9479F7DF90D9
:1036F000EF90FF900F911F91CF91DF9108950024DB
:103700000A941616170618060906089500240A9446
:1037100012161306140605060895092E0394000CCC
:1037200011F4882352F0BB0F40F4BF2B11F460FF5B
:1037300004C06F5F7F4F8F4F9F4F089557FD905884
:10374000440F551F59F05F3F71F04795880F97FB65
:10375000991F61F09F3F79F087950895121613061F
:103760001406551FF2CF4695F1DF08C0161617064E
:103770001806991FF1CF8695710561050894089583
:10378000E5DFA0F0BEE7B91788F4BB279F3860F4E7
:103790001616B11D672F782F8827985FF7CF86956B
:1037A00077956795B11D93959639C8F30895E89478
:1037B000BB2766277727CB0197F9089525DF08F403
:1037C0008FEF08959B01AC0160E070E080E89FE31B
:1037D000E9CD3ECF5ECFBADFE8F39923D9F3940F5A
:1037E000511DBBF39150504094F059F0882332F0B2
:1037F000660F771F881F91505040C1F79E3F5105BB
:1038000044F7880F911D9695879597F908955F3F26
:10381000ACF0983E9CF0BB27869577956795B79559
:1038200008F4B1609395C1F7BB0F58F711F460FF2E
:10383000E8CF6F5F7F4F8F4F9F4FE3CFB9CF0BD054
:103840006CCF5DDF28F062DF18F0952309F000CF20
:103850002ECF1124ADCF72DFA0F3959FD1F3950F3A
:1038600050E0551F629FF001729FBB27F00DB11D04
:10387000639FAA27F00DB11DAA1F649F6627B00D94
:10388000A11D661F829F2227B00DA11D621F739F7D
:10389000B00DA11D621F839FA00D611D221F749F8B
:1038A0003327A00D611D231F849F600D211D822FD2
:1038B000762F6A2F11249F5750408AF0E1F0882319
:1038C0004AF0EE0FFF1FBB1F661F771F881F915026
:1038D0005040A9F79E3F510570F0BACE69CF5F3FC7
:1038E000ECF3983EDCF3869577956795B795F79559
:1038F000E7959F5FC1F7FE2B880F911D96958795E1
:1039000097F908959B01AC019ACF1F920F920FB6C1
:103910000F9211242F933F938F939F93AF93BF9355
:103920008091CD049091CE04A091CF04B091D004A9
:103930003091CC0423E0230F2D3758F50196A11DBB
:10394000B11D2093CC048093CD049093CE04A0931A
:10395000CF04B093D0048091D1049091D204A0916F
:10396000D304B091D4040196A11DB11D8093D1045C
:103970009093D204A093D304B093D404BF91AF9199
:103980009F918F913F912F910F900FBE0F901F909D
:10399000189526E8230F0296A11DB11DD2CF2FB78F
:1039A000F8946091CD047091CE048091CF049091F1
:1039B000D0042FBF08958230910538F0880F991FE9
:1039C000880F991F05970197F1F70895789484B5AA
:1039D000826084BD84B5816084BD85B5826085BD0B
:1039E00085B5816085BDEEE6F0E0808181608083F1
:1039F000E1E8F0E0108280818260808380818160D4
:103A00008083E0E8F0E0808181608083E1EBF0E09A
:103A1000808184608083E0EBF0E08081816080833E
:103A2000E1E9F0E080818260808380818160808331
:103A3000E0E9F0E0808181608083E1EAF0E080816C
:103A400082608083808181608083E0EAF0E0808111
:103A500081608083E1E2F1E0808182608083808107
:103A600081608083E0E2F1E0808181608083EAE729
:103A7000F0E08081846080838081826080838081A7
:103A8000816080838081806880831092C100089566
:103A90001F93CF93DF93182FEB0161E033D1209771
:103AA00031F460E0812FDF91CF911F9167C1CF3F4B
:103AB000D10511F461E0F6CFE12FF0E0EE5EFE4FAC
:103AC000E491E150E23108F0B2C0F0E08827E55916
:103AD000F24E8F4F82C57D1D851D8A1D941D9E1D32
:103AE000171EA81DB01DB81DC21DCC1DD61DE51D7D
:103AF000EF1D171EF91D031E0D1E84B5806884BDC1
:103B0000C7BDDF91CF911F91089584B5806284BDB8
:103B1000C8BDF7CF80918000806880938000D093EB
:103B20008900C0938800EDCF8091800080628093EF
:103B30008000D0938B00C0938A00E3CF80918000F7
:103B4000886080938000D0938D00C0938C00D9CF83
:103B50008091B00080688093B000C093B300D1CF53
:103B60008091B00080628093B000C093B400C9CF50
:103B700080919000806880939000D0939900C093CA
:103B80009800BFCF80919000806280939000D09386
:103B90009B00C0939A00B5CF80919000886080937D
:103BA0009000D0939D00C0939C00ABCF8091A0006B
:103BB00080688093A0008091A0008F7B8093A000FC
:103BC000D093A900C093A8009CCF8091A0008062F0
:103BD0008093A000D093AB00C093AA0092CF8091B5
:103BE000A00088608093A000D093AD00C093AC008B
:103BF00088CF80912001806880932001D093290193
:103C0000C09328017ECF80912001806280932001A3
:103C1000D0932B01C0932A0174CF8091200188603A
:103C200080932001D0932D01C0932C016ACFC0381E
:103C3000D1050CF03FCF35CF8150823108F059C00B
:103C4000E82FF0E08827E95DF14E8F4FC6C4471E8C
:103C50004B1E391E3F1E431E791E4E1E541E581EFB
:103C60005E1E621E661E6C1E701E791E741E7A1EFB
:103C70007E1E809180008F778093800008958091D0
:103C800080008F7DF9CF80918000877FF5CF84B54C
:103C90008F7784BD089584B58F7DFBCF8091B00070
:103CA0008F778093B00008958091B0008F7DF9CF19
:103CB000809190008F77809390000895809190007C
:103CC0008F7DF9CF80919000877FF5CF8091A00004
:103CD0008F778093A00008958091A0008F7DF9CF09
:103CE0008091A000877FF5CF809120018F7780930E
:103CF00020010895809120018F7DF9CF80912001CE
:103D0000877FF5CFCF93DF9390E0FC01E85AFE4F19
:103D1000249182569E4FFC0184918823C9F090E043
:103D2000880F991FFC01E85EFD4FA591B491FC013D
:103D3000E250FE4FC591D49161110DC09FB7F89428
:103D40008C91209582238C938881282328839FBF80
:103D5000DF91CF910895623051F49FB7F8943C9170
:103D6000822F809583238C93E8812E2BEFCF8FB702
:103D7000F894EC912E2B2C938FBFEACF1F93CF9307
:103D8000DF93282F30E0F901EE5EFE4F8491F901B8
:103D9000E85AFE4FD491F901E256FE4FC491CC236C
:103DA000A1F0162F811148DFEC2FF0E0EE0FFF1F7E
:103DB000E250FE4FA591B4918FB7F894EC91111198
:103DC00008C0D095DE23DC938FBFDF91CF911F9188
:103DD0000895DE2BF8CFCF93DF93282F30E0F90141
:103DE000EE5EFE4F8491F901E85AFE4FD491F9013D
:103DF000E256FE4FC491CC2399F081111DDFEC2FC8
:103E0000F0E0EE0FFF1FEC51FE4FA591B491EC9145
:103E1000ED2381E090E009F480E0DF91CF910895F7
:103E200080E090E0FACFFC01918D228D892F90E007
:103E3000805C9F4F821B91098F7399270895FC0125
:103E4000918D828D981731F0828DE80FF11D858D4F
:103E500090E008958FEF9FEF0895FC01918D828D82
:103E6000981761F0A28DAE0FBF2FB11D5D968C919A
:103E7000928D9F5F9F73928F90E008958FEF9FEFD9
:103E80000895FC01538D448D252F30E0842F90E060
:103E9000821B930B541710F0CF9608950197089545
:103EA000FC01A48DA80FB92FB11DA35ABF4F2C91AF
:103EB000848D90E001968F739927848FA689B789A6
:103EC0002C93A089B1898C91837080648C93938D9D
:103ED000848D981306C00288F389E02D80818F7D40
:103EE00080830895CF93DF93EC01888D8823B1F010
:103EF000AA89BB89E889F9898C9185FD03C08081F5
:103F000086FD0CC00FB607FCF7CF8C9185FFF2CF72
:103F1000808185FFEDCFCE01C3DFEACFDF91CF9166
:103F20000895EF92FF920F931F93CF93DF93EC01CD
:103F300081E0888F9B8D8C8D98131AC0E889F98950
:103F4000808185FF15C09FB7F894EE89FF89608353
:103F5000E889F98980818370806480839FBF81E0D4
:103F600090E0DF91CF911F910F91FF90EF90089516
:103F7000F62E0B8D10E00F5F1F4F0F731127E02EF1
:103F80008C8D8E110BC00FB607FCFACFE889F9892A
:103F9000808185FFF5CFCE0183DFF2CFEB8DEC0F73
:103FA000FD2FF11DE35AFF4FF0829FB7F8940B8F5E
:103FB000EA89FB8980818062D0CFCF92DF92EF9235
:103FC000FF921F93CF93DF93EC016A017B01122FC5
:103FD000E889F98982E08083C11481EED806E10482
:103FE000F10499F060E079E08DE390E0A70196019B
:103FF000D2D221503109410951095695479537953B
:104000002795211580E1380790F0E889F989108219
:1040100060E874E88EE190E0A7019601BCD22150DF
:104020003109410951095695479537952795EC85F2
:10403000FD853083EE85FF852083188EEC89FD8910
:104040001083EA89FB89808180618083EA89FB890A
:10405000808188608083EA89FB8980818068808391
:10406000EA89FB8980818F7D8083DF91CF911F91C9
:10407000FF90EF90DF90CF900895CF93DF93EC0106
:10408000E881F9810680F781E02D1995EA89FB899D
:1040900080818F7E8083EA89FB898081877F80830E
:1040A000EA89FB8980818F778083EA89FB89808117
:1040B0008F7D80838A8D898FDF91CF9108951F92A4
:1040C0000F920FB60F9211240BB60F922F938F936E
:1040D0009F93EF93FF93E091E504F091E6048081D4
:1040E000E091EB04F091EC0482FD1DC09081809181
:1040F000EE048F5F8F732091EF04821741F0E091FF
:10410000EE04F0E0EB52FB4F958F8093EE04FF91AD
:10411000EF919F918F912F910F900BBE0F900FBE3B
:104120000F901F9018958081F2CF1F920F920FB6BB
:104130000F9211240BB60F922F933F934F935F93DF
:104140006F937F938F939F93AF93BF93EF93FF935F
:1041500085ED94E0A5DEFF91EF91BF91AF919F9126
:104160008F917F916F915F914F913F912F910F9020
:104170000BBE0F900FBE0F901F901895E5EDF4E069
:104180001382128288EE93E0A0E0B0E084839583EE
:10419000A683B78388EE93E09183808385EC90E0DB
:1041A0009587848784EC90E09787868780EC90E001
:1041B000918B808B81EC90E0938B828B82EC90E0F2
:1041C000958B848B86EC90E0978B868B118E128E6C
:1041D000138E148E08951F920F920FB60F92112412
:1041E0000BB60F922F938F939F93EF93FF93E091D2
:1041F0008205F09183058081E0918805F091890521
:1042000082FD1DC0908180918B058F5F8F732091FF
:104210008C05821741F0E0918B05F0E0EE58FA4FE3
:10422000958F80938B05FF91EF919F918F912F91A7
:104230000F900BBE0F900FBE0F901F9018958081AE
:10424000F2CF1F920F920FB60F9211240BB60F925E
:104250002F933F934F935F936F937F938F939F938E
:10426000AF93BF93EF93FF9382E795E019DEFF9141
:10427000EF91BF91AF919F918F917F916F915F91DE
:104280004F913F912F910F900BBE0F900FBE0F904B
:104290001F901895E2E7F5E01382128288EE93E012
:1042A000A0E0B0E084839583A683B78388EE93E093
:1042B000918380838DEC90E0958784878CEC90E0EF
:1042C0009787868788EC90E0918B808B89EC90E0D3
:1042D000938B828B8AEC90E0958B848B8EEC90E0B4
:1042E000978B868B118E128E138E148E08951F92CB
:1042F0000F920FB60F9211240BB60F922F938F933C
:104300009F93EF93FF93E0911F06F0912006808129
:10431000E0912506F091260682FD1DC090818091D6
:1043200028068F5F8F7320912906821741F0E09154
:104330002806F0E0E15FF94F958F80932806FF9102
:10434000EF919F918F912F910F900BBE0F900FBE09
:104350000F901F9018958081F2CF1F920F920FB689
:104360000F9211240BB60F922F933F934F935F93AD
:104370006F937F938F939F93AF93BF93EF93FF932D
:104380008FE096E08DDDFF91EF91BF91AF919F910E
:104390008F917F916F915F914F913F912F910F90EE
:1043A0000BBE0F900FBE0F901F901895EFE0F6E038
:1043B0001382128288EE93E0A0E0B0E084839583BC
:1043C000A683B78388EE93E09183808385ED90E0A8
:1043D0009587848784ED90E09787868780ED90E0CD
:1043E000918B808B81ED90E0938B828B82ED90E0BE
:1043F000958B848B86ED90E0978B868B118E128E39
:10440000138E148E08951F920F920FB60F921124DF
:104410000BB60F922F938F939F93EF93FF93E0919F
:10442000BC06F091BD068081E091C206F091C30602
:1044300082FD1DC090818091C5068F5F8F73209192
:10444000C606821741F0E091C506F0E0E455F94F49
:10445000958F8093C506FF91EF919F918F912F913A
:104460000F900BBE0F900FBE0F901F90189580817C
:10447000F2CF1F920F920FB60F9211240BB60F922C
:104480002F933F934F935F936F937F938F939F935C
:10449000AF93BF93EF93FF938CEA96E001DDFF911A
:1044A000EF91BF91AF919F918F917F916F915F91AC
:1044B0004F913F912F910F900BBE0F900FBE0F9019
:1044C0001F901895ECEAF6E01382128288EE93E0D2
:1044D000A0E0B0E084839583A683B78388EE93E061
:1044E0009183808385E391E09587848784E391E0DD
:1044F0009787868780E391E0918B808B81E391E0C1
:10450000938B828B82E391E0958B848B86E391E0A1
:10451000978B868B118E128E138E148E0895AF9208
:10452000BF92CF92DF92EF92FF920F931F93CF93A0
:10453000DF936C017B018B01040F151FEB015E0102
:10454000AE18BF08C017D10759F06991D601ED9197
:10455000FC910190F081E02DC6011995892B79F726
:10456000C501DF91CF911F910F91FF90EF90DF90E8
:10457000CF90BF90AF900895DB018F939F9350D061
:10458000BF91AF91A29F800D911DA39F900DB29FEF
:10459000900D11240895A1E21A2EAA1BBB1BFD0148
:1045A0000DC0AA1FBB1FEE1FFF1FA217B307E40712
:1045B000F50720F0A21BB30BE40BF50B661F771F6A
:1045C000881F991F1A9469F760957095809590954A
:1045D0009B01AC01BD01CF010895EE0FFF1F881FA5
:1045E0008BBF0790F691E02D199405D0332312F478
:1045F0008A1B9B0B10C0A29FB001B39FC001A39F59
:10460000700D811D1124911DB29F700D811D11240B
:10461000911D0895F0DFB7FF0895821B930B089555
:10462000EADFA59F900DB49F900DA49F800D911D72
:10463000112408950F931F93CF93DF93869F8001DA
:10464000879F100D969F100D1124C8010DD0EC010D
:10465000009721F0A80170E060E02BD1CE01DF913E
:10466000CF911F910F9108950F931F93CF93DF93D5
:104670008230910510F482E090E0E091F307F09130
:10468000F40730E020E0B0E0A0E0309799F4211585
:10469000310509F44AC0281B390B24303105D8F5FF
:1046A0008A819B816115710589F1FB019383828366
:1046B000FE0111C0408151810281138148175907C1
:1046C000E0F04817590799F4109761F012960C938F
:1046D000129713961C933296CF01DF91CF911F91C1
:1046E0000F9108950093F3071093F407F4CF211569
:1046F000310551F04217530738F0A901DB019A0147
:10470000BD01DF01F801C1CFEF01F9CF9093F407AC
:104710008093F307CDCFFE01E20FF31F81939193B6
:104720002250310939832883D7CF2091F107309166
:10473000F207232B41F420910202309103023093BF
:10474000F2072093F1072091000230910102211518
:10475000310541F42DB73EB7409104025091050256
:10476000241B350BE091F107F091F207E217F307F4
:10477000A0F42E1B3F0B2817390778F0AC014E5FD1
:104780005F4F2417350748F04E0F5F1F5093F20715
:104790004093F107819391939FCFF0E0E0E09CCFAD
:1047A000CF93DF930097E9F0FC01329713821282D6
:1047B000A091F307B091F407ED0130E020E01097ED
:1047C000A1F420813181820F931F2091F107309154
:1047D000F2072817390709F061C0F093F207E09358
:1047E000F107DF91CF910895EA01CE17DF07E8F5D1
:1047F0004A815B819E0141155105B1F7E901FB83B7
:10480000EA8349915991C40FD51FEC17FD0761F454
:10481000808191810296840F951FE9019983888395
:10482000828193819B838A83F0E0E0E012968D91F0
:104830009C9113970097B9F52D913C911197CD015B
:104840000296820F931F2091F1073091F2072817EB
:10485000390739F6309751F51092F4071092F307A3
:10486000B093F207A093F107BCCFD383C2834081FA
:104870005181840F951FC817D90761F44E5F5F4FB0
:1048800088819981480F591F518340838A819B8178
:10489000938382832115310509F0B0CFF093F4079B
:1048A000E093F3079ECFFD01DC01C0CF138212829B
:1048B000D7CFDC0101C06D9341505040E0F708951F
:0448C000F894FFCF9A
:1048C4000000F5078000000080420000B440DB0FC8
:1048D400C93D610B363E83F922410000000000000F
:1048E40000001B2F5D3C0000804100008041C3F5A7
:1048F4001C43000000453EC450430000003AC3F589
:104904009C3B0000BC426F12833BBD3786370000DE
:10491400804100007A4358A08B4000000343FA8D85
:10492400EA450000FA3B58A00B390000C442CDCC44
:104934004C3DBD378637F4FDD43C96430B3D000017
:104944000000CDCCCC3D00000000CDCC4C3DE2D7E6
:104954009037476EF237E2D79037A69BC43A9A99BC
:104964003141000000410000804300007F43E54BDB
:10497400323DA6C8B7410000F041CDCCCC3C61A586
:1049840055BC000000000000803F00000000000053
:1049940000800000000035FA8E3CE12E65420000E4
:1049A4000000000000000000204100002041000041
:1049B4002041000020410000000000000000000031
:1049C40000006DC3F4BF509A82C2CE87DABFBA2307
:1049D400EBC00AD7233C000000000AD7233C0000A8
:1049E40000000000803F000080BF6646B03C00002D
:1049F40000000000803FCD7D7ABF00000000000071
:104A0400803F0000000000000000000080BF8FC253
:104A1400F53C000000000000000000000000000061
:104A240000000000803F00000000000000000000C3
:104A340080BF8FC2F53C00000000000000000000B1
:104A4400000000000000000080BF000000800000A3
:104A54000040000080BF127D004000400000803F05
:104A64000000803F0AD7233C000000000000000043
:104A74000000803F000AD7233C0000000000000033
:104A8400000000803F00E803F603000000004B1420
:104A940079141E144A14211428143B14D5047205E5
:104AA4000F06AC0600000000911F8F22411F721FE9
:064AB400131F2D1F1F1F40
:00000001FF
